

Microchip MPLAB XC8 Assembler V2.10 build 88905656 
                                                                                               Sun Jun 14 15:14:56 2020

Microchip MPLAB XC8 C Compiler v2.10 (Free license) build 20190730164152 Og1 
     1                           	processor	18F2550
     2                           	fnconf	rparam,??,?,0
     3                           	opt	pw 120
     4                           	opt	flic
     5                           	psect	idataCOMRAM,global,class=CODE,delta=1,noexec
     6                           	psect	mediumconst,global,reloc=2,class=MEDIUMCONST,delta=1,noexec
     7                           	psect	cinit,global,reloc=2,class=CODE,delta=1
     8                           	psect	bssCOMRAM,global,class=COMRAM,space=1,delta=1,noexec
     9                           	psect	dataCOMRAM,global,class=COMRAM,space=1,delta=1,noexec
    10                           	psect	bssBANK0,global,class=BANK0,space=1,delta=1,lowdata,noexec
    11                           	psect	cstackBANK0,global,class=BANK0,space=1,delta=1,noexec
    12                           	psect	cstackCOMRAM,global,class=COMRAM,space=1,delta=1,noexec
    13                           	psect	text0,global,reloc=2,class=CODE,delta=1
    14                           	psect	text1,global,reloc=2,class=CODE,delta=1
    15                           	psect	text2,global,reloc=2,class=CODE,delta=1
    16                           	psect	text3,global,reloc=2,class=CODE,delta=1,group=1
    17                           	psect	text4,global,reloc=2,class=CODE,delta=1,group=1
    18                           	psect	text5,global,reloc=2,class=CODE,delta=1,group=2
    19                           	psect	text6,global,reloc=2,class=CODE,delta=1
    20                           	psect	text7,global,reloc=2,class=CODE,delta=1,group=1
    21                           	psect	text8,global,reloc=2,class=CODE,delta=1,group=1
    22                           	psect	text9,global,reloc=2,class=CODE,delta=1,group=1
    23                           	psect	text10,global,reloc=2,class=CODE,delta=1,group=1
    24                           	psect	text11,global,reloc=2,class=CODE,delta=1,group=1
    25                           	psect	text12,global,reloc=2,class=CODE,delta=1,group=1
    26                           	psect	text13,global,reloc=2,class=CODE,delta=1,group=1
    27                           	psect	text14,global,reloc=2,class=CODE,delta=1,group=1
    28                           	psect	text15,global,reloc=2,class=CODE,delta=1,group=1
    29                           	psect	text16,global,reloc=2,class=CODE,delta=1,group=1
    30                           	psect	text17,global,reloc=2,class=CODE,delta=1,group=1
    31                           	psect	text18,global,reloc=2,class=CODE,delta=1,group=1
    32                           	psect	text19,global,reloc=2,class=CODE,delta=1,group=1
    33                           	psect	text20,global,reloc=2,class=CODE,delta=1,group=2
    34                           	psect	text21,global,reloc=2,class=CODE,delta=1,group=2
    35                           	psect	text22,global,reloc=2,class=CODE,delta=1,group=1
    36                           	psect	text23,global,reloc=2,class=CODE,delta=1,group=1
    37                           	psect	text24,global,reloc=2,class=CODE,delta=1
    38                           	psect	text25,global,reloc=2,class=CODE,delta=1
    39                           	psect	text26,global,reloc=2,class=CODE,delta=1
    40                           	psect	text27,global,reloc=2,class=CODE,delta=1
    41                           	psect	text28,global,reloc=2,class=CODE,delta=1
    42                           	psect	text29,global,reloc=2,class=CODE,delta=1
    43                           	psect	text30,global,reloc=2,class=CODE,delta=1
    44                           	psect	text31,global,reloc=2,class=CODE,delta=1
    45                           	psect	text32,global,reloc=2,class=CODE,delta=1
    46                           	psect	text33,global,reloc=2,class=CODE,delta=1
    47                           	psect	text34,global,reloc=2,class=CODE,delta=1
    48                           	psect	text35,global,reloc=2,class=CODE,delta=1
    49                           	psect	text36,global,reloc=2,class=CODE,delta=1
    50                           	psect	intsave_regs,global,class=BIGRAM,space=1,delta=1,noexec
    51                           	psect	rparam,global,class=COMRAM,space=1,delta=1,noexec
    52  0000                     
    53                           ; Version 2.10
    54                           ; Generated 31/07/2019 GMT
    55                           ; 
    56                           ; Copyright © 2019, Microchip Technology Inc. and its subsidiaries ("Microchip")
    57                           ; All rights reserved.
    58                           ; 
    59                           ; This software is developed by Microchip Technology Inc. and its subsidiaries ("Microch
      +                          ip").
    60                           ; 
    61                           ; Redistribution and use in source and binary forms, with or without modification, are
    62                           ; permitted provided that the following conditions are met:
    63                           ; 
    64                           ;     1. Redistributions of source code must retain the above copyright notice, this lis
      +                          t of
    65                           ;        conditions and the following disclaimer.
    66                           ; 
    67                           ;     2. Redistributions in binary form must reproduce the above copyright notice, this 
      +                          list
    68                           ;        of conditions and the following disclaimer in the documentation and/or other
    69                           ;        materials provided with the distribution.
    70                           ; 
    71                           ;     3. Microchip's name may not be used to endorse or promote products derived from th
      +                          is
    72                           ;        software without specific prior written permission.
    73                           ; 
    74                           ; THIS SOFTWARE IS PROVIDED BY MICROCHIP "AS IS" AND ANY EXPRESS OR IMPLIED WARRANTIES,
    75                           ; INCLUDING, BUT NOT LIMITED TO, THE IMPLIED WARRANTIES OF MERCHANTABILITY AND FITNESS F
      +                          OR
    76                           ; PURPOSE ARE DISCLAIMED.  IN NO EVENT SHALL MICROCHIP BE LIABLE FOR ANY DIRECT, INDIREC
      +                          T,
    77                           ; INCIDENTAL, SPECIAL, EXEMPLARY, OR CONSEQUENTIAL DAMAGES (INCLUDING BUT NOT LIMITED TO
    78                           ; PROCUREMENT OF SUBSTITUTE GOODS OR SERVICES; LOSS OF USE, DATA OR PROFITS; OR BUSINESS
    79                           ; INTERRUPTION) HOWSOEVER CAUSED AND ON ANY THEORY OF LIABILITY, WHETHER IN CONTRACT, ST
      +                          RICT
    80                           ; LIABILITY, OR TORT (INCLUDING NEGLIGENCE OR OTHERWISE) ARISING IN ANY WAY OUT OF THE U
      +                          SE OF
    81                           ; THIS SOFTWARE, EVEN IF ADVISED OF THE POSSIBILITY OF SUCH DAMAGE.
    82                           ; 
    83                           ; 
    84                           ; Code-generator required, PIC18F2550 Definitions
    85                           ; 
    86                           ; SFR Addresses
    87  0000                     
    88                           	psect	idataCOMRAM
    89  0051F8                     __pidataCOMRAM:
    90                           	opt callstack 0
    91                           
    92                           ;initializer for _ADCResult
    93  0051F8  012C               	dw	300
    94                           
    95                           	psect	mediumconst
    96  007D74                     __pmediumconst:
    97                           	opt callstack 0
    98  007D74  00                 	db	0
    99  007D75                     __powers_:
   100                           	opt callstack 0
   101  007D75  0000               	dw	0
   102  007D77  3F80               	dw	16256
   103  007D79  0000               	dw	0
   104  007D7B  4120               	dw	16672
   105  007D7D  0000               	dw	0
   106  007D7F  42C8               	dw	17096
   107  007D81  0000               	dw	0
   108  007D83  447A               	dw	17530
   109  007D85  4000               	dw	16384
   110  007D87  461C               	dw	17948
   111  007D89  5000               	dw	20480
   112  007D8B  47C3               	dw	18371
   113  007D8D  2400               	dw	9216
   114  007D8F  4974               	dw	18804
   115  007D91  9680               	dw	38528
   116  007D93  4B18               	dw	19224
   117  007D95  BC20               	dw	48160
   118  007D97  4CBE               	dw	19646
   119  007D99  6B28               	dw	27432
   120  007D9B  4E6E               	dw	20078
   121  007D9D  02F9               	dw	761
   122  007D9F  5015               	dw	20501
   123  007DA1  78EC               	dw	30956
   124  007DA3  60AD               	dw	24749
   125  007DA5  F2CA               	dw	62154
   126  007DA7  7149               	dw	29001
   127  007DA9                     __end_of__powers_:
   128                           	opt callstack 0
   129  007DA9                     __npowers_:
   130                           	opt callstack 0
   131  007DA9  0000               	dw	0
   132  007DAB  3F80               	dw	16256
   133  007DAD  CCCD               	dw	52429
   134  007DAF  3DCC               	dw	15820
   135  007DB1  D70A               	dw	55050
   136  007DB3  3C23               	dw	15395
   137  007DB5  126F               	dw	4719
   138  007DB7  3A83               	dw	14979
   139  007DB9  B717               	dw	46871
   140  007DBB  38D1               	dw	14545
   141  007DBD  C5AC               	dw	50604
   142  007DBF  3727               	dw	14119
   143  007DC1  37BD               	dw	14269
   144  007DC3  3586               	dw	13702
   145  007DC5  BF95               	dw	49045
   146  007DC7  33D6               	dw	13270
   147  007DC9  CC77               	dw	52343
   148  007DCB  322B               	dw	12843
   149  007DCD  705F               	dw	28767
   150  007DCF  3089               	dw	12425
   151  007DD1  E6FF               	dw	59135
   152  007DD3  2EDB               	dw	11995
   153  007DD5  E508               	dw	58632
   154  007DD7  1E3C               	dw	7740
   155  007DD9  4260               	dw	16992
   156  007DDB  0DA2               	dw	3490
   157  007DDD                     __end_of__npowers_:
   158                           	opt callstack 0
   159  007DDD                     _FONT_1:
   160                           	opt callstack 0
   161  007DDD  00                 	db	0
   162  007DDE  00                 	db	0
   163  007DDF  00                 	db	0
   164  007DE0  00                 	db	0
   165  007DE1  00                 	db	0
   166  007DE2  00                 	db	0
   167  007DE3  00                 	db	0
   168  007DE4  5F                 	db	95
   169  007DE5  00                 	db	0
   170  007DE6  00                 	db	0
   171  007DE7  00                 	db	0
   172  007DE8  07                 	db	7
   173  007DE9  00                 	db	0
   174  007DEA  07                 	db	7
   175  007DEB  00                 	db	0
   176  007DEC  14                 	db	20
   177  007DED  7F                 	db	127
   178  007DEE  14                 	db	20
   179  007DEF  7F                 	db	127
   180  007DF0  14                 	db	20
   181  007DF1  24                 	db	36
   182  007DF2  2A                 	db	42
   183  007DF3  7F                 	db	127
   184  007DF4  2A                 	db	42
   185  007DF5  12                 	db	18
   186  007DF6  23                 	db	35
   187  007DF7  13                 	db	19
   188  007DF8  08                 	db	8
   189  007DF9  64                 	db	100
   190  007DFA  62                 	db	98
   191  007DFB  36                 	db	54
   192  007DFC  49                 	db	73
   193  007DFD  55                 	db	85
   194  007DFE  22                 	db	34
   195  007DFF  50                 	db	80
   196  007E00  00                 	db	0
   197  007E01  05                 	db	5
   198  007E02  03                 	db	3
   199  007E03  00                 	db	0
   200  007E04  00                 	db	0
   201  007E05  00                 	db	0
   202  007E06  1C                 	db	28
   203  007E07  22                 	db	34
   204  007E08  41                 	db	65
   205  007E09  00                 	db	0
   206  007E0A  00                 	db	0
   207  007E0B  41                 	db	65
   208  007E0C  22                 	db	34
   209  007E0D  1C                 	db	28
   210  007E0E  00                 	db	0
   211  007E0F  14                 	db	20
   212  007E10  08                 	db	8
   213  007E11  3E                 	db	62
   214  007E12  08                 	db	8
   215  007E13  14                 	db	20
   216  007E14  08                 	db	8
   217  007E15  08                 	db	8
   218  007E16  3E                 	db	62
   219  007E17  08                 	db	8
   220  007E18  08                 	db	8
   221  007E19  00                 	db	0
   222  007E1A  50                 	db	80
   223  007E1B  30                 	db	48
   224  007E1C  00                 	db	0
   225  007E1D  00                 	db	0
   226  007E1E  08                 	db	8
   227  007E1F  08                 	db	8
   228  007E20  08                 	db	8
   229  007E21  08                 	db	8
   230  007E22  08                 	db	8
   231  007E23  00                 	db	0
   232  007E24  60                 	db	96
   233  007E25  60                 	db	96
   234  007E26  00                 	db	0
   235  007E27  00                 	db	0
   236  007E28  20                 	db	32
   237  007E29  10                 	db	16
   238  007E2A  08                 	db	8
   239  007E2B  04                 	db	4
   240  007E2C  02                 	db	2
   241  007E2D  3E                 	db	62
   242  007E2E  51                 	db	81
   243  007E2F  49                 	db	73
   244  007E30  45                 	db	69
   245  007E31  3E                 	db	62
   246  007E32  00                 	db	0
   247  007E33  42                 	db	66
   248  007E34  7F                 	db	127
   249  007E35  40                 	db	64
   250  007E36  00                 	db	0
   251  007E37  42                 	db	66
   252  007E38  61                 	db	97
   253  007E39  51                 	db	81
   254  007E3A  49                 	db	73
   255  007E3B  46                 	db	70
   256  007E3C  21                 	db	33
   257  007E3D  41                 	db	65
   258  007E3E  45                 	db	69
   259  007E3F  4B                 	db	75
   260  007E40  31                 	db	49
   261  007E41  18                 	db	24
   262  007E42  14                 	db	20
   263  007E43  12                 	db	18
   264  007E44  7F                 	db	127
   265  007E45  10                 	db	16
   266  007E46  27                 	db	39
   267  007E47  45                 	db	69
   268  007E48  45                 	db	69
   269  007E49  45                 	db	69
   270  007E4A  39                 	db	57
   271  007E4B  3C                 	db	60
   272  007E4C  4A                 	db	74
   273  007E4D  49                 	db	73
   274  007E4E  49                 	db	73
   275  007E4F  30                 	db	48
   276  007E50  01                 	db	1
   277  007E51  71                 	db	113
   278  007E52  09                 	db	9
   279  007E53  05                 	db	5
   280  007E54  03                 	db	3
   281  007E55  36                 	db	54
   282  007E56  49                 	db	73
   283  007E57  49                 	db	73
   284  007E58  49                 	db	73
   285  007E59  36                 	db	54
   286  007E5A  06                 	db	6
   287  007E5B  49                 	db	73
   288  007E5C  49                 	db	73
   289  007E5D  29                 	db	41
   290  007E5E  1E                 	db	30
   291  007E5F  00                 	db	0
   292  007E60  36                 	db	54
   293  007E61  36                 	db	54
   294  007E62  00                 	db	0
   295  007E63  00                 	db	0
   296  007E64  00                 	db	0
   297  007E65  56                 	db	86
   298  007E66  36                 	db	54
   299  007E67  00                 	db	0
   300  007E68  00                 	db	0
   301  007E69  08                 	db	8
   302  007E6A  14                 	db	20
   303  007E6B  22                 	db	34
   304  007E6C  41                 	db	65
   305  007E6D  00                 	db	0
   306  007E6E  14                 	db	20
   307  007E6F  14                 	db	20
   308  007E70  14                 	db	20
   309  007E71  14                 	db	20
   310  007E72  14                 	db	20
   311  007E73  00                 	db	0
   312  007E74  41                 	db	65
   313  007E75  22                 	db	34
   314  007E76  14                 	db	20
   315  007E77  08                 	db	8
   316  007E78  02                 	db	2
   317  007E79  01                 	db	1
   318  007E7A  51                 	db	81
   319  007E7B  09                 	db	9
   320  007E7C  06                 	db	6
   321  007E7D  32                 	db	50
   322  007E7E  49                 	db	73
   323  007E7F  79                 	db	121
   324  007E80  41                 	db	65
   325  007E81  3E                 	db	62
   326  007E82  7E                 	db	126
   327  007E83  11                 	db	17
   328  007E84  11                 	db	17
   329  007E85  11                 	db	17
   330  007E86  7E                 	db	126
   331  007E87  7F                 	db	127
   332  007E88  49                 	db	73
   333  007E89  49                 	db	73
   334  007E8A  49                 	db	73
   335  007E8B  36                 	db	54
   336  007E8C  3E                 	db	62
   337  007E8D  41                 	db	65
   338  007E8E  41                 	db	65
   339  007E8F  41                 	db	65
   340  007E90  22                 	db	34
   341  007E91  7F                 	db	127
   342  007E92  41                 	db	65
   343  007E93  41                 	db	65
   344  007E94  22                 	db	34
   345  007E95  1C                 	db	28
   346  007E96  7F                 	db	127
   347  007E97  49                 	db	73
   348  007E98  49                 	db	73
   349  007E99  49                 	db	73
   350  007E9A  41                 	db	65
   351  007E9B  7F                 	db	127
   352  007E9C  09                 	db	9
   353  007E9D  09                 	db	9
   354  007E9E  09                 	db	9
   355  007E9F  01                 	db	1
   356  007EA0  3E                 	db	62
   357  007EA1  41                 	db	65
   358  007EA2  49                 	db	73
   359  007EA3  49                 	db	73
   360  007EA4  7A                 	db	122
   361  007EA5  7F                 	db	127
   362  007EA6  08                 	db	8
   363  007EA7  08                 	db	8
   364  007EA8  08                 	db	8
   365  007EA9  7F                 	db	127
   366  007EAA  00                 	db	0
   367  007EAB  41                 	db	65
   368  007EAC  7F                 	db	127
   369  007EAD  41                 	db	65
   370  007EAE  00                 	db	0
   371  007EAF  20                 	db	32
   372  007EB0  40                 	db	64
   373  007EB1  41                 	db	65
   374  007EB2  3F                 	db	63
   375  007EB3  01                 	db	1
   376  007EB4  7F                 	db	127
   377  007EB5  08                 	db	8
   378  007EB6  14                 	db	20
   379  007EB7  22                 	db	34
   380  007EB8  41                 	db	65
   381  007EB9  7F                 	db	127
   382  007EBA  40                 	db	64
   383  007EBB  40                 	db	64
   384  007EBC  40                 	db	64
   385  007EBD  40                 	db	64
   386  007EBE  7F                 	db	127
   387  007EBF  02                 	db	2
   388  007EC0  0C                 	db	12
   389  007EC1  02                 	db	2
   390  007EC2  7F                 	db	127
   391  007EC3  7F                 	db	127
   392  007EC4  04                 	db	4
   393  007EC5  08                 	db	8
   394  007EC6  10                 	db	16
   395  007EC7  7F                 	db	127
   396  007EC8  3E                 	db	62
   397  007EC9  41                 	db	65
   398  007ECA  41                 	db	65
   399  007ECB  41                 	db	65
   400  007ECC  3E                 	db	62
   401  007ECD  7F                 	db	127
   402  007ECE  09                 	db	9
   403  007ECF  09                 	db	9
   404  007ED0  09                 	db	9
   405  007ED1  06                 	db	6
   406  007ED2  3E                 	db	62
   407  007ED3  41                 	db	65
   408  007ED4  51                 	db	81
   409  007ED5  21                 	db	33
   410  007ED6  5E                 	db	94
   411  007ED7  7F                 	db	127
   412  007ED8  09                 	db	9
   413  007ED9  19                 	db	25
   414  007EDA  29                 	db	41
   415  007EDB  46                 	db	70
   416  007EDC  46                 	db	70
   417  007EDD  49                 	db	73
   418  007EDE  49                 	db	73
   419  007EDF  49                 	db	73
   420  007EE0  31                 	db	49
   421  007EE1  01                 	db	1
   422  007EE2  01                 	db	1
   423  007EE3  7F                 	db	127
   424  007EE4  01                 	db	1
   425  007EE5  01                 	db	1
   426  007EE6  3F                 	db	63
   427  007EE7  40                 	db	64
   428  007EE8  40                 	db	64
   429  007EE9  40                 	db	64
   430  007EEA  3F                 	db	63
   431  007EEB  1F                 	db	31
   432  007EEC  20                 	db	32
   433  007EED  40                 	db	64
   434  007EEE  20                 	db	32
   435  007EEF  1F                 	db	31
   436  007EF0  3F                 	db	63
   437  007EF1  40                 	db	64
   438  007EF2  38                 	db	56
   439  007EF3  40                 	db	64
   440  007EF4  3F                 	db	63
   441  007EF5  63                 	db	99
   442  007EF6  14                 	db	20
   443  007EF7  08                 	db	8
   444  007EF8  14                 	db	20
   445  007EF9  63                 	db	99
   446  007EFA  07                 	db	7
   447  007EFB  08                 	db	8
   448  007EFC  70                 	db	112
   449  007EFD  08                 	db	8
   450  007EFE  07                 	db	7
   451  007EFF  61                 	db	97
   452  007F00  51                 	db	81
   453  007F01  49                 	db	73
   454  007F02  45                 	db	69
   455  007F03  43                 	db	67
   456  007F04  00                 	db	0
   457  007F05  7F                 	db	127
   458  007F06  41                 	db	65
   459  007F07  41                 	db	65
   460  007F08  00                 	db	0
   461  007F09  02                 	db	2
   462  007F0A  04                 	db	4
   463  007F0B  08                 	db	8
   464  007F0C  10                 	db	16
   465  007F0D  20                 	db	32
   466  007F0E  00                 	db	0
   467  007F0F  41                 	db	65
   468  007F10  41                 	db	65
   469  007F11  7F                 	db	127
   470  007F12  00                 	db	0
   471  007F13  04                 	db	4
   472  007F14  02                 	db	2
   473  007F15  01                 	db	1
   474  007F16  02                 	db	2
   475  007F17  04                 	db	4
   476  007F18  40                 	db	64
   477  007F19  40                 	db	64
   478  007F1A  40                 	db	64
   479  007F1B  40                 	db	64
   480  007F1C  40                 	db	64
   481  007F1D  00                 	db	0
   482  007F1E  01                 	db	1
   483  007F1F  02                 	db	2
   484  007F20  04                 	db	4
   485  007F21  00                 	db	0
   486  007F22  20                 	db	32
   487  007F23  54                 	db	84
   488  007F24  54                 	db	84
   489  007F25  54                 	db	84
   490  007F26  78                 	db	120
   491  007F27  7F                 	db	127
   492  007F28  48                 	db	72
   493  007F29  44                 	db	68
   494  007F2A  44                 	db	68
   495  007F2B  38                 	db	56
   496  007F2C  38                 	db	56
   497  007F2D  44                 	db	68
   498  007F2E  44                 	db	68
   499  007F2F  44                 	db	68
   500  007F30  20                 	db	32
   501  007F31  38                 	db	56
   502  007F32  44                 	db	68
   503  007F33  44                 	db	68
   504  007F34  48                 	db	72
   505  007F35  7F                 	db	127
   506  007F36  38                 	db	56
   507  007F37  54                 	db	84
   508  007F38  54                 	db	84
   509  007F39  54                 	db	84
   510  007F3A  18                 	db	24
   511  007F3B  08                 	db	8
   512  007F3C  7E                 	db	126
   513  007F3D  09                 	db	9
   514  007F3E  01                 	db	1
   515  007F3F  02                 	db	2
   516  007F40  0C                 	db	12
   517  007F41  52                 	db	82
   518  007F42  52                 	db	82
   519  007F43  52                 	db	82
   520  007F44  3E                 	db	62
   521  007F45  7F                 	db	127
   522  007F46  08                 	db	8
   523  007F47  04                 	db	4
   524  007F48  04                 	db	4
   525  007F49  78                 	db	120
   526  007F4A  00                 	db	0
   527  007F4B  44                 	db	68
   528  007F4C  7D                 	db	125
   529  007F4D  40                 	db	64
   530  007F4E  00                 	db	0
   531  007F4F  20                 	db	32
   532  007F50  40                 	db	64
   533  007F51  44                 	db	68
   534  007F52  3D                 	db	61
   535  007F53  00                 	db	0
   536  007F54  7F                 	db	127
   537  007F55  10                 	db	16
   538  007F56  28                 	db	40
   539  007F57  44                 	db	68
   540  007F58  00                 	db	0
   541  007F59  00                 	db	0
   542  007F5A  41                 	db	65
   543  007F5B  7F                 	db	127
   544  007F5C  40                 	db	64
   545  007F5D  00                 	db	0
   546  007F5E  7C                 	db	124
   547  007F5F  04                 	db	4
   548  007F60  18                 	db	24
   549  007F61  04                 	db	4
   550  007F62  78                 	db	120
   551  007F63  7C                 	db	124
   552  007F64  08                 	db	8
   553  007F65  04                 	db	4
   554  007F66  04                 	db	4
   555  007F67  78                 	db	120
   556  007F68  38                 	db	56
   557  007F69  44                 	db	68
   558  007F6A  44                 	db	68
   559  007F6B  44                 	db	68
   560  007F6C  38                 	db	56
   561  007F6D  7C                 	db	124
   562  007F6E  14                 	db	20
   563  007F6F  14                 	db	20
   564  007F70  14                 	db	20
   565  007F71  08                 	db	8
   566  007F72  08                 	db	8
   567  007F73  14                 	db	20
   568  007F74  14                 	db	20
   569  007F75  18                 	db	24
   570  007F76  7C                 	db	124
   571  007F77  7C                 	db	124
   572  007F78  08                 	db	8
   573  007F79  04                 	db	4
   574  007F7A  04                 	db	4
   575  007F7B  08                 	db	8
   576  007F7C  48                 	db	72
   577  007F7D  54                 	db	84
   578  007F7E  54                 	db	84
   579  007F7F  54                 	db	84
   580  007F80  20                 	db	32
   581  007F81  04                 	db	4
   582  007F82  3F                 	db	63
   583  007F83  44                 	db	68
   584  007F84  40                 	db	64
   585  007F85  20                 	db	32
   586  007F86  3C                 	db	60
   587  007F87  40                 	db	64
   588  007F88  40                 	db	64
   589  007F89  20                 	db	32
   590  007F8A  7C                 	db	124
   591  007F8B  1C                 	db	28
   592  007F8C  20                 	db	32
   593  007F8D  40                 	db	64
   594  007F8E  20                 	db	32
   595  007F8F  1C                 	db	28
   596  007F90  3C                 	db	60
   597  007F91  40                 	db	64
   598  007F92  30                 	db	48
   599  007F93  40                 	db	64
   600  007F94  3C                 	db	60
   601  007F95  44                 	db	68
   602  007F96  28                 	db	40
   603  007F97  10                 	db	16
   604  007F98  28                 	db	40
   605  007F99  44                 	db	68
   606  007F9A  0C                 	db	12
   607  007F9B  50                 	db	80
   608  007F9C  50                 	db	80
   609  007F9D  50                 	db	80
   610  007F9E  3C                 	db	60
   611  007F9F  44                 	db	68
   612  007FA0  64                 	db	100
   613  007FA1  54                 	db	84
   614  007FA2  4C                 	db	76
   615  007FA3  44                 	db	68
   616  007FA4  00                 	db	0
   617  007FA5  08                 	db	8
   618  007FA6  36                 	db	54
   619  007FA7  41                 	db	65
   620  007FA8  00                 	db	0
   621  007FA9  00                 	db	0
   622  007FAA  00                 	db	0
   623  007FAB  7F                 	db	127
   624  007FAC  00                 	db	0
   625  007FAD  00                 	db	0
   626  007FAE  00                 	db	0
   627  007FAF  41                 	db	65
   628  007FB0  36                 	db	54
   629  007FB1  08                 	db	8
   630  007FB2  00                 	db	0
   631  007FB3  10                 	db	16
   632  007FB4  08                 	db	8
   633  007FB5  08                 	db	8
   634  007FB6  10                 	db	16
   635  007FB7  08                 	db	8
   636  007FB8  78                 	db	120
   637  007FB9  46                 	db	70
   638  007FBA  41                 	db	65
   639  007FBB  46                 	db	70
   640  007FBC  78                 	db	120
   641  007FBD                     __end_of_FONT_1:
   642                           	opt callstack 0
   643  007FBD                     _dpowers:
   644                           	opt callstack 0
   645  007FBD  0001               	dw	1
   646  007FBF  0000               	dw	0
   647  007FC1  000A               	dw	10
   648  007FC3  0000               	dw	0
   649  007FC5  0064               	dw	100
   650  007FC7  0000               	dw	0
   651  007FC9  03E8               	dw	1000
   652  007FCB  0000               	dw	0
   653  007FCD  2710               	dw	10000
   654  007FCF  0000               	dw	0
   655  007FD1  86A0               	dw	34464
   656  007FD3  0001               	dw	1
   657  007FD5  4240               	dw	16960
   658  007FD7  000F               	dw	15
   659  007FD9  9680               	dw	38528
   660  007FDB  0098               	dw	152
   661  007FDD  E100               	dw	57600
   662  007FDF  05F5               	dw	1525
   663  007FE1  CA00               	dw	51712
   664  007FE3  3B9A               	dw	15258
   665  007FE5                     __end_of_dpowers:
   666                           	opt callstack 0
   667  0000                     _ADRESL	set	4035
   668  0000                     _ADRESH	set	4036
   669  0000                     _INTCONbits	set	4082
   670  0000                     _PIR1bits	set	3998
   671  0000                     _ADCON1	set	4033
   672  0000                     _ADCON2	set	4032
   673  0000                     _ADCON0	set	4034
   674  0000                     _PIE1bits	set	3997
   675  0000                     _ADCON0bits	set	4034
   676  0000                     _ADCON1bits	set	4033
   677  0000                     _PORTAbits	set	3968
   678  0000                     _TRISA4	set	31892
   679  0000                     _TRISA3	set	31891
   680  0000                     _TRISA2	set	31890
   681  0000                     _TRISA1	set	31889
   682  0000                     _TRISA0	set	31888
   683  007FE5                     STR_2:
   684  007FE5  25                 	db	37
   685  007FE6  32                 	db	50	;'2'
   686  007FE7  2E                 	db	46
   687  007FE8  32                 	db	50	;'2'
   688  007FE9  66                 	db	102	;'f'
   689  007FEA  20                 	db	32
   690  007FEB  6D                 	db	109	;'m'
   691  007FEC  57                 	db	87	;'W'
   692  007FED  2F                 	db	47
   693  007FEE  63                 	db	99	;'c'
   694  007FEF  6D                 	db	109	;'m'
   695  007FF0  32                 	db	50	;'2'
   696  007FF1  00                 	db	0
   697  007FF2                     STR_1:
   698  007FF2  48                 	db	72	;'H'
   699  007FF3  65                 	db	101	;'e'
   700  007FF4  6C                 	db	108	;'l'
   701  007FF5  6C                 	db	108	;'l'
   702  007FF6  6F                 	db	111	;'o'
   703  007FF7  21                 	db	33
   704  007FF8  31                 	db	49	;'1'
   705  007FF9  00                 	db	0
   706  007FFA                     STR_3:
   707  007FFA  34                 	db	52	;'4'
   708  007FFB  30                 	db	48	;'0'
   709  007FFC  30                 	db	48	;'0'
   710  007FFD  00                 	db	0
   711                           
   712                           ; #config settings
   713  007FFE  00                 	db	0	; dummy byte at the end
   714  0000                     
   715                           	psect	cinit
   716  0052B2                     __pcinit:
   717                           	opt callstack 0
   718  0052B2                     start_initialization:
   719                           	opt callstack 0
   720  0052B2                     __initialization:
   721                           	opt callstack 0
   722                           
   723                           ; Initialize objects allocated to COMRAM (2 bytes)
   724                           ; load TBLPTR registers with __pidataCOMRAM
   725  0052B2  0EF8               	movlw	low __pidataCOMRAM
   726  0052B4  6EF6               	movwf	tblptrl,c
   727  0052B6  0E51               	movlw	high __pidataCOMRAM
   728  0052B8  6EF7               	movwf	tblptrh,c
   729  0052BA  0E00               	movlw	low (__pidataCOMRAM shr (0+16))
   730  0052BC  6EF8               	movwf	tblptru,c
   731  0052BE  0009               	tblrd		*+	;fetch initializer
   732  0052C0  CFF5 F05B          	movff	tablat,__pdataCOMRAM
   733  0052C4  0009               	tblrd		*+	;fetch initializer
   734  0052C6  CFF5 F05C          	movff	tablat,__pdataCOMRAM+1
   735                           
   736                           ; Clear objects allocated to BANK0 (20 bytes)
   737  0052CA  EE00  F07B         	lfsr	0,__pbssBANK0
   738  0052CE  0E14               	movlw	20
   739  0052D0                     clear_0:
   740  0052D0  6AEE               	clrf	postinc0,c
   741  0052D2  06E8               	decf	wreg,f,c
   742  0052D4  E1FD               	bnz	clear_0
   743                           
   744                           ; Clear objects allocated to COMRAM (4 bytes)
   745  0052D6  6A5A               	clrf	(__pbssCOMRAM+3)& (0+255),c
   746  0052D8  6A59               	clrf	(__pbssCOMRAM+2)& (0+255),c
   747  0052DA  6A58               	clrf	(__pbssCOMRAM+1)& (0+255),c
   748  0052DC  6A57               	clrf	__pbssCOMRAM& (0+255),c
   749  0052DE                     end_of_initialization:
   750                           	opt callstack 0
   751  0052DE                     __end_of__initialization:
   752                           	opt callstack 0
   753  0052DE  0E00               	movlw	low (__Lmediumconst shr (0+16))
   754  0052E0  6EF8               	movwf	tblptru,c
   755  0052E2  0100               	movlb	0
   756  0052E4  EFCA  F02F         	goto	_main	;jump to C main() function
   757                           
   758                           	psect	bssCOMRAM
   759  000057                     __pbssCOMRAM:
   760                           	opt callstack 0
   761  000057                     _UV_INTENSITY:
   762                           	opt callstack 0
   763  000057                     	ds	4
   764                           
   765                           	psect	dataCOMRAM
   766  00005B                     __pdataCOMRAM:
   767                           	opt callstack 0
   768  00005B                     _ADCResult:
   769                           	opt callstack 0
   770  00005B                     	ds	2
   771                           
   772                           	psect	bssBANK0
   773  00007B                     __pbssBANK0:
   774                           	opt callstack 0
   775  00007B                     _status:
   776                           	opt callstack 0
   777  00007B                     	ds	4
   778  00007F                     _UV_INTENSITY_S:
   779                           	opt callstack 0
   780  00007F                     	ds	10
   781  000089                     _Result:
   782                           	opt callstack 0
   783  000089                     	ds	6
   784                           
   785                           	psect	cstackBANK0
   786  000060                     __pcstackBANK0:
   787                           	opt callstack 0
   788  000060                     _sprintf$1359:
   789                           	opt callstack 0
   790                           
   791                           ; 4 bytes @ 0x0
   792  000060                     	ds	4
   793  000064                     sprintf@ap:
   794                           	opt callstack 0
   795                           
   796                           ; 2 bytes @ 0x4
   797  000064                     	ds	2
   798  000066                     sprintf@val:
   799                           	opt callstack 0
   800                           
   801                           ; 4 bytes @ 0x6
   802  000066                     	ds	4
   803  00006A                     sprintf@flag:
   804                           	opt callstack 0
   805                           
   806                           ; 2 bytes @ 0xA
   807  00006A                     	ds	2
   808  00006C                     sprintf@width:
   809                           	opt callstack 0
   810                           
   811                           ; 2 bytes @ 0xC
   812  00006C                     	ds	2
   813  00006E                     sprintf@tmpval:
   814                           	opt callstack 0
   815                           
   816                           ; 4 bytes @ 0xE
   817  00006E                     	ds	4
   818  000072                     sprintf@eexp:
   819                           	opt callstack 0
   820                           
   821                           ; 2 bytes @ 0x12
   822  000072                     	ds	2
   823  000074                     sprintf@fval:
   824                           	opt callstack 0
   825                           
   826                           ; 4 bytes @ 0x14
   827  000074                     	ds	4
   828  000078                     sprintf@prec:
   829                           	opt callstack 0
   830                           
   831                           ; 2 bytes @ 0x18
   832  000078                     	ds	2
   833  00007A                     sprintf@c:
   834                           	opt callstack 0
   835                           
   836                           ; 1 bytes @ 0x1A
   837  00007A                     	ds	1
   838                           
   839                           	psect	cstackCOMRAM
   840  000001                     __pcstackCOMRAM:
   841                           	opt callstack 0
   842  000001                     ??_isdigit:
   843  000001                     ?_ReadADC:
   844                           	opt callstack 0
   845  000001                     ?___wmul:
   846                           	opt callstack 0
   847  000001                     ?___awmod:
   848                           	opt callstack 0
   849  000001                     ?___lwmod:
   850                           	opt callstack 0
   851  000001                     ?__tdiv_to_l_:
   852                           	opt callstack 0
   853  000001                     ?__div_to_l_:
   854                           	opt callstack 0
   855  000001                     ?___lldiv:
   856                           	opt callstack 0
   857  000001                     ?___flneg:
   858                           	opt callstack 0
   859  000001                     ?___llmod:
   860                           	opt callstack 0
   861  000001                     ?___xxtofl:
   862                           	opt callstack 0
   863  000001                     LCD_NOKIA_WriteSPI@outputDATA:
   864                           	opt callstack 0
   865  000001                     OpenADC@config2:
   866                           	opt callstack 0
   867  000001                     ___wmul@multiplier:
   868                           	opt callstack 0
   869  000001                     ___awmod@dividend:
   870                           	opt callstack 0
   871  000001                     ___lwmod@dividend:
   872                           	opt callstack 0
   873  000001                     delay_ms@n:
   874                           	opt callstack 0
   875  000001                     ___lldiv@dividend:
   876                           	opt callstack 0
   877  000001                     __div_to_l_@f1:
   878                           	opt callstack 0
   879  000001                     ___fleq@ff1:
   880                           	opt callstack 0
   881  000001                     ___flge@ff1:
   882                           	opt callstack 0
   883  000001                     ___flneg@f1:
   884                           	opt callstack 0
   885  000001                     __tdiv_to_l_@f1:
   886                           	opt callstack 0
   887  000001                     ___llmod@dividend:
   888                           	opt callstack 0
   889  000001                     ___xxtofl@val:
   890                           	opt callstack 0
   891                           
   892                           ; 4 bytes @ 0x0
   893  000001                     	ds	1
   894  000002                     LCD_NOKIA_WriteSPI@BitCount:
   895                           	opt callstack 0
   896  000002                     OpenADC@portconfig:
   897                           	opt callstack 0
   898  000002                     _isdigit$1143:
   899                           	opt callstack 0
   900                           
   901                           ; 1 bytes @ 0x1
   902  000002                     	ds	1
   903  000003                     ??_OpenADC:
   904  000003                     ??_ReadADC:
   905  000003                     LCD_NOKIA_Write@DATA:
   906                           	opt callstack 0
   907  000003                     isdigit@c:
   908                           	opt callstack 0
   909  000003                     ___wmul@multiplicand:
   910                           	opt callstack 0
   911  000003                     ___awmod@divisor:
   912                           	opt callstack 0
   913  000003                     ___lwmod@divisor:
   914                           	opt callstack 0
   915                           
   916                           ; 2 bytes @ 0x2
   917  000003                     	ds	1
   918  000004                     LCD_NOKIA_Write@MODE:
   919                           	opt callstack 0
   920                           
   921                           ; 1 bytes @ 0x3
   922  000004                     	ds	1
   923  000005                     ??_LCD_NOKIA_WriteByte:
   924  000005                     ??_delay_ms:
   925  000005                     ??___xxtofl:
   926  000005                     LCD_NOKIA_GotoXY@Y:
   927                           	opt callstack 0
   928  000005                     OpenADC@config:
   929                           	opt callstack 0
   930  000005                     ___awmod@counter:
   931                           	opt callstack 0
   932  000005                     ___lwmod@counter:
   933                           	opt callstack 0
   934  000005                     ___wmul@product:
   935                           	opt callstack 0
   936  000005                     ___lldiv@divisor:
   937                           	opt callstack 0
   938  000005                     __div_to_l_@f2:
   939                           	opt callstack 0
   940  000005                     ___fleq@ff2:
   941                           	opt callstack 0
   942  000005                     ___flge@ff2:
   943                           	opt callstack 0
   944  000005                     __tdiv_to_l_@f2:
   945                           	opt callstack 0
   946  000005                     ___llmod@divisor:
   947                           	opt callstack 0
   948                           
   949                           ; 4 bytes @ 0x4
   950  000005                     	ds	1
   951  000006                     ?___lwdiv:
   952                           	opt callstack 0
   953  000006                     LCD_NOKIA_GotoXY@X:
   954                           	opt callstack 0
   955  000006                     ___awmod@sign:
   956                           	opt callstack 0
   957  000006                     ___lwdiv@dividend:
   958                           	opt callstack 0
   959                           
   960                           ; 2 bytes @ 0x5
   961  000006                     	ds	1
   962  000007                     ?___awdiv:
   963                           	opt callstack 0
   964  000007                     LCD_NOKIA_Clear@index:
   965                           	opt callstack 0
   966  000007                     ___awdiv@dividend:
   967                           	opt callstack 0
   968                           
   969                           ; 2 bytes @ 0x6
   970  000007                     	ds	1
   971  000008                     ___lwdiv@divisor:
   972                           	opt callstack 0
   973                           
   974                           ; 2 bytes @ 0x7
   975  000008                     	ds	1
   976  000009                     ??__tdiv_to_l_:
   977  000009                     ??___fleq:
   978  000009                     ??___flge:
   979  000009                     LCD_NOKIA_WriteByte@DATA_CHAR:
   980                           	opt callstack 0
   981  000009                     ___llmod@counter:
   982                           	opt callstack 0
   983  000009                     ___xxtofl@sign:
   984                           	opt callstack 0
   985  000009                     ___awdiv@divisor:
   986                           	opt callstack 0
   987  000009                     ___lldiv@quotient:
   988                           	opt callstack 0
   989  000009                     __div_to_l_@quot:
   990                           	opt callstack 0
   991                           
   992                           ; 4 bytes @ 0x8
   993  000009                     	ds	1
   994  00000A                     ___xxtofl@exp:
   995                           	opt callstack 0
   996  00000A                     LCD_NOKIA_WriteByte@index:
   997                           	opt callstack 0
   998  00000A                     ___lwdiv@quotient:
   999                           	opt callstack 0
  1000                           
  1001                           ; 2 bytes @ 0x9
  1002  00000A                     	ds	1
  1003  00000B                     ___awdiv@counter:
  1004                           	opt callstack 0
  1005  00000B                     ___xxtofl@arg:
  1006                           	opt callstack 0
  1007                           
  1008                           ; 4 bytes @ 0xA
  1009  00000B                     	ds	1
  1010  00000C                     ___awdiv@sign:
  1011                           	opt callstack 0
  1012  00000C                     ___lwdiv@counter:
  1013                           	opt callstack 0
  1014  00000C                     LCD_NOKIA_WriteString@DATA_STRING:
  1015                           	opt callstack 0
  1016  00000C                     __tdiv_to_l_@quot:
  1017                           	opt callstack 0
  1018                           
  1019                           ; 4 bytes @ 0xB
  1020  00000C                     	ds	1
  1021  00000D                     ___lldiv@counter:
  1022                           	opt callstack 0
  1023  00000D                     __div_to_l_@cntr:
  1024                           	opt callstack 0
  1025  00000D                     ___awdiv@quotient:
  1026                           	opt callstack 0
  1027  00000D                     utoa@buf:
  1028                           	opt callstack 0
  1029                           
  1030                           ; 2 bytes @ 0xC
  1031  00000D                     	ds	1
  1032  00000E                     LCD_NOKIA_WriteString@X:
  1033                           	opt callstack 0
  1034  00000E                     __div_to_l_@exp1:
  1035                           	opt callstack 0
  1036                           
  1037                           ; 1 bytes @ 0xD
  1038  00000E                     	ds	1
  1039  00000F                     ?___fladd:
  1040                           	opt callstack 0
  1041  00000F                     LCD_NOKIA_WriteString@Y:
  1042                           	opt callstack 0
  1043  00000F                     utoa@val:
  1044                           	opt callstack 0
  1045  00000F                     ___fladd@b:
  1046                           	opt callstack 0
  1047                           
  1048                           ; 4 bytes @ 0xE
  1049  00000F                     	ds	1
  1050  000010                     __tdiv_to_l_@cntr:
  1051                           	opt callstack 0
  1052                           
  1053                           ; 1 bytes @ 0xF
  1054  000010                     	ds	1
  1055  000011                     __tdiv_to_l_@exp1:
  1056                           	opt callstack 0
  1057  000011                     utoa@base:
  1058                           	opt callstack 0
  1059                           
  1060                           ; 2 bytes @ 0x10
  1061  000011                     	ds	2
  1062  000013                     utoa@v:
  1063                           	opt callstack 0
  1064  000013                     ___fladd@a:
  1065                           	opt callstack 0
  1066                           
  1067                           ; 4 bytes @ 0x12
  1068  000013                     	ds	2
  1069  000015                     utoa@c:
  1070                           	opt callstack 0
  1071                           
  1072                           ; 1 bytes @ 0x14
  1073  000015                     	ds	1
  1074  000016                     itoa@buf:
  1075                           	opt callstack 0
  1076                           
  1077                           ; 2 bytes @ 0x15
  1078  000016                     	ds	1
  1079  000017                     ??___fladd:
  1080                           
  1081                           ; 1 bytes @ 0x16
  1082  000017                     	ds	1
  1083  000018                     itoa@val:
  1084                           	opt callstack 0
  1085                           
  1086                           ; 2 bytes @ 0x17
  1087  000018                     	ds	2
  1088  00001A                     itoa@base:
  1089                           	opt callstack 0
  1090                           
  1091                           ; 2 bytes @ 0x19
  1092  00001A                     	ds	1
  1093  00001B                     ___fladd@signs:
  1094                           	opt callstack 0
  1095                           
  1096                           ; 1 bytes @ 0x1A
  1097  00001B                     	ds	1
  1098  00001C                     ___fladd@aexp:
  1099                           	opt callstack 0
  1100                           
  1101                           ; 1 bytes @ 0x1B
  1102  00001C                     	ds	1
  1103  00001D                     ___fladd@bexp:
  1104                           	opt callstack 0
  1105                           
  1106                           ; 1 bytes @ 0x1C
  1107  00001D                     	ds	1
  1108  00001E                     ___fladd@grs:
  1109                           	opt callstack 0
  1110                           
  1111                           ; 1 bytes @ 0x1D
  1112  00001E                     	ds	1
  1113  00001F                     ?___flmul:
  1114                           	opt callstack 0
  1115  00001F                     ?___flsub:
  1116                           	opt callstack 0
  1117  00001F                     ___flsub@b:
  1118                           	opt callstack 0
  1119  00001F                     ___flmul@b:
  1120                           	opt callstack 0
  1121                           
  1122                           ; 4 bytes @ 0x1E
  1123  00001F                     	ds	4
  1124  000023                     ___flsub@a:
  1125                           	opt callstack 0
  1126  000023                     ___flmul@a:
  1127                           	opt callstack 0
  1128                           
  1129                           ; 4 bytes @ 0x22
  1130  000023                     	ds	4
  1131  000027                     ??___flmul:
  1132  000027                     
  1133                           ; 1 bytes @ 0x26
  1134  000027                     	ds	4
  1135  00002B                     ___flmul@sign:
  1136                           	opt callstack 0
  1137                           
  1138                           ; 1 bytes @ 0x2A
  1139  00002B                     	ds	1
  1140  00002C                     ___flmul@grs:
  1141                           	opt callstack 0
  1142                           
  1143                           ; 4 bytes @ 0x2B
  1144  00002C                     	ds	4
  1145  000030                     ___flmul@aexp:
  1146                           	opt callstack 0
  1147                           
  1148                           ; 1 bytes @ 0x2F
  1149  000030                     	ds	1
  1150  000031                     ___flmul@bexp:
  1151                           	opt callstack 0
  1152                           
  1153                           ; 1 bytes @ 0x30
  1154  000031                     	ds	1
  1155  000032                     ___flmul@prod:
  1156                           	opt callstack 0
  1157                           
  1158                           ; 4 bytes @ 0x31
  1159  000032                     	ds	4
  1160  000036                     ___flmul@temp:
  1161                           	opt callstack 0
  1162                           
  1163                           ; 2 bytes @ 0x35
  1164  000036                     	ds	2
  1165  000038                     ?_fround:
  1166                           	opt callstack 0
  1167  000038                     ?_scale:
  1168                           	opt callstack 0
  1169                           
  1170                           ; 4 bytes @ 0x37
  1171  000038                     	ds	4
  1172  00003C                     _fround$1357:
  1173                           	opt callstack 0
  1174  00003C                     _scale$1358:
  1175                           	opt callstack 0
  1176                           
  1177                           ; 4 bytes @ 0x3B
  1178  00003C                     	ds	4
  1179  000040                     scale@scl:
  1180                           	opt callstack 0
  1181  000040                     _fround$1356:
  1182                           	opt callstack 0
  1183                           
  1184                           ; 4 bytes @ 0x3F
  1185  000040                     	ds	1
  1186  000041                     ?___fltol:
  1187                           	opt callstack 0
  1188  000041                     ___fltol@f1:
  1189                           	opt callstack 0
  1190                           
  1191                           ; 4 bytes @ 0x40
  1192  000041                     	ds	3
  1193  000044                     fround@prec:
  1194                           	opt callstack 0
  1195                           
  1196                           ; 1 bytes @ 0x43
  1197  000044                     	ds	1
  1198  000045                     ??___fltol:
  1199                           
  1200                           ; 1 bytes @ 0x44
  1201  000045                     	ds	4
  1202  000049                     ___fltol@sign1:
  1203                           	opt callstack 0
  1204                           
  1205                           ; 1 bytes @ 0x48
  1206  000049                     	ds	1
  1207  00004A                     ___fltol@exp1:
  1208                           	opt callstack 0
  1209                           
  1210                           ; 1 bytes @ 0x49
  1211  00004A                     	ds	1
  1212  00004B                     ?_sprintf:
  1213                           	opt callstack 0
  1214  00004B                     sprintf@sp:
  1215                           	opt callstack 0
  1216                           
  1217                           ; 2 bytes @ 0x4A
  1218  00004B                     	ds	2
  1219  00004D                     sprintf@f:
  1220                           	opt callstack 0
  1221                           
  1222                           ; 2 bytes @ 0x4C
  1223  00004D                     	ds	6
  1224  000053                     ??_sprintf:
  1225                           
  1226                           ; 1 bytes @ 0x52
  1227  000053                     	ds	4
  1228  000057                     
  1229                           ; 1 bytes @ 0x56
  1230 ;;
  1231 ;;Main: autosize = 0, tempsize = 0, incstack = 0, save=0
  1232 ;;
  1233 ;; *************** function _main *****************
  1234 ;; Defined at:
  1235 ;;		line 22 in file "main_ML8511.c"
  1236 ;; Parameters:    Size  Location     Type
  1237 ;;		None
  1238 ;; Auto vars:     Size  Location     Type
  1239 ;;		None
  1240 ;; Return value:  Size  Location     Type
  1241 ;;                  1    wreg      void 
  1242 ;; Registers used:
  1243 ;;		wreg, fsr2l, fsr2h, status,2, status,0, tblptrl, tblptrh, tblptru, prodl, prodh, cstack
  1244 ;; Tracked objects:
  1245 ;;		On entry : 0/0
  1246 ;;		On exit  : 0/0
  1247 ;;		Unchanged: 0/0
  1248 ;; Data sizes:     COMRAM   BANK0   BANK1   BANK2   BANK3   BANK4   BANK5   BANK6   BANK7
  1249 ;;      Params:         0       0       0       0       0       0       0       0       0
  1250 ;;      Locals:         0       0       0       0       0       0       0       0       0
  1251 ;;      Temps:          0       0       0       0       0       0       0       0       0
  1252 ;;      Totals:         0       0       0       0       0       0       0       0       0
  1253 ;;Total ram usage:        0 bytes
  1254 ;; Hardware stack levels required when called:    4
  1255 ;; This function calls:
  1256 ;;		_BusyADC
  1257 ;;		_CloseADC
  1258 ;;		_ConvertADC
  1259 ;;		_LCD_NOKIA_Clear
  1260 ;;		_LCD_NOKIA_Init
  1261 ;;		_LCD_NOKIA_WriteString
  1262 ;;		_OpenADC
  1263 ;;		_ReadADC
  1264 ;;		___fladd
  1265 ;;		___flmul
  1266 ;;		___xxtofl
  1267 ;;		_delay_ms
  1268 ;;		_itoa
  1269 ;;		_sprintf
  1270 ;; This function is called by:
  1271 ;;		Startup code after reset
  1272 ;; This function uses a non-reentrant model
  1273 ;;
  1274                           
  1275                           	psect	text0
  1276  005F94                     __ptext0:
  1277                           	opt callstack 0
  1278  005F94                     _main:
  1279                           	opt callstack 27
  1280  005F94                     l104:
  1281  005F94                     
  1282                           ;main_ML8511.c: 25:         OpenADC(0b01000000 | 0b10000000 | 0b00001110, 0b01100000 | 0
      +                          b00000000 | 0b00000000, 0b00000010);
  1283  005F94  0E60               	movlw	96
  1284  005F96  6E01               	movwf	OpenADC@config2^0,c
  1285  005F98  0E02               	movlw	2
  1286  005F9A  6E02               	movwf	OpenADC@portconfig^0,c
  1287  005F9C  0ECE               	movlw	206
  1288  005F9E  ECC0  F02A         	call	_OpenADC
  1289  005FA2                     
  1290                           ;main_ML8511.c: 26:         ConvertADC();
  1291  005FA2  ECFD  F028         	call	_ConvertADC	;wreg free
  1292  005FA6                     l3639:
  1293  005FA6  EC09  F029         	call	_BusyADC	;wreg free
  1294  005FAA  0900               	iorlw	0
  1295  005FAC  A4D8               	btfss	status,2,c
  1296  005FAE  EFDB  F02F         	goto	u3861
  1297  005FB2  EFDD  F02F         	goto	u3860
  1298  005FB6                     u3861:
  1299  005FB6  EFD3  F02F         	goto	l3639
  1300  005FBA                     u3860:
  1301  005FBA                     
  1302                           ;main_ML8511.c: 28:         ADCResult = (unsigned int) ReadADC();
  1303  005FBA  EC02  F029         	call	_ReadADC	;wreg free
  1304  005FBE  C001  F05B         	movff	?_ReadADC,_ADCResult
  1305  005FC2  C002  F05C         	movff	?_ReadADC+1,_ADCResult+1
  1306  005FC6                     
  1307                           ;main_ML8511.c: 29:         UV_INTENSITY = (75.0/2048.0)*(ADCResult - 1024.0/5.0);
  1308  005FC6  0ECD               	movlw	205
  1309  005FC8  6E13               	movwf	___fladd@a^0,c
  1310  005FCA  0ECC               	movlw	204
  1311  005FCC  6E14               	movwf	(___fladd@a+1)^0,c
  1312  005FCE  0E4C               	movlw	76
  1313  005FD0  6E15               	movwf	(___fladd@a+2)^0,c
  1314  005FD2  0EC3               	movlw	195
  1315  005FD4  6E16               	movwf	(___fladd@a+3)^0,c
  1316  005FD6  C05B  F001         	movff	_ADCResult,___xxtofl@val
  1317  005FDA  C05C  F002         	movff	_ADCResult+1,___xxtofl@val+1
  1318  005FDE  6A03               	clrf	(___xxtofl@val+2)^0,c
  1319  005FE0  6A04               	clrf	(___xxtofl@val+3)^0,c
  1320  005FE2  0E00               	movlw	0
  1321  005FE4  EC76  F030         	call	___xxtofl
  1322  005FE8  C001  F00F         	movff	?___xxtofl,___fladd@b
  1323  005FEC  C002  F010         	movff	?___xxtofl+1,___fladd@b+1
  1324  005FF0  C003  F011         	movff	?___xxtofl+2,___fladd@b+2
  1325  005FF4  C004  F012         	movff	?___xxtofl+3,___fladd@b+3
  1326  005FF8  ECBC  F036         	call	___fladd	;wreg free
  1327  005FFC  C00F  F01F         	movff	?___fladd,___flmul@b
  1328  006000  C010  F020         	movff	?___fladd+1,___flmul@b+1
  1329  006004  C011  F021         	movff	?___fladd+2,___flmul@b+2
  1330  006008  C012  F022         	movff	?___fladd+3,___flmul@b+3
  1331  00600C  0E00               	movlw	0
  1332  00600E  6E23               	movwf	___flmul@a^0,c
  1333  006010  0E00               	movlw	0
  1334  006012  6E24               	movwf	(___flmul@a+1)^0,c
  1335  006014  0E16               	movlw	22
  1336  006016  6E25               	movwf	(___flmul@a+2)^0,c
  1337  006018  0E3D               	movlw	61
  1338  00601A  6E26               	movwf	(___flmul@a+3)^0,c
  1339  00601C  ECA7  F034         	call	___flmul	;wreg free
  1340  006020  C01F  F057         	movff	?___flmul,_UV_INTENSITY
  1341  006024  C020  F058         	movff	?___flmul+1,_UV_INTENSITY+1
  1342  006028  C021  F059         	movff	?___flmul+2,_UV_INTENSITY+2
  1343  00602C  C022  F05A         	movff	?___flmul+3,_UV_INTENSITY+3
  1344  006030                     
  1345                           ;main_ML8511.c: 30:         CloseADC();
  1346  006030  ECFF  F028         	call	_CloseADC	;wreg free
  1347  006034                     
  1348                           ;main_ML8511.c: 31:         ADCON1bits.PCFG = 0b1111;
  1349  006034  0E0F               	movlw	15
  1350  006036  12C1               	iorwf	193,f,c	;volatile
  1351  006038                     
  1352                           ;main_ML8511.c: 32:         LCD_NOKIA_Init();
  1353  006038  EC32  F02A         	call	_LCD_NOKIA_Init	;wreg free
  1354  00603C                     
  1355                           ;main_ML8511.c: 33:         LCD_NOKIA_Clear();
  1356  00603C  ECAD  F029         	call	_LCD_NOKIA_Clear	;wreg free
  1357  006040                     
  1358                           ;main_ML8511.c: 34:         LCD_NOKIA_WriteString("Hello!1",0,0);
  1359  006040  0EF2               	movlw	low STR_1
  1360  006042  6E0C               	movwf	LCD_NOKIA_WriteString@DATA_STRING^0,c
  1361  006044  0E7F               	movlw	high STR_1
  1362  006046  6E0D               	movwf	(LCD_NOKIA_WriteString@DATA_STRING+1)^0,c
  1363  006048  0E00               	movlw	0
  1364  00604A  6E0E               	movwf	LCD_NOKIA_WriteString@X^0,c
  1365  00604C  0E00               	movlw	0
  1366  00604E  6E0F               	movwf	LCD_NOKIA_WriteString@Y^0,c
  1367  006050  EC8C  F02A         	call	_LCD_NOKIA_WriteString	;wreg free
  1368  006054                     
  1369                           ;main_ML8511.c: 35:         itoa(Result,ADCResult,10);
  1370  006054  0E89               	movlw	low _Result
  1371  006056  6E16               	movwf	itoa@buf^0,c
  1372  006058  0E00               	movlw	high _Result
  1373  00605A  6E17               	movwf	(itoa@buf+1)^0,c
  1374  00605C  C05B  F018         	movff	_ADCResult,itoa@val
  1375  006060  C05C  F019         	movff	_ADCResult+1,itoa@val+1
  1376  006064  0E00               	movlw	0
  1377  006066  6E1B               	movwf	(itoa@base+1)^0,c
  1378  006068  0E0A               	movlw	10
  1379  00606A  6E1A               	movwf	itoa@base^0,c
  1380  00606C  ECED  F029         	call	_itoa	;wreg free
  1381  006070                     
  1382                           ;main_ML8511.c: 36:         sprintf(UV_INTENSITY_S,"%2.2f mW/cm2",UV_INTENSITY);
  1383  006070  0E7F               	movlw	low _UV_INTENSITY_S
  1384  006072  6E4B               	movwf	sprintf@sp^0,c
  1385  006074  0E00               	movlw	high _UV_INTENSITY_S
  1386  006076  6E4C               	movwf	(sprintf@sp+1)^0,c
  1387  006078  0EE5               	movlw	low STR_2
  1388  00607A  6E4D               	movwf	sprintf@f^0,c
  1389  00607C  0E7F               	movlw	high STR_2
  1390  00607E  6E4E               	movwf	(sprintf@f+1)^0,c
  1391  006080  C057  F04F         	movff	_UV_INTENSITY,?_sprintf+4
  1392  006084  C058  F050         	movff	_UV_INTENSITY+1,?_sprintf+5
  1393  006088  C059  F051         	movff	_UV_INTENSITY+2,?_sprintf+6
  1394  00608C  C05A  F052         	movff	_UV_INTENSITY+3,?_sprintf+7
  1395  006090  EC1C  F039         	call	_sprintf	;wreg free
  1396  006094                     
  1397                           ;main_ML8511.c: 37:         LCD_NOKIA_WriteString(UV_INTENSITY_S,0,1);
  1398  006094  0E7F               	movlw	low _UV_INTENSITY_S
  1399  006096  6E0C               	movwf	LCD_NOKIA_WriteString@DATA_STRING^0,c
  1400  006098  0E00               	movlw	high _UV_INTENSITY_S
  1401  00609A  6E0D               	movwf	(LCD_NOKIA_WriteString@DATA_STRING+1)^0,c
  1402  00609C  0E00               	movlw	0
  1403  00609E  6E0E               	movwf	LCD_NOKIA_WriteString@X^0,c
  1404  0060A0  0E01               	movlw	1
  1405  0060A2  6E0F               	movwf	LCD_NOKIA_WriteString@Y^0,c
  1406  0060A4  EC8C  F02A         	call	_LCD_NOKIA_WriteString	;wreg free
  1407  0060A8                     
  1408                           ;main_ML8511.c: 38:         LCD_NOKIA_WriteString(Result,0,2);
  1409  0060A8  0E89               	movlw	low _Result
  1410  0060AA  6E0C               	movwf	LCD_NOKIA_WriteString@DATA_STRING^0,c
  1411  0060AC  0E00               	movlw	high _Result
  1412  0060AE  6E0D               	movwf	(LCD_NOKIA_WriteString@DATA_STRING+1)^0,c
  1413  0060B0  0E00               	movlw	0
  1414  0060B2  6E0E               	movwf	LCD_NOKIA_WriteString@X^0,c
  1415  0060B4  0E02               	movlw	2
  1416  0060B6  6E0F               	movwf	LCD_NOKIA_WriteString@Y^0,c
  1417  0060B8  EC8C  F02A         	call	_LCD_NOKIA_WriteString	;wreg free
  1418  0060BC                     
  1419                           ;main_ML8511.c: 39:         LCD_NOKIA_WriteString("400",0,3);
  1420  0060BC  0EFA               	movlw	low STR_3
  1421  0060BE  6E0C               	movwf	LCD_NOKIA_WriteString@DATA_STRING^0,c
  1422  0060C0  0E7F               	movlw	high STR_3
  1423  0060C2  6E0D               	movwf	(LCD_NOKIA_WriteString@DATA_STRING+1)^0,c
  1424  0060C4  0E00               	movlw	0
  1425  0060C6  6E0E               	movwf	LCD_NOKIA_WriteString@X^0,c
  1426  0060C8  0E03               	movlw	3
  1427  0060CA  6E0F               	movwf	LCD_NOKIA_WriteString@Y^0,c
  1428  0060CC  EC8C  F02A         	call	_LCD_NOKIA_WriteString	;wreg free
  1429  0060D0                     
  1430                           ;main_ML8511.c: 40:         delay_ms(1000);
  1431  0060D0  0EE8               	movlw	232
  1432  0060D2  6E01               	movwf	delay_ms@n^0,c
  1433  0060D4  0E03               	movlw	3
  1434  0060D6  6E02               	movwf	(delay_ms@n+1)^0,c
  1435  0060D8  0E00               	movlw	0
  1436  0060DA  6E03               	movwf	(delay_ms@n+2)^0,c
  1437  0060DC  0E00               	movlw	0
  1438  0060DE  6E04               	movwf	(delay_ms@n+3)^0,c
  1439  0060E0  ECCC  F029         	call	_delay_ms	;wreg free
  1440  0060E4  EFCA  F02F         	goto	l104
  1441  0060E8  EF00  F000         	goto	start
  1442  0060EC                     __end_of_main:
  1443                           	opt callstack 0
  1444                           
  1445 ;; *************** function _sprintf *****************
  1446 ;; Defined at:
  1447 ;;		line 505 in file "C:\Program Files (x86)\Microchip\xc8\v2.10\pic\sources\c90\common\doprnt.c"
  1448 ;; Parameters:    Size  Location     Type
  1449 ;;  sp              2   74[COMRAM] PTR unsigned char 
  1450 ;;		 -> UV_INTENSITY_S(10), 
  1451 ;;  f               2   76[COMRAM] PTR const unsigned char 
  1452 ;;		 -> STR_2(13), 
  1453 ;; Auto vars:     Size  Location     Type
  1454 ;;  fval            4   20[BANK0 ] PTR const unsigned char 
  1455 ;;  tmpval          4   14[BANK0 ] struct .
  1456 ;;  val             4    6[BANK0 ] unsigned long 
  1457 ;;  cp              3    0        PTR const unsigned char 
  1458 ;;  prec            2   24[BANK0 ] int 
  1459 ;;  eexp            2   18[BANK0 ] int 
  1460 ;;  width           2   12[BANK0 ] int 
  1461 ;;  flag            2   10[BANK0 ] unsigned short 
  1462 ;;  ap              2    4[BANK0 ] PTR void [1]
  1463 ;;		 -> ?_sprintf(2), 
  1464 ;;  len             2    0        unsigned int 
  1465 ;;  c               1   26[BANK0 ] unsigned char 
  1466 ;;  d               1    0        unsigned char 
  1467 ;; Return value:  Size  Location     Type
  1468 ;;                  2   74[COMRAM] int 
  1469 ;; Registers used:
  1470 ;;		wreg, fsr2l, fsr2h, status,2, status,0, tblptrl, tblptrh, tblptru, prodl, prodh, cstack
  1471 ;; Tracked objects:
  1472 ;;		On entry : 0/0
  1473 ;;		On exit  : 0/0
  1474 ;;		Unchanged: 0/0
  1475 ;; Data sizes:     COMRAM   BANK0   BANK1   BANK2   BANK3   BANK4   BANK5   BANK6   BANK7
  1476 ;;      Params:         8       0       0       0       0       0       0       0       0
  1477 ;;      Locals:         0      27       0       0       0       0       0       0       0
  1478 ;;      Temps:          4       0       0       0       0       0       0       0       0
  1479 ;;      Totals:        12      27       0       0       0       0       0       0       0
  1480 ;;Total ram usage:       39 bytes
  1481 ;; Hardware stack levels used:    1
  1482 ;; Hardware stack levels required when called:    2
  1483 ;; This function calls:
  1484 ;;		___awdiv
  1485 ;;		___fladd
  1486 ;;		___fleq
  1487 ;;		___flge
  1488 ;;		___flmul
  1489 ;;		___flneg
  1490 ;;		___flsub
  1491 ;;		___fltol
  1492 ;;		___lldiv
  1493 ;;		___llmod
  1494 ;;		___wmul
  1495 ;;		___xxtofl
  1496 ;;		__div_to_l_
  1497 ;;		__tdiv_to_l_
  1498 ;;		_fround
  1499 ;;		_isdigit
  1500 ;;		_scale
  1501 ;; This function is called by:
  1502 ;;		_main
  1503 ;; This function uses a non-reentrant model
  1504 ;;
  1505                           
  1506                           	psect	text1
  1507  007238                     __ptext1:
  1508                           	opt callstack 0
  1509  007238                     _sprintf:
  1510                           	opt callstack 28
  1511  007238                     
  1512                           ;C:\Program Files (x86)\Microchip\xc8\v2.10\pic\sources\c90\common\doprnt.c: 505: sprint
      +                          f(char * sp, const char * f, ...);C:\Program Files (x86)\Microchip\xc8\v2.10\pic\sources
      +                          \c90\common\doprnt.c: 506: {;C:\Program Files (x86)\Microchip\xc8\v2.10\pic\sources\c90\
      +                          common\doprnt.c: 507:  va_list ap;;C:\Program Files (x86)\Microchip\xc8\v2.10\pic\source
      +                          s\c90\common\doprnt.c: 512:  char c;;C:\Program Files (x86)\Microchip\xc8\v2.10\pic\sour
      +                          ces\c90\common\doprnt.c: 514:  int width;;C:\Program Files (x86)\Microchip\xc8\v2.10\pic
      +                          \sources\c90\common\doprnt.c: 517:  int prec;
  1513  007238  0E4F               	movlw	low (?_sprintf+4)
  1514  00723A  0100               	movlb	0	; () banked
  1515  00723C  6F64               	movwf	sprintf@ap& (0+255),b
  1516  00723E  0E00               	movlw	high (?_sprintf+4)
  1517  007240  6F65               	movwf	(sprintf@ap+1)& (0+255),b
  1518                           
  1519                           ;C:\Program Files (x86)\Microchip\xc8\v2.10\pic\sources\c90\common\doprnt.c: 553:  while
      +                          ((c = *f++)) {
  1520  007242  EFA2  F03E         	goto	l3609
  1521  007246                     l3353:
  1522                           
  1523                           ; BSR set to: 0
  1524                           ;C:\Program Files (x86)\Microchip\xc8\v2.10\pic\sources\c90\common\doprnt.c: 555:   if(c
      +                           != '%')
  1525  007246  0E25               	movlw	37
  1526  007248  197A               	xorwf	sprintf@c& (0+255),w,b
  1527  00724A  B4D8               	btfsc	status,2,c
  1528  00724C  EF2A  F039         	goto	u3421
  1529  007250  EF2C  F039         	goto	u3420
  1530  007254                     u3421:
  1531  007254  EF36  F039         	goto	l3359
  1532  007258                     u3420:
  1533  007258                     
  1534                           ; BSR set to: 0
  1535                           ;C:\Program Files (x86)\Microchip\xc8\v2.10\pic\sources\c90\common\doprnt.c: 557:   {;C:
      +                          \Program Files (x86)\Microchip\xc8\v2.10\pic\sources\c90\common\doprnt.c: 558:    ((*sp+
      +                          + = (c)));
  1536  007258  C04B  FFD9         	movff	sprintf@sp,fsr2l
  1537  00725C  C04C  FFDA         	movff	sprintf@sp+1,fsr2h
  1538  007260  C07A  FFDF         	movff	sprintf@c,indf2
  1539  007264                     l3357:
  1540                           
  1541                           ; BSR set to: 0
  1542  007264  4A4B               	infsnz	sprintf@sp^0,f,c
  1543  007266  2A4C               	incf	(sprintf@sp+1)^0,f,c
  1544                           
  1545                           ;C:\Program Files (x86)\Microchip\xc8\v2.10\pic\sources\c90\common\doprnt.c: 559:    con
      +                          tinue;
  1546  007268  EFA2  F03E         	goto	l3609
  1547  00726C                     l3359:
  1548                           
  1549                           ; BSR set to: 0
  1550                           ;C:\Program Files (x86)\Microchip\xc8\v2.10\pic\sources\c90\common\doprnt.c: 563:   widt
      +                          h = 0;
  1551  00726C  0E00               	movlw	0
  1552  00726E  6F6D               	movwf	(sprintf@width+1)& (0+255),b
  1553  007270  0E00               	movlw	0
  1554  007272  6F6C               	movwf	sprintf@width& (0+255),b
  1555                           
  1556                           ;C:\Program Files (x86)\Microchip\xc8\v2.10\pic\sources\c90\common\doprnt.c: 565:   flag
      +                           = 0;
  1557  007274  0E00               	movlw	0
  1558  007276  6F6B               	movwf	(sprintf@flag+1)& (0+255),b
  1559  007278  0E00               	movlw	0
  1560  00727A  6F6A               	movwf	sprintf@flag& (0+255),b
  1561  00727C                     
  1562                           ; BSR set to: 0
  1563                           ;C:\Program Files (x86)\Microchip\xc8\v2.10\pic\sources\c90\common\doprnt.c: 614:   if(i
      +                          sdigit((unsigned)*f)) {
  1564  00727C  C04D  FFF6         	movff	sprintf@f,tblptrl
  1565  007280  C04E  FFF7         	movff	sprintf@f+1,tblptrh
  1566  007284                     	if	0	;tblptru may be non-zero
  1567  007284                     	endif
  1568  007284                     	if	0	;tblptru may be non-zero
  1569  007284                     	endif
  1570  007284  0008               	tblrd		*
  1571  007286  50F5               	movf	tablat,w,c
  1572  007288  EC40  F029         	call	_isdigit
  1573  00728C  A0D8               	btfss	status,0,c
  1574  00728E  EF4B  F039         	goto	u3431
  1575  007292  EF4D  F039         	goto	u3430
  1576  007296                     u3431:
  1577  007296  EF86  F039         	goto	l3373
  1578  00729A                     u3430:
  1579  00729A                     
  1580                           ;C:\Program Files (x86)\Microchip\xc8\v2.10\pic\sources\c90\common\doprnt.c: 615:    wid
      +                          th = 0;
  1581  00729A  0E00               	movlw	0
  1582  00729C  0100               	movlb	0	; () banked
  1583  00729E  6F6D               	movwf	(sprintf@width+1)& (0+255),b
  1584  0072A0  0E00               	movlw	0
  1585  0072A2  6F6C               	movwf	sprintf@width& (0+255),b
  1586  0072A4                     l3365:
  1587                           
  1588                           ;C:\Program Files (x86)\Microchip\xc8\v2.10\pic\sources\c90\common\doprnt.c: 617:     wi
      +                          dth *= 10;
  1589  0072A4  C06C  F001         	movff	sprintf@width,___wmul@multiplier
  1590  0072A8  C06D  F002         	movff	sprintf@width+1,___wmul@multiplier+1
  1591  0072AC  0E00               	movlw	0
  1592  0072AE  6E04               	movwf	(___wmul@multiplicand+1)^0,c
  1593  0072B0  0E0A               	movlw	10
  1594  0072B2  6E03               	movwf	___wmul@multiplicand^0,c
  1595  0072B4  EC2D  F029         	call	___wmul	;wreg free
  1596  0072B8  C001  F06C         	movff	?___wmul,sprintf@width
  1597  0072BC  C002  F06D         	movff	?___wmul+1,sprintf@width+1
  1598  0072C0                     
  1599                           ;C:\Program Files (x86)\Microchip\xc8\v2.10\pic\sources\c90\common\doprnt.c: 618:       
      +                           width += *f++ - '0';
  1600  0072C0  0ED0               	movlw	208
  1601  0072C2  6E53               	movwf	??_sprintf^0,c
  1602  0072C4  0EFF               	movlw	255
  1603  0072C6  6E54               	movwf	(??_sprintf+1)^0,c
  1604  0072C8  C04D  FFF6         	movff	sprintf@f,tblptrl
  1605  0072CC  C04E  FFF7         	movff	sprintf@f+1,tblptrh
  1606  0072D0                     	if	0	;tblptru may be non-zero
  1607  0072D0                     	endif
  1608  0072D0                     	if	0	;tblptru may be non-zero
  1609  0072D0                     	endif
  1610  0072D0  0008               	tblrd		*
  1611  0072D2  50F5               	movf	tablat,w,c
  1612  0072D4  6E55               	movwf	(??_sprintf+2)^0,c
  1613  0072D6  6A56               	clrf	(??_sprintf+3)^0,c
  1614  0072D8  5053               	movf	??_sprintf^0,w,c
  1615  0072DA  2655               	addwf	(??_sprintf+2)^0,f,c
  1616  0072DC  5054               	movf	(??_sprintf+1)^0,w,c
  1617  0072DE  2256               	addwfc	(??_sprintf+3)^0,f,c
  1618  0072E0  5055               	movf	(??_sprintf+2)^0,w,c
  1619  0072E2  0100               	movlb	0	; () banked
  1620  0072E4  276C               	addwf	sprintf@width& (0+255),f,b
  1621  0072E6  5056               	movf	(??_sprintf+3)^0,w,c
  1622  0072E8  236D               	addwfc	(sprintf@width+1)& (0+255),f,b
  1623  0072EA                     
  1624                           ; BSR set to: 0
  1625  0072EA  4A4D               	infsnz	sprintf@f^0,f,c
  1626  0072EC  2A4E               	incf	(sprintf@f+1)^0,f,c
  1627  0072EE                     
  1628                           ; BSR set to: 0
  1629                           ;C:\Program Files (x86)\Microchip\xc8\v2.10\pic\sources\c90\common\doprnt.c: 619:    } w
      +                          hile(isdigit((unsigned)*f));
  1630  0072EE  C04D  FFF6         	movff	sprintf@f,tblptrl
  1631  0072F2  C04E  FFF7         	movff	sprintf@f+1,tblptrh
  1632  0072F6                     	if	0	;tblptru may be non-zero
  1633  0072F6                     	endif
  1634  0072F6                     	if	0	;tblptru may be non-zero
  1635  0072F6                     	endif
  1636  0072F6  0008               	tblrd		*
  1637  0072F8  50F5               	movf	tablat,w,c
  1638  0072FA  EC40  F029         	call	_isdigit
  1639  0072FE  B0D8               	btfsc	status,0,c
  1640  007300  EF84  F039         	goto	u3441
  1641  007304  EF86  F039         	goto	u3440
  1642  007308                     u3441:
  1643  007308  EF52  F039         	goto	l3365
  1644  00730C                     u3440:
  1645  00730C                     l3373:
  1646                           
  1647                           ;C:\Program Files (x86)\Microchip\xc8\v2.10\pic\sources\c90\common\doprnt.c: 628:   if(*
      +                          f == '.') {
  1648  00730C  C04D  FFF6         	movff	sprintf@f,tblptrl
  1649  007310  C04E  FFF7         	movff	sprintf@f+1,tblptrh
  1650  007314                     	if	0	;tblptru may be non-zero
  1651  007314                     	endif
  1652  007314                     	if	0	;tblptru may be non-zero
  1653  007314                     	endif
  1654  007314  0008               	tblrd		*
  1655  007316  50F5               	movf	tablat,w,c
  1656  007318  0A2E               	xorlw	46
  1657  00731A  A4D8               	btfss	status,2,c
  1658  00731C  EF92  F039         	goto	u3451
  1659  007320  EF94  F039         	goto	u3450
  1660  007324                     u3451:
  1661  007324  EFD4  F039         	goto	l3387
  1662  007328                     u3450:
  1663  007328                     
  1664                           ;C:\Program Files (x86)\Microchip\xc8\v2.10\pic\sources\c90\common\doprnt.c: 629:    fla
      +                          g |= 0x4000;
  1665  007328  0100               	movlb	0	; () banked
  1666  00732A  8D6B               	bsf	(sprintf@flag+1)& (0+255),6,b
  1667                           
  1668                           ;C:\Program Files (x86)\Microchip\xc8\v2.10\pic\sources\c90\common\doprnt.c: 630:    f++
      +                          ;
  1669  00732C  4A4D               	infsnz	sprintf@f^0,f,c
  1670  00732E  2A4E               	incf	(sprintf@f+1)^0,f,c
  1671  007330                     
  1672                           ; BSR set to: 0
  1673                           ;C:\Program Files (x86)\Microchip\xc8\v2.10\pic\sources\c90\common\doprnt.c: 644:    {;C
      +                          :\Program Files (x86)\Microchip\xc8\v2.10\pic\sources\c90\common\doprnt.c: 645:     prec
      +                           = 0;
  1674  007330  0E00               	movlw	0
  1675  007332  6F79               	movwf	(sprintf@prec+1)& (0+255),b
  1676  007334  0E00               	movlw	0
  1677  007336  6F78               	movwf	sprintf@prec& (0+255),b
  1678                           
  1679                           ;C:\Program Files (x86)\Microchip\xc8\v2.10\pic\sources\c90\common\doprnt.c: 646:     wh
      +                          ile(isdigit((unsigned)*f)) {
  1680  007338  EFC3  F039         	goto	l3385
  1681  00733C                     l3379:
  1682                           
  1683                           ;C:\Program Files (x86)\Microchip\xc8\v2.10\pic\sources\c90\common\doprnt.c: 647:      p
      +                          rec *= 10;
  1684  00733C  C078  F001         	movff	sprintf@prec,___wmul@multiplier
  1685  007340  C079  F002         	movff	sprintf@prec+1,___wmul@multiplier+1
  1686  007344  0E00               	movlw	0
  1687  007346  6E04               	movwf	(___wmul@multiplicand+1)^0,c
  1688  007348  0E0A               	movlw	10
  1689  00734A  6E03               	movwf	___wmul@multiplicand^0,c
  1690  00734C  EC2D  F029         	call	___wmul	;wreg free
  1691  007350  C001  F078         	movff	?___wmul,sprintf@prec
  1692  007354  C002  F079         	movff	?___wmul+1,sprintf@prec+1
  1693  007358                     
  1694                           ;C:\Program Files (x86)\Microchip\xc8\v2.10\pic\sources\c90\common\doprnt.c: 648:       
      +                            prec += *f++ - '0';
  1695  007358  0ED0               	movlw	208
  1696  00735A  6E53               	movwf	??_sprintf^0,c
  1697  00735C  0EFF               	movlw	255
  1698  00735E  6E54               	movwf	(??_sprintf+1)^0,c
  1699  007360  C04D  FFF6         	movff	sprintf@f,tblptrl
  1700  007364  C04E  FFF7         	movff	sprintf@f+1,tblptrh
  1701  007368                     	if	0	;tblptru may be non-zero
  1702  007368                     	endif
  1703  007368                     	if	0	;tblptru may be non-zero
  1704  007368                     	endif
  1705  007368  0008               	tblrd		*
  1706  00736A  50F5               	movf	tablat,w,c
  1707  00736C  6E55               	movwf	(??_sprintf+2)^0,c
  1708  00736E  6A56               	clrf	(??_sprintf+3)^0,c
  1709  007370  5053               	movf	??_sprintf^0,w,c
  1710  007372  2655               	addwf	(??_sprintf+2)^0,f,c
  1711  007374  5054               	movf	(??_sprintf+1)^0,w,c
  1712  007376  2256               	addwfc	(??_sprintf+3)^0,f,c
  1713  007378  5055               	movf	(??_sprintf+2)^0,w,c
  1714  00737A  0100               	movlb	0	; () banked
  1715  00737C  2778               	addwf	sprintf@prec& (0+255),f,b
  1716  00737E  5056               	movf	(??_sprintf+3)^0,w,c
  1717  007380  2379               	addwfc	(sprintf@prec+1)& (0+255),f,b
  1718  007382                     
  1719                           ; BSR set to: 0
  1720  007382  4A4D               	infsnz	sprintf@f^0,f,c
  1721  007384  2A4E               	incf	(sprintf@f+1)^0,f,c
  1722  007386                     l3385:
  1723                           
  1724                           ; BSR set to: 0
  1725                           ;C:\Program Files (x86)\Microchip\xc8\v2.10\pic\sources\c90\common\doprnt.c: 646:     wh
      +                          ile(isdigit((unsigned)*f)) {
  1726  007386  C04D  FFF6         	movff	sprintf@f,tblptrl
  1727  00738A  C04E  FFF7         	movff	sprintf@f+1,tblptrh
  1728  00738E                     	if	0	;tblptru may be non-zero
  1729  00738E                     	endif
  1730  00738E                     	if	0	;tblptru may be non-zero
  1731  00738E                     	endif
  1732  00738E  0008               	tblrd		*
  1733  007390  50F5               	movf	tablat,w,c
  1734  007392  EC40  F029         	call	_isdigit
  1735  007396  B0D8               	btfsc	status,0,c
  1736  007398  EFD0  F039         	goto	u3461
  1737  00739C  EFD2  F039         	goto	u3460
  1738  0073A0                     u3461:
  1739  0073A0  EF9E  F039         	goto	l3379
  1740  0073A4                     u3460:
  1741  0073A4  EFDF  F039         	goto	l3395
  1742  0073A8                     l3387:
  1743                           
  1744                           ;C:\Program Files (x86)\Microchip\xc8\v2.10\pic\sources\c90\common\doprnt.c: 652:    pre
      +                          c = 0;
  1745  0073A8  0E00               	movlw	0
  1746  0073AA  0100               	movlb	0	; () banked
  1747  0073AC  6F79               	movwf	(sprintf@prec+1)& (0+255),b
  1748  0073AE  0E00               	movlw	0
  1749  0073B0  6F78               	movwf	sprintf@prec& (0+255),b
  1750  0073B2                     
  1751                           ; BSR set to: 0
  1752                           ;C:\Program Files (x86)\Microchip\xc8\v2.10\pic\sources\c90\common\doprnt.c: 654:    fla
      +                          g |= 0x1000;
  1753  0073B2  896B               	bsf	(sprintf@flag+1)& (0+255),4,b
  1754  0073B4  EFDF  F039         	goto	l3395
  1755  0073B8                     l3391:
  1756                           
  1757                           ; BSR set to: 0
  1758                           ;C:\Program Files (x86)\Microchip\xc8\v2.10\pic\sources\c90\common\doprnt.c: 689:    fla
      +                          g |= 0x400;
  1759  0073B8  856B               	bsf	(sprintf@flag+1)& (0+255),2,b
  1760                           
  1761                           ;C:\Program Files (x86)\Microchip\xc8\v2.10\pic\sources\c90\common\doprnt.c: 690:    bre
      +                          ak;
  1762  0073BA  EFFE  F039         	goto	l3397
  1763  0073BE                     l3395:
  1764  0073BE  C04D  FFF6         	movff	sprintf@f,tblptrl
  1765  0073C2  C04E  FFF7         	movff	sprintf@f+1,tblptrh
  1766  0073C6  4A4D               	infsnz	sprintf@f^0,f,c
  1767  0073C8  2A4E               	incf	(sprintf@f+1)^0,f,c
  1768  0073CA                     	if	0	;tblptru may be non-zero
  1769  0073CA                     	endif
  1770  0073CA                     	if	0	;tblptru may be non-zero
  1771  0073CA                     	endif
  1772  0073CA  0008               	tblrd		*
  1773  0073CC  CFF5 F07A          	movff	tablat,sprintf@c
  1774  0073D0  0100               	movlb	0	; () banked
  1775  0073D2  517A               	movf	sprintf@c& (0+255),w,b
  1776  0073D4  6E53               	movwf	??_sprintf^0,c
  1777  0073D6  6A54               	clrf	(??_sprintf+1)^0,c
  1778                           
  1779                           ; Switch on 2 bytes has been partitioned into a top level switch of size 1, and 1 sub-sw
      +                          itches
  1780                           ; Switch size 1, requested type "simple"
  1781                           ; Number of cases is 1, Range of values is 0 to 0
  1782                           ; switch strategies available:
  1783                           ; Name         Instructions Cycles
  1784                           ; simple_byte            4     3 (average)
  1785                           ;	Chosen strategy is simple_byte
  1786  0073D8  5054               	movf	(??_sprintf+1)^0,w,c
  1787  0073DA  0A00               	xorlw	0	; case 0
  1788  0073DC  B4D8               	btfsc	status,2,c
  1789  0073DE  EFF3  F039         	goto	l3697
  1790  0073E2  EFA2  F03E         	goto	l3609
  1791  0073E6                     l3697:
  1792                           
  1793                           ; BSR set to: 0
  1794                           ; Switch size 1, requested type "simple"
  1795                           ; Number of cases is 2, Range of values is 0 to 102
  1796                           ; switch strategies available:
  1797                           ; Name         Instructions Cycles
  1798                           ; simple_byte            7     4 (average)
  1799                           ;	Chosen strategy is simple_byte
  1800  0073E6  5053               	movf	??_sprintf^0,w,c
  1801  0073E8  0A00               	xorlw	0	; case 0
  1802  0073EA  B4D8               	btfsc	status,2,c
  1803  0073EC  EFB3  F03E         	goto	l3611
  1804  0073F0  0A66               	xorlw	102	; case 102
  1805  0073F2  B4D8               	btfsc	status,2,c
  1806  0073F4  EFDC  F039         	goto	l3391
  1807  0073F8  EFA2  F03E         	goto	l3609
  1808  0073FC                     l3397:
  1809                           
  1810                           ; BSR set to: 0
  1811                           ;C:\Program Files (x86)\Microchip\xc8\v2.10\pic\sources\c90\common\doprnt.c: 851:   if(f
      +                          lag & (0x700)) {
  1812  0073FC  0E07               	movlw	7
  1813  0073FE  156B               	andwf	(sprintf@flag+1)& (0+255),w,b
  1814  007400  B4D8               	btfsc	status,2,c
  1815  007402  EF05  F03A         	goto	u3471
  1816  007406  EF07  F03A         	goto	u3470
  1817  00740A                     u3471:
  1818  00740A  EFD6  F03D         	goto	l3561
  1819  00740E                     u3470:
  1820  00740E                     
  1821                           ; BSR set to: 0
  1822                           ;C:\Program Files (x86)\Microchip\xc8\v2.10\pic\sources\c90\common\doprnt.c: 853:    if(
      +                          flag & 0x1000)
  1823  00740E  A96B               	btfss	(sprintf@flag+1)& (0+255),4,b
  1824  007410  EF0C  F03A         	goto	u3481
  1825  007414  EF0E  F03A         	goto	u3480
  1826  007418                     u3481:
  1827  007418  EF12  F03A         	goto	l3403
  1828  00741C                     u3480:
  1829  00741C                     
  1830                           ; BSR set to: 0
  1831                           ;C:\Program Files (x86)\Microchip\xc8\v2.10\pic\sources\c90\common\doprnt.c: 855:     pr
      +                          ec = 6;
  1832  00741C  0E00               	movlw	0
  1833  00741E  6F79               	movwf	(sprintf@prec+1)& (0+255),b
  1834  007420  0E06               	movlw	6
  1835  007422  6F78               	movwf	sprintf@prec& (0+255),b
  1836  007424                     l3403:
  1837                           
  1838                           ; BSR set to: 0
  1839                           ;C:\Program Files (x86)\Microchip\xc8\v2.10\pic\sources\c90\common\doprnt.c: 856:    fva
      +                          l = (*(double *)__va_arg((*(double **)ap), (double)0));
  1840  007424  C064  FFD9         	movff	sprintf@ap,fsr2l
  1841  007428  C065  FFDA         	movff	sprintf@ap+1,fsr2h
  1842  00742C  CFDE F074          	movff	postinc2,sprintf@fval
  1843  007430  CFDE F075          	movff	postinc2,sprintf@fval+1
  1844  007434  CFDE F076          	movff	postinc2,sprintf@fval+2
  1845  007438  CFDE F077          	movff	postinc2,sprintf@fval+3
  1846  00743C                     
  1847                           ; BSR set to: 0
  1848  00743C  0E04               	movlw	4
  1849  00743E  2764               	addwf	sprintf@ap& (0+255),f,b
  1850  007440  0E00               	movlw	0
  1851  007442  2365               	addwfc	(sprintf@ap+1)& (0+255),f,b
  1852  007444                     
  1853                           ; BSR set to: 0
  1854                           ;C:\Program Files (x86)\Microchip\xc8\v2.10\pic\sources\c90\common\doprnt.c: 857:    if(
      +                          fval < 0.0) {
  1855  007444  BF77               	btfsc	(sprintf@fval+3)& (0+255),7,b
  1856  007446  EF29  F03A         	goto	u3490
  1857  00744A  EF27  F03A         	goto	u3491
  1858  00744E                     u3491:
  1859  00744E  EF3E  F03A         	goto	l3413
  1860  007452                     u3490:
  1861  007452                     
  1862                           ; BSR set to: 0
  1863                           ;C:\Program Files (x86)\Microchip\xc8\v2.10\pic\sources\c90\common\doprnt.c: 858:     fv
      +                          al = -fval;
  1864  007452  C074  F001         	movff	sprintf@fval,___flneg@f1
  1865  007456  C075  F002         	movff	sprintf@fval+1,___flneg@f1+1
  1866  00745A  C076  F003         	movff	sprintf@fval+2,___flneg@f1+2
  1867  00745E  C077  F004         	movff	sprintf@fval+3,___flneg@f1+3
  1868  007462  EC74  F029         	call	___flneg	;wreg free
  1869  007466  C001  F074         	movff	?___flneg,sprintf@fval
  1870  00746A  C002  F075         	movff	?___flneg+1,sprintf@fval+1
  1871  00746E  C003  F076         	movff	?___flneg+2,sprintf@fval+2
  1872  007472  C004  F077         	movff	?___flneg+3,sprintf@fval+3
  1873  007476                     
  1874                           ;C:\Program Files (x86)\Microchip\xc8\v2.10\pic\sources\c90\common\doprnt.c: 859:     fl
      +                          ag |= 0x03;
  1875  007476  0E03               	movlw	3
  1876  007478  0100               	movlb	0	; () banked
  1877  00747A  136A               	iorwf	sprintf@flag& (0+255),f,b
  1878  00747C                     l3413:
  1879                           
  1880                           ; BSR set to: 0
  1881                           ;C:\Program Files (x86)\Microchip\xc8\v2.10\pic\sources\c90\common\doprnt.c: 861:    eex
      +                          p = 0;
  1882  00747C  0E00               	movlw	0
  1883  00747E  6F73               	movwf	(sprintf@eexp+1)& (0+255),b
  1884  007480  0E00               	movlw	0
  1885  007482  6F72               	movwf	sprintf@eexp& (0+255),b
  1886  007484                     
  1887                           ; BSR set to: 0
  1888                           ;C:\Program Files (x86)\Microchip\xc8\v2.10\pic\sources\c90\common\doprnt.c: 862:    if(
      +                           fval!=0) {
  1889  007484  C074  F001         	movff	sprintf@fval,___fleq@ff1
  1890  007488  C075  F002         	movff	sprintf@fval+1,___fleq@ff1+1
  1891  00748C  C076  F003         	movff	sprintf@fval+2,___fleq@ff1+2
  1892  007490  C077  F004         	movff	sprintf@fval+3,___fleq@ff1+3
  1893  007494  0E00               	movlw	0
  1894  007496  6E05               	movwf	___fleq@ff2^0,c
  1895  007498  0E00               	movlw	0
  1896  00749A  6E06               	movwf	(___fleq@ff2+1)^0,c
  1897  00749C  0E00               	movlw	0
  1898  00749E  6E07               	movwf	(___fleq@ff2+2)^0,c
  1899  0074A0  0E00               	movlw	0
  1900  0074A2  6E08               	movwf	(___fleq@ff2+3)^0,c
  1901  0074A4  EC04  F02C         	call	___fleq	;wreg free
  1902  0074A8  B0D8               	btfsc	status,0,c
  1903  0074AA  EF59  F03A         	goto	u3501
  1904  0074AE  EF5B  F03A         	goto	u3500
  1905  0074B2                     u3501:
  1906  0074B2  EFEE  F03A         	goto	l3441
  1907  0074B6                     u3500:
  1908  0074B6                     
  1909                           ;C:\Program Files (x86)\Microchip\xc8\v2.10\pic\sources\c90\common\doprnt.c: 863:     (v
      +                          oid)(*(&eexp) = (unsigned char)((*(unsigned long *)&fval >> 23) & 255) - 126);
  1910  0074B6  0100               	movlb	0	; () banked
  1911  0074B8  3576               	rlcf	(sprintf@fval+2)& (0+255),w,b
  1912  0074BA  3577               	rlcf	(sprintf@fval+3)& (0+255),w,b
  1913  0074BC  0F82               	addlw	130
  1914  0074BE  6F72               	movwf	sprintf@eexp& (0+255),b
  1915  0074C0  6B73               	clrf	(sprintf@eexp+1)& (0+255),b
  1916  0074C2  0EFF               	movlw	255
  1917  0074C4  2373               	addwfc	(sprintf@eexp+1)& (0+255),f,b
  1918  0074C6                     
  1919                           ; BSR set to: 0
  1920                           ;C:\Program Files (x86)\Microchip\xc8\v2.10\pic\sources\c90\common\doprnt.c: 864:     ee
      +                          xp--;
  1921  0074C6  0772               	decf	sprintf@eexp& (0+255),f,b
  1922  0074C8  A0D8               	btfss	status,0,c
  1923  0074CA  0773               	decf	(sprintf@eexp+1)& (0+255),f,b
  1924  0074CC                     
  1925                           ; BSR set to: 0
  1926                           ;C:\Program Files (x86)\Microchip\xc8\v2.10\pic\sources\c90\common\doprnt.c: 865:     ee
      +                          xp *= 3;
  1927  0074CC  C072  F001         	movff	sprintf@eexp,___wmul@multiplier
  1928  0074D0  C073  F002         	movff	sprintf@eexp+1,___wmul@multiplier+1
  1929  0074D4  0E00               	movlw	0
  1930  0074D6  6E04               	movwf	(___wmul@multiplicand+1)^0,c
  1931  0074D8  0E03               	movlw	3
  1932  0074DA  6E03               	movwf	___wmul@multiplicand^0,c
  1933  0074DC  EC2D  F029         	call	___wmul	;wreg free
  1934  0074E0  C001  F072         	movff	?___wmul,sprintf@eexp
  1935  0074E4  C002  F073         	movff	?___wmul+1,sprintf@eexp+1
  1936  0074E8                     
  1937                           ;C:\Program Files (x86)\Microchip\xc8\v2.10\pic\sources\c90\common\doprnt.c: 866:     ee
      +                          xp /= 10;
  1938  0074E8  C072  F007         	movff	sprintf@eexp,___awdiv@dividend
  1939  0074EC  C073  F008         	movff	sprintf@eexp+1,___awdiv@dividend+1
  1940  0074F0  0E00               	movlw	0
  1941  0074F2  6E0A               	movwf	(___awdiv@divisor+1)^0,c
  1942  0074F4  0E0A               	movlw	10
  1943  0074F6  6E09               	movwf	___awdiv@divisor^0,c
  1944  0074F8  EC12  F02D         	call	___awdiv	;wreg free
  1945  0074FC  C007  F072         	movff	?___awdiv,sprintf@eexp
  1946  007500  C008  F073         	movff	?___awdiv+1,sprintf@eexp+1
  1947  007504                     
  1948                           ;C:\Program Files (x86)\Microchip\xc8\v2.10\pic\sources\c90\common\doprnt.c: 867:     if
      +                          (eexp < 0)
  1949  007504  0100               	movlb	0	; () banked
  1950  007506  BF73               	btfsc	(sprintf@eexp+1)& (0+255),7,b
  1951  007508  EF8A  F03A         	goto	u3510
  1952  00750C  EF88  F03A         	goto	u3511
  1953  007510                     u3511:
  1954  007510  EF8D  F03A         	goto	l3429
  1955  007514                     u3510:
  1956  007514                     
  1957                           ; BSR set to: 0
  1958                           ;C:\Program Files (x86)\Microchip\xc8\v2.10\pic\sources\c90\common\doprnt.c: 868:      e
      +                          exp--;
  1959  007514  0772               	decf	sprintf@eexp& (0+255),f,b
  1960  007516  A0D8               	btfss	status,0,c
  1961  007518  0773               	decf	(sprintf@eexp+1)& (0+255),f,b
  1962  00751A                     l3429:
  1963                           
  1964                           ; BSR set to: 0
  1965                           ;C:\Program Files (x86)\Microchip\xc8\v2.10\pic\sources\c90\common\doprnt.c: 872:     tm
      +                          pval.integ = scale(-eexp);
  1966  00751A  5172               	movf	sprintf@eexp& (0+255),w,b
  1967  00751C  0800               	sublw	0
  1968  00751E  ECA1  F032         	call	_scale
  1969  007522  C038  F06E         	movff	?_scale,sprintf@tmpval
  1970  007526  C039  F06F         	movff	?_scale+1,sprintf@tmpval+1
  1971  00752A  C03A  F070         	movff	?_scale+2,sprintf@tmpval+2
  1972  00752E  C03B  F071         	movff	?_scale+3,sprintf@tmpval+3
  1973  007532                     
  1974                           ;C:\Program Files (x86)\Microchip\xc8\v2.10\pic\sources\c90\common\doprnt.c: 873:     tm
      +                          pval.integ *= fval;
  1975  007532  C06E  F01F         	movff	sprintf@tmpval,___flmul@b
  1976  007536  C06F  F020         	movff	sprintf@tmpval+1,___flmul@b+1
  1977  00753A  C070  F021         	movff	sprintf@tmpval+2,___flmul@b+2
  1978  00753E  C071  F022         	movff	sprintf@tmpval+3,___flmul@b+3
  1979  007542  C074  F023         	movff	sprintf@fval,___flmul@a
  1980  007546  C075  F024         	movff	sprintf@fval+1,___flmul@a+1
  1981  00754A  C076  F025         	movff	sprintf@fval+2,___flmul@a+2
  1982  00754E  C077  F026         	movff	sprintf@fval+3,___flmul@a+3
  1983  007552  ECA7  F034         	call	___flmul	;wreg free
  1984  007556  C01F  F06E         	movff	?___flmul,sprintf@tmpval
  1985  00755A  C020  F06F         	movff	?___flmul+1,sprintf@tmpval+1
  1986  00755E  C021  F070         	movff	?___flmul+2,sprintf@tmpval+2
  1987  007562  C022  F071         	movff	?___flmul+3,sprintf@tmpval+3
  1988  007566                     
  1989                           ;C:\Program Files (x86)\Microchip\xc8\v2.10\pic\sources\c90\common\doprnt.c: 874:     if
      +                          (tmpval.integ < 1.0)
  1990  007566  C06E  F001         	movff	sprintf@tmpval,___flge@ff1
  1991  00756A  C06F  F002         	movff	sprintf@tmpval+1,___flge@ff1+1
  1992  00756E  C070  F003         	movff	sprintf@tmpval+2,___flge@ff1+2
  1993  007572  C071  F004         	movff	sprintf@tmpval+3,___flge@ff1+3
  1994  007576  0E00               	movlw	0
  1995  007578  6E05               	movwf	___flge@ff2^0,c
  1996  00757A  0E00               	movlw	0
  1997  00757C  6E06               	movwf	(___flge@ff2+1)^0,c
  1998  00757E  0E80               	movlw	128
  1999  007580  6E07               	movwf	(___flge@ff2+2)^0,c
  2000  007582  0E3F               	movlw	63
  2001  007584  6E08               	movwf	(___flge@ff2+3)^0,c
  2002  007586  EC74  F02D         	call	___flge	;wreg free
  2003  00758A  B0D8               	btfsc	status,0,c
  2004  00758C  EFCA  F03A         	goto	u3521
  2005  007590  EFCC  F03A         	goto	u3520
  2006  007594                     u3521:
  2007  007594  EFD2  F03A         	goto	l3437
  2008  007598                     u3520:
  2009  007598                     
  2010                           ;C:\Program Files (x86)\Microchip\xc8\v2.10\pic\sources\c90\common\doprnt.c: 875:      e
      +                          exp--;
  2011  007598  0100               	movlb	0	; () banked
  2012  00759A  0772               	decf	sprintf@eexp& (0+255),f,b
  2013  00759C  A0D8               	btfss	status,0,c
  2014  00759E  0773               	decf	(sprintf@eexp+1)& (0+255),f,b
  2015  0075A0  EFEE  F03A         	goto	l3441
  2016  0075A4                     l3437:
  2017  0075A4  C06E  F001         	movff	sprintf@tmpval,___flge@ff1
  2018  0075A8  C06F  F002         	movff	sprintf@tmpval+1,___flge@ff1+1
  2019  0075AC  C070  F003         	movff	sprintf@tmpval+2,___flge@ff1+2
  2020  0075B0  C071  F004         	movff	sprintf@tmpval+3,___flge@ff1+3
  2021  0075B4  0E00               	movlw	0
  2022  0075B6  6E05               	movwf	___flge@ff2^0,c
  2023  0075B8  0E00               	movlw	0
  2024  0075BA  6E06               	movwf	(___flge@ff2+1)^0,c
  2025  0075BC  0E20               	movlw	32
  2026  0075BE  6E07               	movwf	(___flge@ff2+2)^0,c
  2027  0075C0  0E41               	movlw	65
  2028  0075C2  6E08               	movwf	(___flge@ff2+3)^0,c
  2029  0075C4  EC74  F02D         	call	___flge	;wreg free
  2030  0075C8  A0D8               	btfss	status,0,c
  2031  0075CA  EFE9  F03A         	goto	u3531
  2032  0075CE  EFEB  F03A         	goto	u3530
  2033  0075D2                     u3531:
  2034  0075D2  EFEE  F03A         	goto	l3441
  2035  0075D6                     u3530:
  2036  0075D6                     
  2037                           ;C:\Program Files (x86)\Microchip\xc8\v2.10\pic\sources\c90\common\doprnt.c: 877:      e
      +                          exp++;
  2038  0075D6  0100               	movlb	0	; () banked
  2039  0075D8  4B72               	infsnz	sprintf@eexp& (0+255),f,b
  2040  0075DA  2B73               	incf	(sprintf@eexp+1)& (0+255),f,b
  2041  0075DC                     l3441:
  2042                           
  2043                           ;C:\Program Files (x86)\Microchip\xc8\v2.10\pic\sources\c90\common\doprnt.c: 1138:      
      +                          if(prec <= 12)
  2044  0075DC  0100               	movlb	0	; () banked
  2045  0075DE  BF79               	btfsc	(sprintf@prec+1)& (0+255),7,b
  2046  0075E0  EFFD  F03A         	goto	u3540
  2047  0075E4  5179               	movf	(sprintf@prec+1)& (0+255),w,b
  2048  0075E6  E107               	bnz	u3541
  2049  0075E8  0E0D               	movlw	13
  2050  0075EA  5D78               	subwf	sprintf@prec& (0+255),w,b
  2051  0075EC  B0D8               	btfsc	status,0,c
  2052  0075EE  EFFB  F03A         	goto	u3541
  2053  0075F2  EFFD  F03A         	goto	u3540
  2054  0075F6                     u3541:
  2055  0075F6  EF1A  F03B         	goto	l3445
  2056  0075FA                     u3540:
  2057  0075FA                     
  2058                           ; BSR set to: 0
  2059                           ;C:\Program Files (x86)\Microchip\xc8\v2.10\pic\sources\c90\common\doprnt.c: 1139:      
      +                           fval += fround((unsigned int)prec);
  2060  0075FA  C074  F00F         	movff	sprintf@fval,___fladd@b
  2061  0075FE  C075  F010         	movff	sprintf@fval+1,___fladd@b+1
  2062  007602  C076  F011         	movff	sprintf@fval+2,___fladd@b+2
  2063  007606  C077  F012         	movff	sprintf@fval+3,___fladd@b+3
  2064  00760A  5178               	movf	sprintf@prec& (0+255),w,b
  2065  00760C  EC50  F031         	call	_fround
  2066  007610  C038  F013         	movff	?_fround,___fladd@a
  2067  007614  C039  F014         	movff	?_fround+1,___fladd@a+1
  2068  007618  C03A  F015         	movff	?_fround+2,___fladd@a+2
  2069  00761C  C03B  F016         	movff	?_fround+3,___fladd@a+3
  2070  007620  ECBC  F036         	call	___fladd	;wreg free
  2071  007624  C00F  F074         	movff	?___fladd,sprintf@fval
  2072  007628  C010  F075         	movff	?___fladd+1,sprintf@fval+1
  2073  00762C  C011  F076         	movff	?___fladd+2,sprintf@fval+2
  2074  007630  C012  F077         	movff	?___fladd+3,sprintf@fval+3
  2075  007634                     l3445:
  2076                           
  2077                           ;C:\Program Files (x86)\Microchip\xc8\v2.10\pic\sources\c90\common\doprnt.c: 1142:     i
      +                          f((eexp > 9)||(fval != 0 && (unsigned long)fval == 0 && eexp > 1)) {
  2078  007634  0100               	movlb	0	; () banked
  2079  007636  BF73               	btfsc	(sprintf@eexp+1)& (0+255),7,b
  2080  007638  EF29  F03B         	goto	u3550
  2081  00763C  5173               	movf	(sprintf@eexp+1)& (0+255),w,b
  2082  00763E  E107               	bnz	u3551
  2083  007640  0E0A               	movlw	10
  2084  007642  5D72               	subwf	sprintf@eexp& (0+255),w,b
  2085  007644  B0D8               	btfsc	status,0,c
  2086  007646  EF27  F03B         	goto	u3551
  2087  00764A  EF29  F03B         	goto	u3550
  2088  00764E                     u3551:
  2089  00764E  EF66  F03B         	goto	l3453
  2090  007652                     u3550:
  2091  007652                     
  2092                           ; BSR set to: 0
  2093  007652  C074  F001         	movff	sprintf@fval,___fleq@ff1
  2094  007656  C075  F002         	movff	sprintf@fval+1,___fleq@ff1+1
  2095  00765A  C076  F003         	movff	sprintf@fval+2,___fleq@ff1+2
  2096  00765E  C077  F004         	movff	sprintf@fval+3,___fleq@ff1+3
  2097  007662  0E00               	movlw	0
  2098  007664  6E05               	movwf	___fleq@ff2^0,c
  2099  007666  0E00               	movlw	0
  2100  007668  6E06               	movwf	(___fleq@ff2+1)^0,c
  2101  00766A  0E00               	movlw	0
  2102  00766C  6E07               	movwf	(___fleq@ff2+2)^0,c
  2103  00766E  0E00               	movlw	0
  2104  007670  6E08               	movwf	(___fleq@ff2+3)^0,c
  2105  007672  EC04  F02C         	call	___fleq	;wreg free
  2106  007676  B0D8               	btfsc	status,0,c
  2107  007678  EF40  F03B         	goto	u3561
  2108  00767C  EF42  F03B         	goto	u3560
  2109  007680                     u3561:
  2110  007680  EFBB  F03B         	goto	l3467
  2111  007684                     u3560:
  2112  007684  C074  F041         	movff	sprintf@fval,___fltol@f1
  2113  007688  C075  F042         	movff	sprintf@fval+1,___fltol@f1+1
  2114  00768C  C076  F043         	movff	sprintf@fval+2,___fltol@f1+2
  2115  007690  C077  F044         	movff	sprintf@fval+3,___fltol@f1+3
  2116  007694  ECF6  F02D         	call	___fltol	;wreg free
  2117  007698  5041               	movf	?___fltol^0,w,c
  2118  00769A  1042               	iorwf	(?___fltol+1)^0,w,c
  2119  00769C  1043               	iorwf	(?___fltol+2)^0,w,c
  2120  00769E  1044               	iorwf	(?___fltol+3)^0,w,c
  2121  0076A0  A4D8               	btfss	status,2,c
  2122  0076A2  EF55  F03B         	goto	u3571
  2123  0076A6  EF57  F03B         	goto	u3570
  2124  0076AA                     u3571:
  2125  0076AA  EFBB  F03B         	goto	l3467
  2126  0076AE                     u3570:
  2127  0076AE  0100               	movlb	0	; () banked
  2128  0076B0  BF73               	btfsc	(sprintf@eexp+1)& (0+255),7,b
  2129  0076B2  EF64  F03B         	goto	u3581
  2130  0076B6  5173               	movf	(sprintf@eexp+1)& (0+255),w,b
  2131  0076B8  E109               	bnz	u3580
  2132  0076BA  0E02               	movlw	2
  2133  0076BC  5D72               	subwf	sprintf@eexp& (0+255),w,b
  2134  0076BE  A0D8               	btfss	status,0,c
  2135  0076C0  EF64  F03B         	goto	u3581
  2136  0076C4  EF66  F03B         	goto	u3580
  2137  0076C8                     u3581:
  2138  0076C8  EFBB  F03B         	goto	l3467
  2139  0076CC                     u3580:
  2140  0076CC                     l3453:
  2141                           
  2142                           ; BSR set to: 0
  2143                           ;C:\Program Files (x86)\Microchip\xc8\v2.10\pic\sources\c90\common\doprnt.c: 1146:      
      +                          if(tmpval.integ < 4.294967296){
  2144  0076CC  C06E  F001         	movff	sprintf@tmpval,___flge@ff1
  2145  0076D0  C06F  F002         	movff	sprintf@tmpval+1,___flge@ff1+1
  2146  0076D4  C070  F003         	movff	sprintf@tmpval+2,___flge@ff1+2
  2147  0076D8  C071  F004         	movff	sprintf@tmpval+3,___flge@ff1+3
  2148  0076DC  0E5F               	movlw	95
  2149  0076DE  6E05               	movwf	___flge@ff2^0,c
  2150  0076E0  0E70               	movlw	112
  2151  0076E2  6E06               	movwf	(___flge@ff2+1)^0,c
  2152  0076E4  0E89               	movlw	137
  2153  0076E6  6E07               	movwf	(___flge@ff2+2)^0,c
  2154  0076E8  0E40               	movlw	64
  2155  0076EA  6E08               	movwf	(___flge@ff2+3)^0,c
  2156  0076EC  EC74  F02D         	call	___flge	;wreg free
  2157  0076F0  B0D8               	btfsc	status,0,c
  2158  0076F2  EF7D  F03B         	goto	u3591
  2159  0076F6  EF7F  F03B         	goto	u3590
  2160  0076FA                     u3591:
  2161  0076FA  EF86  F03B         	goto	l3457
  2162  0076FE                     u3590:
  2163  0076FE                     
  2164                           ;C:\Program Files (x86)\Microchip\xc8\v2.10\pic\sources\c90\common\doprnt.c: 1147:      
      +                           eexp -= (sizeof dpowers/sizeof dpowers[0])-1;
  2165  0076FE  0100               	movlb	0	; () banked
  2166  007700  0EF7               	movlw	247
  2167  007702  2772               	addwf	sprintf@eexp& (0+255),f,b
  2168  007704  0EFF               	movlw	255
  2169  007706  2373               	addwfc	(sprintf@eexp+1)& (0+255),f,b
  2170                           
  2171                           ;C:\Program Files (x86)\Microchip\xc8\v2.10\pic\sources\c90\common\doprnt.c: 1148:      
      +                          }else{
  2172  007708  EF8B  F03B         	goto	l3459
  2173  00770C                     l3457:
  2174                           
  2175                           ;C:\Program Files (x86)\Microchip\xc8\v2.10\pic\sources\c90\common\doprnt.c: 1149:      
      +                           eexp -= (sizeof dpowers/sizeof dpowers[0])-2;
  2176  00770C  0100               	movlb	0	; () banked
  2177  00770E  0EF8               	movlw	248
  2178  007710  2772               	addwf	sprintf@eexp& (0+255),f,b
  2179  007712  0EFF               	movlw	255
  2180  007714  2373               	addwfc	(sprintf@eexp+1)& (0+255),f,b
  2181  007716                     l3459:
  2182                           
  2183                           ; BSR set to: 0
  2184                           ;C:\Program Files (x86)\Microchip\xc8\v2.10\pic\sources\c90\common\doprnt.c: 1152:      
      +                          val = ((sizeof(double)== 3) ? _tdiv_to_l_(fval,tmpval.integ) : _div_to_l_(fval,tmpval.in
      +                          teg));
  2185  007716  5172               	movf	sprintf@eexp& (0+255),w,b
  2186  007718  ECA1  F032         	call	_scale
  2187  00771C  C038  F06E         	movff	?_scale,sprintf@tmpval
  2188  007720  C039  F06F         	movff	?_scale+1,sprintf@tmpval+1
  2189  007724  C03A  F070         	movff	?_scale+2,sprintf@tmpval+2
  2190  007728  C03B  F071         	movff	?_scale+3,sprintf@tmpval+3
  2191  00772C  C074  F001         	movff	sprintf@fval,__div_to_l_@f1
  2192  007730  C075  F002         	movff	sprintf@fval+1,__div_to_l_@f1+1
  2193  007734  C076  F003         	movff	sprintf@fval+2,__div_to_l_@f1+2
  2194  007738  C077  F004         	movff	sprintf@fval+3,__div_to_l_@f1+3
  2195  00773C  C06E  F005         	movff	sprintf@tmpval,__div_to_l_@f2
  2196  007740  C06F  F006         	movff	sprintf@tmpval+1,__div_to_l_@f2+1
  2197  007744  C070  F007         	movff	sprintf@tmpval+2,__div_to_l_@f2+2
  2198  007748  C071  F008         	movff	sprintf@tmpval+3,__div_to_l_@f2+3
  2199  00774C  EC79  F02E         	call	__div_to_l_	;wreg free
  2200  007750  C001  F066         	movff	?__div_to_l_,sprintf@val
  2201  007754  C002  F067         	movff	?__div_to_l_+1,sprintf@val+1
  2202  007758  C003  F068         	movff	?__div_to_l_+2,sprintf@val+2
  2203  00775C  C004  F069         	movff	?__div_to_l_+3,sprintf@val+3
  2204  007760                     
  2205                           ;C:\Program Files (x86)\Microchip\xc8\v2.10\pic\sources\c90\common\doprnt.c: 1155:      
      +                          fval = 0.0;
  2206  007760  0E00               	movlw	0
  2207  007762  0100               	movlb	0	; () banked
  2208  007764  6F74               	movwf	sprintf@fval& (0+255),b
  2209  007766  0E00               	movlw	0
  2210  007768  6F75               	movwf	(sprintf@fval+1)& (0+255),b
  2211  00776A  0E00               	movlw	0
  2212  00776C  6F76               	movwf	(sprintf@fval+2)& (0+255),b
  2213  00776E  0E00               	movlw	0
  2214  007770  6F77               	movwf	(sprintf@fval+3)& (0+255),b
  2215                           
  2216                           ;C:\Program Files (x86)\Microchip\xc8\v2.10\pic\sources\c90\common\doprnt.c: 1156:     }
      +                           else {
  2217  007772  EFF7  F03B         	goto	l3471
  2218  007776                     l3467:
  2219                           
  2220                           ;C:\Program Files (x86)\Microchip\xc8\v2.10\pic\sources\c90\common\doprnt.c: 1157:      
      +                          val = (unsigned long)fval;
  2221  007776  C074  F041         	movff	sprintf@fval,___fltol@f1
  2222  00777A  C075  F042         	movff	sprintf@fval+1,___fltol@f1+1
  2223  00777E  C076  F043         	movff	sprintf@fval+2,___fltol@f1+2
  2224  007782  C077  F044         	movff	sprintf@fval+3,___fltol@f1+3
  2225  007786  ECF6  F02D         	call	___fltol	;wreg free
  2226  00778A  C041  F066         	movff	?___fltol,sprintf@val
  2227  00778E  C042  F067         	movff	?___fltol+1,sprintf@val+1
  2228  007792  C043  F068         	movff	?___fltol+2,sprintf@val+2
  2229  007796  C044  F069         	movff	?___fltol+3,sprintf@val+3
  2230                           
  2231                           ;C:\Program Files (x86)\Microchip\xc8\v2.10\pic\sources\c90\common\doprnt.c: 1158:      
      +                          fval -= (double)val;
  2232  00779A  C074  F01F         	movff	sprintf@fval,___flsub@b
  2233  00779E  C075  F020         	movff	sprintf@fval+1,___flsub@b+1
  2234  0077A2  C076  F021         	movff	sprintf@fval+2,___flsub@b+2
  2235  0077A6  C077  F022         	movff	sprintf@fval+3,___flsub@b+3
  2236  0077AA  C066  F001         	movff	sprintf@val,___xxtofl@val
  2237  0077AE  C067  F002         	movff	sprintf@val+1,___xxtofl@val+1
  2238  0077B2  C068  F003         	movff	sprintf@val+2,___xxtofl@val+2
  2239  0077B6  C069  F004         	movff	sprintf@val+3,___xxtofl@val+3
  2240  0077BA  0E00               	movlw	0
  2241  0077BC  EC76  F030         	call	___xxtofl
  2242  0077C0  C001  F023         	movff	?___xxtofl,___flsub@a
  2243  0077C4  C002  F024         	movff	?___xxtofl+1,___flsub@a+1
  2244  0077C8  C003  F025         	movff	?___xxtofl+2,___flsub@a+2
  2245  0077CC  C004  F026         	movff	?___xxtofl+3,___flsub@a+3
  2246  0077D0  EC0F  F02A         	call	___flsub	;wreg free
  2247  0077D4  C01F  F074         	movff	?___flsub,sprintf@fval
  2248  0077D8  C020  F075         	movff	?___flsub+1,sprintf@fval+1
  2249  0077DC  C021  F076         	movff	?___flsub+2,sprintf@fval+2
  2250  0077E0  C022  F077         	movff	?___flsub+3,sprintf@fval+3
  2251  0077E4                     
  2252                           ;C:\Program Files (x86)\Microchip\xc8\v2.10\pic\sources\c90\common\doprnt.c: 1159:      
      +                          eexp = 0;
  2253  0077E4  0E00               	movlw	0
  2254  0077E6  0100               	movlb	0	; () banked
  2255  0077E8  6F73               	movwf	(sprintf@eexp+1)& (0+255),b
  2256  0077EA  0E00               	movlw	0
  2257  0077EC  6F72               	movwf	sprintf@eexp& (0+255),b
  2258  0077EE                     l3471:
  2259                           
  2260                           ; BSR set to: 0
  2261                           ;C:\Program Files (x86)\Microchip\xc8\v2.10\pic\sources\c90\common\doprnt.c: 1162:     f
      +                          or(c = 1 ; c != (sizeof dpowers/sizeof dpowers[0]) ; c++)
  2262  0077EE  0E01               	movlw	1
  2263  0077F0  6F7A               	movwf	sprintf@c& (0+255),b
  2264  0077F2                     l3477:
  2265                           
  2266                           ; BSR set to: 0
  2267                           ;C:\Program Files (x86)\Microchip\xc8\v2.10\pic\sources\c90\common\doprnt.c: 1163:      
      +                          if(val < dpowers[c])
  2268  0077F2  517A               	movf	sprintf@c& (0+255),w,b
  2269  0077F4  0D04               	mullw	4
  2270  0077F6  0EBD               	movlw	low _dpowers
  2271  0077F8  24F3               	addwf	243,w,c
  2272  0077FA  6EF6               	movwf	tblptrl,c
  2273  0077FC  0E7F               	movlw	high _dpowers
  2274  0077FE  20F4               	addwfc	244,w,c
  2275  007800  6EF7               	movwf	tblptrh,c
  2276  007802                     	if	0	;There are less than 3 active tblptr bytes
  2277  007802                     	endif
  2278  007802  0009               	tblrd		*+
  2279  007804  50F5               	movf	tablat,w,c
  2280  007806  5D66               	subwf	sprintf@val& (0+255),w,b
  2281  007808  0009               	tblrd		*+
  2282  00780A  50F5               	movf	tablat,w,c
  2283  00780C  5967               	subwfb	(sprintf@val+1)& (0+255),w,b
  2284  00780E  0009               	tblrd		*+
  2285  007810  50F5               	movf	tablat,w,c
  2286  007812  5968               	subwfb	(sprintf@val+2)& (0+255),w,b
  2287  007814  0009               	tblrd		*+
  2288  007816  50F5               	movf	tablat,w,c
  2289  007818  5969               	subwfb	(sprintf@val+3)& (0+255),w,b
  2290  00781A  B0D8               	btfsc	status,0,c
  2291  00781C  EF12  F03C         	goto	u3601
  2292  007820  EF14  F03C         	goto	u3600
  2293  007824                     u3601:
  2294  007824  EF16  F03C         	goto	l3481
  2295  007828                     u3600:
  2296  007828  EF20  F03C         	goto	l3485
  2297  00782C                     l3481:
  2298                           
  2299                           ; BSR set to: 0
  2300  00782C  2B7A               	incf	sprintf@c& (0+255),f,b
  2301  00782E                     
  2302                           ; BSR set to: 0
  2303  00782E  0E0A               	movlw	10
  2304  007830  197A               	xorwf	sprintf@c& (0+255),w,b
  2305  007832  A4D8               	btfss	status,2,c
  2306  007834  EF1E  F03C         	goto	u3611
  2307  007838  EF20  F03C         	goto	u3610
  2308  00783C                     u3611:
  2309  00783C  EFF9  F03B         	goto	l3477
  2310  007840                     u3610:
  2311  007840                     l3485:
  2312                           
  2313                           ; BSR set to: 0
  2314                           ;C:\Program Files (x86)\Microchip\xc8\v2.10\pic\sources\c90\common\doprnt.c: 1168:     w
      +                          idth -= prec + c + eexp;
  2315  007840  517A               	movf	sprintf@c& (0+255),w,b
  2316  007842  2578               	addwf	sprintf@prec& (0+255),w,b
  2317  007844  6E53               	movwf	??_sprintf^0,c
  2318  007846  0E00               	movlw	0
  2319  007848  2179               	addwfc	(sprintf@prec+1)& (0+255),w,b
  2320  00784A  6E54               	movwf	(??_sprintf+1)^0,c
  2321  00784C  5172               	movf	sprintf@eexp& (0+255),w,b
  2322  00784E  2653               	addwf	??_sprintf^0,f,c
  2323  007850  5173               	movf	(sprintf@eexp+1)& (0+255),w,b
  2324  007852  2254               	addwfc	(??_sprintf+1)^0,f,c
  2325  007854  5053               	movf	??_sprintf^0,w,c
  2326  007856  5F6C               	subwf	sprintf@width& (0+255),f,b
  2327  007858  5054               	movf	(??_sprintf+1)^0,w,c
  2328  00785A  5B6D               	subwfb	(sprintf@width+1)& (0+255),f,b
  2329                           
  2330                           ;C:\Program Files (x86)\Microchip\xc8\v2.10\pic\sources\c90\common\doprnt.c: 1169:     i
      +                          f(
  2331  00785C  5178               	movf	sprintf@prec& (0+255),w,b
  2332  00785E  1179               	iorwf	(sprintf@prec+1)& (0+255),w,b
  2333  007860  B4D8               	btfsc	status,2,c
  2334  007862  EF35  F03C         	goto	u3621
  2335  007866  EF37  F03C         	goto	u3620
  2336  00786A                     u3621:
  2337  00786A  EF3A  F03C         	goto	l3489
  2338  00786E                     u3620:
  2339  00786E                     
  2340                           ; BSR set to: 0
  2341                           ;C:\Program Files (x86)\Microchip\xc8\v2.10\pic\sources\c90\common\doprnt.c: 1174:      
      +                          width--;
  2342  00786E  076C               	decf	sprintf@width& (0+255),f,b
  2343  007870  A0D8               	btfss	status,0,c
  2344  007872  076D               	decf	(sprintf@width+1)& (0+255),f,b
  2345  007874                     l3489:
  2346                           
  2347                           ; BSR set to: 0
  2348                           ;C:\Program Files (x86)\Microchip\xc8\v2.10\pic\sources\c90\common\doprnt.c: 1175:     i
      +                          f(flag & 0x03)
  2349  007874  0E03               	movlw	3
  2350  007876  156A               	andwf	sprintf@flag& (0+255),w,b
  2351  007878  6E53               	movwf	??_sprintf^0,c
  2352  00787A  0E00               	movlw	0
  2353  00787C  156B               	andwf	(sprintf@flag+1)& (0+255),w,b
  2354  00787E  6E54               	movwf	(??_sprintf+1)^0,c
  2355  007880  5053               	movf	??_sprintf^0,w,c
  2356  007882  1054               	iorwf	(??_sprintf+1)^0,w,c
  2357  007884  B4D8               	btfsc	status,2,c
  2358  007886  EF47  F03C         	goto	u3631
  2359  00788A  EF49  F03C         	goto	u3630
  2360  00788E                     u3631:
  2361  00788E  EF58  F03C         	goto	l3499
  2362  007892                     u3630:
  2363  007892                     l3491:
  2364                           
  2365                           ; BSR set to: 0
  2366                           ;C:\Program Files (x86)\Microchip\xc8\v2.10\pic\sources\c90\common\doprnt.c: 1176:      
      +                          width--;
  2367  007892  076C               	decf	sprintf@width& (0+255),f,b
  2368  007894  A0D8               	btfss	status,0,c
  2369  007896  076D               	decf	(sprintf@width+1)& (0+255),f,b
  2370  007898  EF58  F03C         	goto	l3499
  2371  00789C                     l3493:
  2372                           
  2373                           ; BSR set to: 0
  2374                           ;C:\Program Files (x86)\Microchip\xc8\v2.10\pic\sources\c90\common\doprnt.c: 1207:      
      +                           ((*sp++ = (' ')));
  2375  00789C  C04B  FFD9         	movff	sprintf@sp,fsr2l
  2376  0078A0  C04C  FFDA         	movff	sprintf@sp+1,fsr2h
  2377  0078A4  0E20               	movlw	32
  2378  0078A6  6EDF               	movwf	indf2,c
  2379  0078A8                     
  2380                           ; BSR set to: 0
  2381  0078A8  4A4B               	infsnz	sprintf@sp^0,f,c
  2382  0078AA  2A4C               	incf	(sprintf@sp+1)^0,f,c
  2383  0078AC  EF49  F03C         	goto	l3491
  2384  0078B0                     l3499:
  2385                           
  2386                           ; BSR set to: 0
  2387                           ;C:\Program Files (x86)\Microchip\xc8\v2.10\pic\sources\c90\common\doprnt.c: 1206:      
      +                          while(width > 0) {
  2388  0078B0  BF6D               	btfsc	(sprintf@width+1)& (0+255),7,b
  2389  0078B2  EF65  F03C         	goto	u3640
  2390  0078B6  516D               	movf	(sprintf@width+1)& (0+255),w,b
  2391  0078B8  E106               	bnz	u3641
  2392  0078BA  056C               	decf	sprintf@width& (0+255),w,b
  2393  0078BC  B0D8               	btfsc	status,0,c
  2394  0078BE  EF63  F03C         	goto	u3641
  2395  0078C2  EF65  F03C         	goto	u3640
  2396  0078C6                     u3641:
  2397  0078C6  EF4E  F03C         	goto	l3493
  2398  0078CA                     u3640:
  2399  0078CA                     
  2400                           ; BSR set to: 0
  2401                           ;C:\Program Files (x86)\Microchip\xc8\v2.10\pic\sources\c90\common\doprnt.c: 1214:     i
      +                          f(flag & 0x03)
  2402  0078CA  0E03               	movlw	3
  2403  0078CC  156A               	andwf	sprintf@flag& (0+255),w,b
  2404  0078CE  6E53               	movwf	??_sprintf^0,c
  2405  0078D0  0E00               	movlw	0
  2406  0078D2  156B               	andwf	(sprintf@flag+1)& (0+255),w,b
  2407  0078D4  6E54               	movwf	(??_sprintf+1)^0,c
  2408  0078D6  5053               	movf	??_sprintf^0,w,c
  2409  0078D8  1054               	iorwf	(??_sprintf+1)^0,w,c
  2410  0078DA  B4D8               	btfsc	status,2,c
  2411  0078DC  EF72  F03C         	goto	u3651
  2412  0078E0  EF74  F03C         	goto	u3650
  2413  0078E4                     u3651:
  2414  0078E4  EFC8  F03C         	goto	l3515
  2415  0078E8                     u3650:
  2416  0078E8                     
  2417                           ; BSR set to: 0
  2418                           ;C:\Program Files (x86)\Microchip\xc8\v2.10\pic\sources\c90\common\doprnt.c: 1216:      
      +                          ((*sp++ = ('-')));
  2419  0078E8  C04B  FFD9         	movff	sprintf@sp,fsr2l
  2420  0078EC  C04C  FFDA         	movff	sprintf@sp+1,fsr2h
  2421  0078F0  0E2D               	movlw	45
  2422  0078F2  6EDF               	movwf	indf2,c
  2423  0078F4                     l3505:
  2424                           
  2425                           ; BSR set to: 0
  2426  0078F4  4A4B               	infsnz	sprintf@sp^0,f,c
  2427  0078F6  2A4C               	incf	(sprintf@sp+1)^0,f,c
  2428  0078F8  EFC8  F03C         	goto	l3515
  2429  0078FC                     l3507:
  2430                           
  2431                           ; BSR set to: 0
  2432                           ;C:\Program Files (x86)\Microchip\xc8\v2.10\pic\sources\c90\common\doprnt.c: 1226:     {
      +                          ;C:\Program Files (x86)\Microchip\xc8\v2.10\pic\sources\c90\common\doprnt.c: 1227:      
      +                          tmpval.vd = val/dpowers[c];
  2433  0078FC  C066  F001         	movff	sprintf@val,___lldiv@dividend
  2434  007900  C067  F002         	movff	sprintf@val+1,___lldiv@dividend+1
  2435  007904  C068  F003         	movff	sprintf@val+2,___lldiv@dividend+2
  2436  007908  C069  F004         	movff	sprintf@val+3,___lldiv@dividend+3
  2437  00790C  517A               	movf	sprintf@c& (0+255),w,b
  2438  00790E  0D04               	mullw	4
  2439  007910  0EBD               	movlw	low _dpowers
  2440  007912  24F3               	addwf	243,w,c
  2441  007914  6EF6               	movwf	tblptrl,c
  2442  007916  0E7F               	movlw	high _dpowers
  2443  007918  20F4               	addwfc	244,w,c
  2444  00791A  6EF7               	movwf	tblptrh,c
  2445  00791C                     	if	0	;There are less than 3 active tblptr bytes
  2446  00791C                     	endif
  2447  00791C  0009               	tblrd		*+
  2448  00791E  CFF5 F005          	movff	tablat,___lldiv@divisor
  2449  007922  0009               	tblrd		*+
  2450  007924  CFF5 F006          	movff	tablat,___lldiv@divisor+1
  2451  007928  0009               	tblrd		*+
  2452  00792A  CFF5 F007          	movff	tablat,___lldiv@divisor+2
  2453  00792E  000A               	tblrd		*-
  2454  007930  CFF5 F008          	movff	tablat,___lldiv@divisor+3
  2455  007934  ECB2  F02B         	call	___lldiv	;wreg free
  2456  007938  C001  F06E         	movff	?___lldiv,sprintf@tmpval
  2457  00793C  C002  F06F         	movff	?___lldiv+1,sprintf@tmpval+1
  2458  007940  C003  F070         	movff	?___lldiv+2,sprintf@tmpval+2
  2459  007944  C004  F071         	movff	?___lldiv+3,sprintf@tmpval+3
  2460  007948                     
  2461                           ;C:\Program Files (x86)\Microchip\xc8\v2.10\pic\sources\c90\common\doprnt.c: 1228:      
      +                          tmpval.vd %= 10;
  2462  007948  C06E  F001         	movff	sprintf@tmpval,___llmod@dividend
  2463  00794C  C06F  F002         	movff	sprintf@tmpval+1,___llmod@dividend+1
  2464  007950  C070  F003         	movff	sprintf@tmpval+2,___llmod@dividend+2
  2465  007954  C071  F004         	movff	sprintf@tmpval+3,___llmod@dividend+3
  2466  007958  0E0A               	movlw	10
  2467  00795A  6E05               	movwf	___llmod@divisor^0,c
  2468  00795C  0E00               	movlw	0
  2469  00795E  6E06               	movwf	(___llmod@divisor+1)^0,c
  2470  007960  0E00               	movlw	0
  2471  007962  6E07               	movwf	(___llmod@divisor+2)^0,c
  2472  007964  0E00               	movlw	0
  2473  007966  6E08               	movwf	(___llmod@divisor+3)^0,c
  2474  007968  EC6E  F02B         	call	___llmod	;wreg free
  2475  00796C  C001  F06E         	movff	?___llmod,sprintf@tmpval
  2476  007970  C002  F06F         	movff	?___llmod+1,sprintf@tmpval+1
  2477  007974  C003  F070         	movff	?___llmod+2,sprintf@tmpval+2
  2478  007978  C004  F071         	movff	?___llmod+3,sprintf@tmpval+3
  2479  00797C                     
  2480                           ;C:\Program Files (x86)\Microchip\xc8\v2.10\pic\sources\c90\common\doprnt.c: 1229:      
      +                          ((*sp++ = ('0' + tmpval.vd)));
  2481  00797C  0100               	movlb	0	; () banked
  2482  00797E  516E               	movf	sprintf@tmpval& (0+255),w,b
  2483  007980  0F30               	addlw	48
  2484  007982  C04B  FFD9         	movff	sprintf@sp,fsr2l
  2485  007986  C04C  FFDA         	movff	sprintf@sp+1,fsr2h
  2486  00798A  6EDF               	movwf	indf2,c
  2487  00798C  EF7A  F03C         	goto	l3505
  2488  007990                     l3515:
  2489                           
  2490                           ; BSR set to: 0
  2491                           ;C:\Program Files (x86)\Microchip\xc8\v2.10\pic\sources\c90\common\doprnt.c: 1222:    wh
      +                          ile(c--) {
  2492  007990  077A               	decf	sprintf@c& (0+255),f,b
  2493  007992  297A               	incf	sprintf@c& (0+255),w,b
  2494  007994  A4D8               	btfss	status,2,c
  2495  007996  EFCF  F03C         	goto	u3661
  2496  00799A  EFD1  F03C         	goto	u3660
  2497  00799E                     u3661:
  2498  00799E  EF7E  F03C         	goto	l3507
  2499  0079A2                     u3660:
  2500  0079A2  EFDE  F03C         	goto	l3523
  2501  0079A6                     l3517:
  2502                           
  2503                           ; BSR set to: 0
  2504                           ;C:\Program Files (x86)\Microchip\xc8\v2.10\pic\sources\c90\common\doprnt.c: 1234:     (
      +                          (*sp++ = ('0')));
  2505  0079A6  C04B  FFD9         	movff	sprintf@sp,fsr2l
  2506  0079AA  C04C  FFDA         	movff	sprintf@sp+1,fsr2h
  2507  0079AE  0E30               	movlw	48
  2508  0079B0  6EDF               	movwf	indf2,c
  2509  0079B2                     
  2510                           ; BSR set to: 0
  2511  0079B2  4A4B               	infsnz	sprintf@sp^0,f,c
  2512  0079B4  2A4C               	incf	(sprintf@sp+1)^0,f,c
  2513  0079B6                     
  2514                           ; BSR set to: 0
  2515                           ;C:\Program Files (x86)\Microchip\xc8\v2.10\pic\sources\c90\common\doprnt.c: 1235:     e
      +                          exp--;
  2516  0079B6  0772               	decf	sprintf@eexp& (0+255),f,b
  2517  0079B8  A0D8               	btfss	status,0,c
  2518  0079BA  0773               	decf	(sprintf@eexp+1)& (0+255),f,b
  2519  0079BC                     l3523:
  2520                           
  2521                           ; BSR set to: 0
  2522                           ;C:\Program Files (x86)\Microchip\xc8\v2.10\pic\sources\c90\common\doprnt.c: 1233:    wh
      +                          ile(eexp > 0) {
  2523  0079BC  BF73               	btfsc	(sprintf@eexp+1)& (0+255),7,b
  2524  0079BE  EFEB  F03C         	goto	u3670
  2525  0079C2  5173               	movf	(sprintf@eexp+1)& (0+255),w,b
  2526  0079C4  E106               	bnz	u3671
  2527  0079C6  0572               	decf	sprintf@eexp& (0+255),w,b
  2528  0079C8  B0D8               	btfsc	status,0,c
  2529  0079CA  EFE9  F03C         	goto	u3671
  2530  0079CE  EFEB  F03C         	goto	u3670
  2531  0079D2                     u3671:
  2532  0079D2  EFD3  F03C         	goto	l3517
  2533  0079D6                     u3670:
  2534  0079D6                     
  2535                           ; BSR set to: 0
  2536                           ;C:\Program Files (x86)\Microchip\xc8\v2.10\pic\sources\c90\common\doprnt.c: 1237:    if
      +                          (prec > (int)((sizeof dpowers/sizeof dpowers[0])-2))
  2537  0079D6  BF79               	btfsc	(sprintf@prec+1)& (0+255),7,b
  2538  0079D8  EFF7  F03C         	goto	u3681
  2539  0079DC  5179               	movf	(sprintf@prec+1)& (0+255),w,b
  2540  0079DE  E109               	bnz	u3680
  2541  0079E0  0E09               	movlw	9
  2542  0079E2  5D78               	subwf	sprintf@prec& (0+255),w,b
  2543  0079E4  A0D8               	btfss	status,0,c
  2544  0079E6  EFF7  F03C         	goto	u3681
  2545  0079EA  EFF9  F03C         	goto	u3680
  2546  0079EE                     u3681:
  2547  0079EE  EFFD  F03C         	goto	l250
  2548  0079F2                     u3680:
  2549  0079F2                     
  2550                           ; BSR set to: 0
  2551                           ;C:\Program Files (x86)\Microchip\xc8\v2.10\pic\sources\c90\common\doprnt.c: 1238:     c
      +                           = (sizeof dpowers/sizeof dpowers[0])-2;
  2552  0079F2  0E08               	movlw	8
  2553  0079F4  6F7A               	movwf	sprintf@c& (0+255),b
  2554  0079F6  EFFF  F03C         	goto	l3529
  2555  0079FA                     l250:
  2556                           
  2557                           ; BSR set to: 0
  2558                           ;C:\Program Files (x86)\Microchip\xc8\v2.10\pic\sources\c90\common\doprnt.c: 1240:     c
      +                           = (char)prec;
  2559  0079FA  C078  F07A         	movff	sprintf@prec,sprintf@c
  2560  0079FE                     l3529:
  2561                           
  2562                           ; BSR set to: 0
  2563                           ;C:\Program Files (x86)\Microchip\xc8\v2.10\pic\sources\c90\common\doprnt.c: 1241:    pr
      +                          ec -= (int)c;
  2564  0079FE  517A               	movf	sprintf@c& (0+255),w,b
  2565  007A00  5F78               	subwf	sprintf@prec& (0+255),f,b
  2566  007A02  0E00               	movlw	0
  2567  007A04  5B79               	subwfb	(sprintf@prec+1)& (0+255),f,b
  2568  007A06                     
  2569                           ; BSR set to: 0
  2570                           ;C:\Program Files (x86)\Microchip\xc8\v2.10\pic\sources\c90\common\doprnt.c: 1245:    if
      +                          (c)
  2571  007A06  517A               	movf	sprintf@c& (0+255),w,b
  2572  007A08  B4D8               	btfsc	status,2,c
  2573  007A0A  EF09  F03D         	goto	u3691
  2574  007A0E  EF0B  F03D         	goto	u3690
  2575  007A12                     u3691:
  2576  007A12  EF13  F03D         	goto	l3537
  2577  007A16                     u3690:
  2578  007A16                     
  2579                           ; BSR set to: 0
  2580                           ;C:\Program Files (x86)\Microchip\xc8\v2.10\pic\sources\c90\common\doprnt.c: 1247:     (
      +                          (*sp++ = ('.')));
  2581  007A16  C04B  FFD9         	movff	sprintf@sp,fsr2l
  2582  007A1A  C04C  FFDA         	movff	sprintf@sp+1,fsr2h
  2583  007A1E  0E2E               	movlw	46
  2584  007A20  6EDF               	movwf	indf2,c
  2585  007A22                     
  2586                           ; BSR set to: 0
  2587  007A22  4A4B               	infsnz	sprintf@sp^0,f,c
  2588  007A24  2A4C               	incf	(sprintf@sp+1)^0,f,c
  2589  007A26                     l3537:
  2590                           
  2591                           ; BSR set to: 0
  2592                           ;C:\Program Files (x86)\Microchip\xc8\v2.10\pic\sources\c90\common\doprnt.c: 1253:    va
      +                          l = (unsigned long)(fval * scale((signed char)c));
  2593  007A26  517A               	movf	sprintf@c& (0+255),w,b
  2594  007A28  ECA1  F032         	call	_scale
  2595  007A2C  C038  F060         	movff	?_scale,_sprintf$1359
  2596  007A30  C039  F061         	movff	?_scale+1,_sprintf$1359+1
  2597  007A34  C03A  F062         	movff	?_scale+2,_sprintf$1359+2
  2598  007A38  C03B  F063         	movff	?_scale+3,_sprintf$1359+3
  2599  007A3C                     
  2600                           ;C:\Program Files (x86)\Microchip\xc8\v2.10\pic\sources\c90\common\doprnt.c: 1253:    va
      +                          l = (unsigned long)(fval * scale((signed char)c));
  2601  007A3C  C074  F023         	movff	sprintf@fval,___flmul@a
  2602  007A40  C075  F024         	movff	sprintf@fval+1,___flmul@a+1
  2603  007A44  C076  F025         	movff	sprintf@fval+2,___flmul@a+2
  2604  007A48  C077  F026         	movff	sprintf@fval+3,___flmul@a+3
  2605  007A4C  C060  F01F         	movff	_sprintf$1359,___flmul@b
  2606  007A50  C061  F020         	movff	_sprintf$1359+1,___flmul@b+1
  2607  007A54  C062  F021         	movff	_sprintf$1359+2,___flmul@b+2
  2608  007A58  C063  F022         	movff	_sprintf$1359+3,___flmul@b+3
  2609  007A5C  ECA7  F034         	call	___flmul	;wreg free
  2610  007A60  C01F  F041         	movff	?___flmul,___fltol@f1
  2611  007A64  C020  F042         	movff	?___flmul+1,___fltol@f1+1
  2612  007A68  C021  F043         	movff	?___flmul+2,___fltol@f1+2
  2613  007A6C  C022  F044         	movff	?___flmul+3,___fltol@f1+3
  2614  007A70  ECF6  F02D         	call	___fltol	;wreg free
  2615  007A74  C041  F066         	movff	?___fltol,sprintf@val
  2616  007A78  C042  F067         	movff	?___fltol+1,sprintf@val+1
  2617  007A7C  C043  F068         	movff	?___fltol+2,sprintf@val+2
  2618  007A80  C044  F069         	movff	?___fltol+3,sprintf@val+3
  2619                           
  2620                           ;C:\Program Files (x86)\Microchip\xc8\v2.10\pic\sources\c90\common\doprnt.c: 1254:    wh
      +                          ile(c--) {
  2621  007A84  EFB4  F03D         	goto	l3551
  2622  007A88                     l3541:
  2623                           
  2624                           ; BSR set to: 0
  2625                           ;C:\Program Files (x86)\Microchip\xc8\v2.10\pic\sources\c90\common\doprnt.c: 1255:     t
      +                          mpval.vd = val/dpowers[c];
  2626  007A88  C066  F001         	movff	sprintf@val,___lldiv@dividend
  2627  007A8C  C067  F002         	movff	sprintf@val+1,___lldiv@dividend+1
  2628  007A90  C068  F003         	movff	sprintf@val+2,___lldiv@dividend+2
  2629  007A94  C069  F004         	movff	sprintf@val+3,___lldiv@dividend+3
  2630  007A98  517A               	movf	sprintf@c& (0+255),w,b
  2631  007A9A  0D04               	mullw	4
  2632  007A9C  0EBD               	movlw	low _dpowers
  2633  007A9E  24F3               	addwf	243,w,c
  2634  007AA0  6EF6               	movwf	tblptrl,c
  2635  007AA2  0E7F               	movlw	high _dpowers
  2636  007AA4  20F4               	addwfc	244,w,c
  2637  007AA6  6EF7               	movwf	tblptrh,c
  2638  007AA8                     	if	0	;There are less than 3 active tblptr bytes
  2639  007AA8                     	endif
  2640  007AA8  0009               	tblrd		*+
  2641  007AAA  CFF5 F005          	movff	tablat,___lldiv@divisor
  2642  007AAE  0009               	tblrd		*+
  2643  007AB0  CFF5 F006          	movff	tablat,___lldiv@divisor+1
  2644  007AB4  0009               	tblrd		*+
  2645  007AB6  CFF5 F007          	movff	tablat,___lldiv@divisor+2
  2646  007ABA  000A               	tblrd		*-
  2647  007ABC  CFF5 F008          	movff	tablat,___lldiv@divisor+3
  2648  007AC0  ECB2  F02B         	call	___lldiv	;wreg free
  2649  007AC4  C001  F06E         	movff	?___lldiv,sprintf@tmpval
  2650  007AC8  C002  F06F         	movff	?___lldiv+1,sprintf@tmpval+1
  2651  007ACC  C003  F070         	movff	?___lldiv+2,sprintf@tmpval+2
  2652  007AD0  C004  F071         	movff	?___lldiv+3,sprintf@tmpval+3
  2653  007AD4                     
  2654                           ;C:\Program Files (x86)\Microchip\xc8\v2.10\pic\sources\c90\common\doprnt.c: 1256:     t
      +                          mpval.vd %= 10;
  2655  007AD4  C06E  F001         	movff	sprintf@tmpval,___llmod@dividend
  2656  007AD8  C06F  F002         	movff	sprintf@tmpval+1,___llmod@dividend+1
  2657  007ADC  C070  F003         	movff	sprintf@tmpval+2,___llmod@dividend+2
  2658  007AE0  C071  F004         	movff	sprintf@tmpval+3,___llmod@dividend+3
  2659  007AE4  0E0A               	movlw	10
  2660  007AE6  6E05               	movwf	___llmod@divisor^0,c
  2661  007AE8  0E00               	movlw	0
  2662  007AEA  6E06               	movwf	(___llmod@divisor+1)^0,c
  2663  007AEC  0E00               	movlw	0
  2664  007AEE  6E07               	movwf	(___llmod@divisor+2)^0,c
  2665  007AF0  0E00               	movlw	0
  2666  007AF2  6E08               	movwf	(___llmod@divisor+3)^0,c
  2667  007AF4  EC6E  F02B         	call	___llmod	;wreg free
  2668  007AF8  C001  F06E         	movff	?___llmod,sprintf@tmpval
  2669  007AFC  C002  F06F         	movff	?___llmod+1,sprintf@tmpval+1
  2670  007B00  C003  F070         	movff	?___llmod+2,sprintf@tmpval+2
  2671  007B04  C004  F071         	movff	?___llmod+3,sprintf@tmpval+3
  2672  007B08                     
  2673                           ;C:\Program Files (x86)\Microchip\xc8\v2.10\pic\sources\c90\common\doprnt.c: 1257:     (
      +                          (*sp++ = ('0' + tmpval.vd)));
  2674  007B08  0100               	movlb	0	; () banked
  2675  007B0A  516E               	movf	sprintf@tmpval& (0+255),w,b
  2676  007B0C  0F30               	addlw	48
  2677  007B0E  C04B  FFD9         	movff	sprintf@sp,fsr2l
  2678  007B12  C04C  FFDA         	movff	sprintf@sp+1,fsr2h
  2679  007B16  6EDF               	movwf	indf2,c
  2680  007B18                     
  2681                           ; BSR set to: 0
  2682  007B18  4A4B               	infsnz	sprintf@sp^0,f,c
  2683  007B1A  2A4C               	incf	(sprintf@sp+1)^0,f,c
  2684  007B1C                     
  2685                           ; BSR set to: 0
  2686                           ;C:\Program Files (x86)\Microchip\xc8\v2.10\pic\sources\c90\common\doprnt.c: 1258:     v
      +                          al %= dpowers[c];
  2687  007B1C  C066  F001         	movff	sprintf@val,___llmod@dividend
  2688  007B20  C067  F002         	movff	sprintf@val+1,___llmod@dividend+1
  2689  007B24  C068  F003         	movff	sprintf@val+2,___llmod@dividend+2
  2690  007B28  C069  F004         	movff	sprintf@val+3,___llmod@dividend+3
  2691  007B2C  517A               	movf	sprintf@c& (0+255),w,b
  2692  007B2E  0D04               	mullw	4
  2693  007B30  0EBD               	movlw	low _dpowers
  2694  007B32  24F3               	addwf	243,w,c
  2695  007B34  6EF6               	movwf	tblptrl,c
  2696  007B36  0E7F               	movlw	high _dpowers
  2697  007B38  20F4               	addwfc	244,w,c
  2698  007B3A  6EF7               	movwf	tblptrh,c
  2699  007B3C                     	if	0	;There are less than 3 active tblptr bytes
  2700  007B3C                     	endif
  2701  007B3C  0009               	tblrd		*+
  2702  007B3E  CFF5 F005          	movff	tablat,___llmod@divisor
  2703  007B42  0009               	tblrd		*+
  2704  007B44  CFF5 F006          	movff	tablat,___llmod@divisor+1
  2705  007B48  0009               	tblrd		*+
  2706  007B4A  CFF5 F007          	movff	tablat,___llmod@divisor+2
  2707  007B4E  000A               	tblrd		*-
  2708  007B50  CFF5 F008          	movff	tablat,___llmod@divisor+3
  2709  007B54  EC6E  F02B         	call	___llmod	;wreg free
  2710  007B58  C001  F066         	movff	?___llmod,sprintf@val
  2711  007B5C  C002  F067         	movff	?___llmod+1,sprintf@val+1
  2712  007B60  C003  F068         	movff	?___llmod+2,sprintf@val+2
  2713  007B64  C004  F069         	movff	?___llmod+3,sprintf@val+3
  2714  007B68                     l3551:
  2715                           
  2716                           ;C:\Program Files (x86)\Microchip\xc8\v2.10\pic\sources\c90\common\doprnt.c: 1254:    wh
      +                          ile(c--) {
  2717  007B68  0100               	movlb	0	; () banked
  2718  007B6A  077A               	decf	sprintf@c& (0+255),f,b
  2719  007B6C  297A               	incf	sprintf@c& (0+255),w,b
  2720  007B6E  A4D8               	btfss	status,2,c
  2721  007B70  EFBC  F03D         	goto	u3701
  2722  007B74  EFBE  F03D         	goto	u3700
  2723  007B78                     u3701:
  2724  007B78  EF44  F03D         	goto	l3541
  2725  007B7C                     u3700:
  2726  007B7C  EFCB  F03D         	goto	l3559
  2727  007B80                     l3553:
  2728                           
  2729                           ; BSR set to: 0
  2730                           ;C:\Program Files (x86)\Microchip\xc8\v2.10\pic\sources\c90\common\doprnt.c: 1262:     (
      +                          (*sp++ = ('0')));
  2731  007B80  C04B  FFD9         	movff	sprintf@sp,fsr2l
  2732  007B84  C04C  FFDA         	movff	sprintf@sp+1,fsr2h
  2733  007B88  0E30               	movlw	48
  2734  007B8A  6EDF               	movwf	indf2,c
  2735  007B8C                     
  2736                           ; BSR set to: 0
  2737  007B8C  4A4B               	infsnz	sprintf@sp^0,f,c
  2738  007B8E  2A4C               	incf	(sprintf@sp+1)^0,f,c
  2739  007B90                     
  2740                           ; BSR set to: 0
  2741                           ;C:\Program Files (x86)\Microchip\xc8\v2.10\pic\sources\c90\common\doprnt.c: 1263:     p
      +                          rec--;
  2742  007B90  0778               	decf	sprintf@prec& (0+255),f,b
  2743  007B92  A0D8               	btfss	status,0,c
  2744  007B94  0779               	decf	(sprintf@prec+1)& (0+255),f,b
  2745  007B96                     l3559:
  2746                           
  2747                           ; BSR set to: 0
  2748                           ;C:\Program Files (x86)\Microchip\xc8\v2.10\pic\sources\c90\common\doprnt.c: 1261:    wh
      +                          ile(prec) {
  2749  007B96  5178               	movf	sprintf@prec& (0+255),w,b
  2750  007B98  1179               	iorwf	(sprintf@prec+1)& (0+255),w,b
  2751  007B9A  A4D8               	btfss	status,2,c
  2752  007B9C  EFD2  F03D         	goto	u3711
  2753  007BA0  EFD4  F03D         	goto	u3710
  2754  007BA4                     u3711:
  2755  007BA4  EFC0  F03D         	goto	l3553
  2756  007BA8                     u3710:
  2757  007BA8  EFA2  F03E         	goto	l3609
  2758  007BAC                     l3561:
  2759                           
  2760                           ; BSR set to: 0
  2761                           ;C:\Program Files (x86)\Microchip\xc8\v2.10\pic\sources\c90\common\doprnt.c: 1316:   if(
      +                          prec == 0 && val == 0)
  2762  007BAC  5178               	movf	sprintf@prec& (0+255),w,b
  2763  007BAE  1179               	iorwf	(sprintf@prec+1)& (0+255),w,b
  2764  007BB0  A4D8               	btfss	status,2,c
  2765  007BB2  EFDD  F03D         	goto	u3721
  2766  007BB6  EFDF  F03D         	goto	u3720
  2767  007BBA                     u3721:
  2768  007BBA  EFEC  F03D         	goto	l3567
  2769  007BBE                     u3720:
  2770  007BBE                     
  2771                           ; BSR set to: 0
  2772  007BBE  5166               	movf	sprintf@val& (0+255),w,b
  2773  007BC0  1167               	iorwf	(sprintf@val+1)& (0+255),w,b
  2774  007BC2  1168               	iorwf	(sprintf@val+2)& (0+255),w,b
  2775  007BC4  1169               	iorwf	(sprintf@val+3)& (0+255),w,b
  2776  007BC6  A4D8               	btfss	status,2,c
  2777  007BC8  EFE8  F03D         	goto	u3731
  2778  007BCC  EFEA  F03D         	goto	u3730
  2779  007BD0                     u3731:
  2780  007BD0  EFEC  F03D         	goto	l3567
  2781  007BD4                     u3730:
  2782  007BD4                     
  2783                           ; BSR set to: 0
  2784                           ;C:\Program Files (x86)\Microchip\xc8\v2.10\pic\sources\c90\common\doprnt.c: 1317:    pr
      +                          ec++;
  2785  007BD4  4B78               	infsnz	sprintf@prec& (0+255),f,b
  2786  007BD6  2B79               	incf	(sprintf@prec+1)& (0+255),f,b
  2787  007BD8                     l3567:
  2788                           
  2789                           ; BSR set to: 0
  2790                           ;C:\Program Files (x86)\Microchip\xc8\v2.10\pic\sources\c90\common\doprnt.c: 1365:   if(
      +                          c < prec)
  2791  007BD8  517A               	movf	sprintf@c& (0+255),w,b
  2792  007BDA  6E53               	movwf	??_sprintf^0,c
  2793  007BDC  6A54               	clrf	(??_sprintf+1)^0,c
  2794  007BDE  5178               	movf	sprintf@prec& (0+255),w,b
  2795  007BE0  5C53               	subwf	??_sprintf^0,w,c
  2796  007BE2  5054               	movf	(??_sprintf+1)^0,w,c
  2797  007BE4  0A80               	xorlw	128
  2798  007BE6  6E55               	movwf	(??_sprintf+2)^0,c
  2799  007BE8  5179               	movf	(sprintf@prec+1)& (0+255),w,b
  2800  007BEA  0A80               	xorlw	128
  2801  007BEC  5855               	subwfb	(??_sprintf+2)^0,w,c
  2802  007BEE  B0D8               	btfsc	status,0,c
  2803  007BF0  EFFC  F03D         	goto	u3741
  2804  007BF4  EFFE  F03D         	goto	u3740
  2805  007BF8                     u3741:
  2806  007BF8  EF02  F03E         	goto	l3571
  2807  007BFC                     u3740:
  2808  007BFC                     
  2809                           ; BSR set to: 0
  2810                           ;C:\Program Files (x86)\Microchip\xc8\v2.10\pic\sources\c90\common\doprnt.c: 1366:    c 
      +                          = (char)prec;
  2811  007BFC  C078  F07A         	movff	sprintf@prec,sprintf@c
  2812  007C00  EF17  F03E         	goto	l3575
  2813  007C04                     l3571:
  2814                           
  2815                           ; BSR set to: 0
  2816  007C04  517A               	movf	sprintf@c& (0+255),w,b
  2817  007C06  6E53               	movwf	??_sprintf^0,c
  2818  007C08  6A54               	clrf	(??_sprintf+1)^0,c
  2819  007C0A  5053               	movf	??_sprintf^0,w,c
  2820  007C0C  5D78               	subwf	sprintf@prec& (0+255),w,b
  2821  007C0E  5179               	movf	(sprintf@prec+1)& (0+255),w,b
  2822  007C10  0A80               	xorlw	128
  2823  007C12  6E55               	movwf	(??_sprintf+2)^0,c
  2824  007C14  5054               	movf	(??_sprintf+1)^0,w,c
  2825  007C16  0A80               	xorlw	128
  2826  007C18  5855               	subwfb	(??_sprintf+2)^0,w,c
  2827  007C1A  B0D8               	btfsc	status,0,c
  2828  007C1C  EF12  F03E         	goto	u3751
  2829  007C20  EF14  F03E         	goto	u3750
  2830  007C24                     u3751:
  2831  007C24  EF17  F03E         	goto	l3575
  2832  007C28                     u3750:
  2833  007C28                     
  2834                           ; BSR set to: 0
  2835                           ;C:\Program Files (x86)\Microchip\xc8\v2.10\pic\sources\c90\common\doprnt.c: 1368:    pr
      +                          ec = c;
  2836  007C28  C07A  F078         	movff	sprintf@c,sprintf@prec
  2837  007C2C  6B79               	clrf	(sprintf@prec+1)& (0+255),b
  2838  007C2E                     l3575:
  2839                           
  2840                           ; BSR set to: 0
  2841                           ;C:\Program Files (x86)\Microchip\xc8\v2.10\pic\sources\c90\common\doprnt.c: 1371:   if(
      +                          width && flag & 0x03)
  2842  007C2E  516C               	movf	sprintf@width& (0+255),w,b
  2843  007C30  116D               	iorwf	(sprintf@width+1)& (0+255),w,b
  2844  007C32  B4D8               	btfsc	status,2,c
  2845  007C34  EF1E  F03E         	goto	u3761
  2846  007C38  EF20  F03E         	goto	u3760
  2847  007C3C                     u3761:
  2848  007C3C  EF32  F03E         	goto	l3581
  2849  007C40                     u3760:
  2850  007C40                     
  2851                           ; BSR set to: 0
  2852  007C40  0E03               	movlw	3
  2853  007C42  156A               	andwf	sprintf@flag& (0+255),w,b
  2854  007C44  6E53               	movwf	??_sprintf^0,c
  2855  007C46  0E00               	movlw	0
  2856  007C48  156B               	andwf	(sprintf@flag+1)& (0+255),w,b
  2857  007C4A  6E54               	movwf	(??_sprintf+1)^0,c
  2858  007C4C  5053               	movf	??_sprintf^0,w,c
  2859  007C4E  1054               	iorwf	(??_sprintf+1)^0,w,c
  2860  007C50  B4D8               	btfsc	status,2,c
  2861  007C52  EF2D  F03E         	goto	u3771
  2862  007C56  EF2F  F03E         	goto	u3770
  2863  007C5A                     u3771:
  2864  007C5A  EF32  F03E         	goto	l3581
  2865  007C5E                     u3770:
  2866  007C5E                     
  2867                           ; BSR set to: 0
  2868                           ;C:\Program Files (x86)\Microchip\xc8\v2.10\pic\sources\c90\common\doprnt.c: 1372:    wi
      +                          dth--;
  2869  007C5E  076C               	decf	sprintf@width& (0+255),f,b
  2870  007C60  A0D8               	btfss	status,0,c
  2871  007C62  076D               	decf	(sprintf@width+1)& (0+255),f,b
  2872  007C64                     l3581:
  2873                           
  2874                           ; BSR set to: 0
  2875                           ;C:\Program Files (x86)\Microchip\xc8\v2.10\pic\sources\c90\common\doprnt.c: 1374:   if(
      +                          flag & 0x4000) {
  2876  007C64  AD6B               	btfss	(sprintf@flag+1)& (0+255),6,b
  2877  007C66  EF37  F03E         	goto	u3781
  2878  007C6A  EF39  F03E         	goto	u3780
  2879  007C6E                     u3781:
  2880  007C6E  EF52  F03E         	goto	l3589
  2881  007C72                     u3780:
  2882  007C72                     
  2883                           ; BSR set to: 0
  2884                           ;C:\Program Files (x86)\Microchip\xc8\v2.10\pic\sources\c90\common\doprnt.c: 1375:    if
      +                          (width > prec)
  2885  007C72  516C               	movf	sprintf@width& (0+255),w,b
  2886  007C74  5D78               	subwf	sprintf@prec& (0+255),w,b
  2887  007C76  5179               	movf	(sprintf@prec+1)& (0+255),w,b
  2888  007C78  0A80               	xorlw	128
  2889  007C7A  6E53               	movwf	??_sprintf^0,c
  2890  007C7C  516D               	movf	(sprintf@width+1)& (0+255),w,b
  2891  007C7E  0A80               	xorlw	128
  2892  007C80  5853               	subwfb	??_sprintf^0,w,c
  2893  007C82  B0D8               	btfsc	status,0,c
  2894  007C84  EF46  F03E         	goto	u3791
  2895  007C88  EF48  F03E         	goto	u3790
  2896  007C8C                     u3791:
  2897  007C8C  EF4E  F03E         	goto	l3587
  2898  007C90                     u3790:
  2899  007C90                     
  2900                           ; BSR set to: 0
  2901                           ;C:\Program Files (x86)\Microchip\xc8\v2.10\pic\sources\c90\common\doprnt.c: 1376:     w
      +                          idth -= prec;
  2902  007C90  5178               	movf	sprintf@prec& (0+255),w,b
  2903  007C92  5F6C               	subwf	sprintf@width& (0+255),f,b
  2904  007C94  5179               	movf	(sprintf@prec+1)& (0+255),w,b
  2905  007C96  5B6D               	subwfb	(sprintf@width+1)& (0+255),f,b
  2906  007C98  EF52  F03E         	goto	l3589
  2907  007C9C                     l3587:
  2908                           
  2909                           ; BSR set to: 0
  2910                           ;C:\Program Files (x86)\Microchip\xc8\v2.10\pic\sources\c90\common\doprnt.c: 1378:     w
      +                          idth = 0;
  2911  007C9C  0E00               	movlw	0
  2912  007C9E  6F6D               	movwf	(sprintf@width+1)& (0+255),b
  2913  007CA0  0E00               	movlw	0
  2914  007CA2  6F6C               	movwf	sprintf@width& (0+255),b
  2915  007CA4                     l3589:
  2916                           
  2917                           ; BSR set to: 0
  2918                           ;C:\Program Files (x86)\Microchip\xc8\v2.10\pic\sources\c90\common\doprnt.c: 1407:   if(
      +                          width > c)
  2919  007CA4  517A               	movf	sprintf@c& (0+255),w,b
  2920  007CA6  6E53               	movwf	??_sprintf^0,c
  2921  007CA8  6A54               	clrf	(??_sprintf+1)^0,c
  2922  007CAA  516C               	movf	sprintf@width& (0+255),w,b
  2923  007CAC  5C53               	subwf	??_sprintf^0,w,c
  2924  007CAE  5054               	movf	(??_sprintf+1)^0,w,c
  2925  007CB0  0A80               	xorlw	128
  2926  007CB2  6E55               	movwf	(??_sprintf+2)^0,c
  2927  007CB4  516D               	movf	(sprintf@width+1)& (0+255),w,b
  2928  007CB6  0A80               	xorlw	128
  2929  007CB8  5855               	subwfb	(??_sprintf+2)^0,w,c
  2930  007CBA  B0D8               	btfsc	status,0,c
  2931  007CBC  EF62  F03E         	goto	u3801
  2932  007CC0  EF64  F03E         	goto	u3800
  2933  007CC4                     u3801:
  2934  007CC4  EF6A  F03E         	goto	l3593
  2935  007CC8                     u3800:
  2936  007CC8                     
  2937                           ; BSR set to: 0
  2938                           ;C:\Program Files (x86)\Microchip\xc8\v2.10\pic\sources\c90\common\doprnt.c: 1408:    wi
      +                          dth -= c;
  2939  007CC8  517A               	movf	sprintf@c& (0+255),w,b
  2940  007CCA  5F6C               	subwf	sprintf@width& (0+255),f,b
  2941  007CCC  0E00               	movlw	0
  2942  007CCE  5B6D               	subwfb	(sprintf@width+1)& (0+255),f,b
  2943  007CD0  EF6E  F03E         	goto	l3595
  2944  007CD4                     l3593:
  2945                           
  2946                           ; BSR set to: 0
  2947                           ;C:\Program Files (x86)\Microchip\xc8\v2.10\pic\sources\c90\common\doprnt.c: 1410:    wi
      +                          dth = 0;
  2948  007CD4  0E00               	movlw	0
  2949  007CD6  6F6D               	movwf	(sprintf@width+1)& (0+255),b
  2950  007CD8  0E00               	movlw	0
  2951  007CDA  6F6C               	movwf	sprintf@width& (0+255),b
  2952  007CDC                     l3595:
  2953                           
  2954                           ; BSR set to: 0
  2955                           ;C:\Program Files (x86)\Microchip\xc8\v2.10\pic\sources\c90\common\doprnt.c: 1448:   {;C
      +                          :\Program Files (x86)\Microchip\xc8\v2.10\pic\sources\c90\common\doprnt.c: 1450:    if(w
      +                          idth
  2956  007CDC  516C               	movf	sprintf@width& (0+255),w,b
  2957  007CDE  116D               	iorwf	(sprintf@width+1)& (0+255),w,b
  2958  007CE0  B4D8               	btfsc	status,2,c
  2959  007CE2  EF75  F03E         	goto	u3811
  2960  007CE6  EF77  F03E         	goto	u3810
  2961  007CEA                     u3811:
  2962  007CEA  EF8B  F03E         	goto	l3603
  2963  007CEE                     u3810:
  2964  007CEE                     l3597:
  2965                           
  2966                           ; BSR set to: 0
  2967                           ;C:\Program Files (x86)\Microchip\xc8\v2.10\pic\sources\c90\common\doprnt.c: 1456:      
      +                          ((*sp++ = (' ')));
  2968  007CEE  C04B  FFD9         	movff	sprintf@sp,fsr2l
  2969  007CF2  C04C  FFDA         	movff	sprintf@sp+1,fsr2h
  2970  007CF6  0E20               	movlw	32
  2971  007CF8  6EDF               	movwf	indf2,c
  2972  007CFA                     
  2973                           ; BSR set to: 0
  2974  007CFA  4A4B               	infsnz	sprintf@sp^0,f,c
  2975  007CFC  2A4C               	incf	(sprintf@sp+1)^0,f,c
  2976  007CFE                     
  2977                           ; BSR set to: 0
  2978  007CFE  076C               	decf	sprintf@width& (0+255),f,b
  2979  007D00  A0D8               	btfss	status,0,c
  2980  007D02  076D               	decf	(sprintf@width+1)& (0+255),f,b
  2981  007D04  516C               	movf	sprintf@width& (0+255),w,b
  2982  007D06  116D               	iorwf	(sprintf@width+1)& (0+255),w,b
  2983  007D08  A4D8               	btfss	status,2,c
  2984  007D0A  EF89  F03E         	goto	u3821
  2985  007D0E  EF8B  F03E         	goto	u3820
  2986  007D12                     u3821:
  2987  007D12  EF77  F03E         	goto	l3597
  2988  007D16                     u3820:
  2989  007D16                     l3603:
  2990                           
  2991                           ; BSR set to: 0
  2992                           ;C:\Program Files (x86)\Microchip\xc8\v2.10\pic\sources\c90\common\doprnt.c: 1464:    if
      +                          (flag & 0x03)
  2993  007D16  0E03               	movlw	3
  2994  007D18  156A               	andwf	sprintf@flag& (0+255),w,b
  2995  007D1A  6E53               	movwf	??_sprintf^0,c
  2996  007D1C  0E00               	movlw	0
  2997  007D1E  156B               	andwf	(sprintf@flag+1)& (0+255),w,b
  2998  007D20  6E54               	movwf	(??_sprintf+1)^0,c
  2999  007D22  5053               	movf	??_sprintf^0,w,c
  3000  007D24  1054               	iorwf	(??_sprintf+1)^0,w,c
  3001  007D26  B4D8               	btfsc	status,2,c
  3002  007D28  EF98  F03E         	goto	u3831
  3003  007D2C  EF9A  F03E         	goto	u3830
  3004  007D30                     u3831:
  3005  007D30  EFA2  F03E         	goto	l3609
  3006  007D34                     u3830:
  3007  007D34                     
  3008                           ; BSR set to: 0
  3009                           ;C:\Program Files (x86)\Microchip\xc8\v2.10\pic\sources\c90\common\doprnt.c: 1465:     (
      +                          (*sp++ = ('-')));
  3010  007D34  C04B  FFD9         	movff	sprintf@sp,fsr2l
  3011  007D38  C04C  FFDA         	movff	sprintf@sp+1,fsr2h
  3012  007D3C  0E2D               	movlw	45
  3013  007D3E  6EDF               	movwf	indf2,c
  3014  007D40  EF32  F039         	goto	l3357
  3015  007D44                     l3609:
  3016                           
  3017                           ; BSR set to: 0
  3018                           ;C:\Program Files (x86)\Microchip\xc8\v2.10\pic\sources\c90\common\doprnt.c: 553:  while
      +                          ((c = *f++)) {
  3019  007D44  C04D  FFF6         	movff	sprintf@f,tblptrl
  3020  007D48  C04E  FFF7         	movff	sprintf@f+1,tblptrh
  3021  007D4C  4A4D               	infsnz	sprintf@f^0,f,c
  3022  007D4E  2A4E               	incf	(sprintf@f+1)^0,f,c
  3023  007D50                     	if	0	;tblptru may be non-zero
  3024  007D50                     	endif
  3025  007D50                     	if	0	;tblptru may be non-zero
  3026  007D50                     	endif
  3027  007D50  0008               	tblrd		*
  3028  007D52  CFF5 F07A          	movff	tablat,sprintf@c
  3029  007D56  517A               	movf	sprintf@c& (0+255),w,b
  3030  007D58  A4D8               	btfss	status,2,c
  3031  007D5A  EFB1  F03E         	goto	u3841
  3032  007D5E  EFB3  F03E         	goto	u3840
  3033  007D62                     u3841:
  3034  007D62  EF23  F039         	goto	l3353
  3035  007D66                     u3840:
  3036  007D66                     l3611:
  3037                           
  3038                           ; BSR set to: 0
  3039                           ;C:\Program Files (x86)\Microchip\xc8\v2.10\pic\sources\c90\common\doprnt.c: 1564:  *sp 
      +                          = 0;
  3040  007D66  C04B  FFD9         	movff	sprintf@sp,fsr2l
  3041  007D6A  C04C  FFDA         	movff	sprintf@sp+1,fsr2h
  3042  007D6E  0E00               	movlw	0
  3043  007D70  6EDF               	movwf	indf2,c
  3044  007D72                     
  3045                           ; BSR set to: 0
  3046  007D72  0012               	return		;funcret
  3047  007D74                     __end_of_sprintf:
  3048                           	opt callstack 0
  3049                           
  3050 ;; *************** function _scale *****************
  3051 ;; Defined at:
  3052 ;;		line 433 in file "C:\Program Files (x86)\Microchip\xc8\v2.10\pic\sources\c90\common\doprnt.c"
  3053 ;; Parameters:    Size  Location     Type
  3054 ;;  scl             1    wreg     char 
  3055 ;; Auto vars:     Size  Location     Type
  3056 ;;  scl             1   63[COMRAM] char 
  3057 ;; Return value:  Size  Location     Type
  3058 ;;                  4   55[COMRAM] char 
  3059 ;; Registers used:
  3060 ;;		wreg, status,2, status,0, tblptrl, tblptrh, tblptru, prodl, prodh, cstack
  3061 ;; Tracked objects:
  3062 ;;		On entry : 0/0
  3063 ;;		On exit  : 0/0
  3064 ;;		Unchanged: 0/0
  3065 ;; Data sizes:     COMRAM   BANK0   BANK1   BANK2   BANK3   BANK4   BANK5   BANK6   BANK7
  3066 ;;      Params:         4       0       0       0       0       0       0       0       0
  3067 ;;      Locals:         5       0       0       0       0       0       0       0       0
  3068 ;;      Temps:          0       0       0       0       0       0       0       0       0
  3069 ;;      Totals:         9       0       0       0       0       0       0       0       0
  3070 ;;Total ram usage:        9 bytes
  3071 ;; Hardware stack levels used:    1
  3072 ;; Hardware stack levels required when called:    1
  3073 ;; This function calls:
  3074 ;;		___awdiv
  3075 ;;		___awmod
  3076 ;;		___flmul
  3077 ;; This function is called by:
  3078 ;;		_sprintf
  3079 ;; This function uses a non-reentrant model
  3080 ;;
  3081                           
  3082                           	psect	text2
  3083  006542                     __ptext2:
  3084                           	opt callstack 0
  3085  006542                     _scale:
  3086                           	opt callstack 28
  3087                           
  3088                           ; BSR set to: 0
  3089                           ;incstack = 0
  3090                           ;scale@scl stored from wreg
  3091  006542  6E40               	movwf	scale@scl^0,c
  3092  006544                     
  3093                           ;C:\Program Files (x86)\Microchip\xc8\v2.10\pic\sources\c90\common\doprnt.c: 433: scale(
      +                          signed char scl);C:\Program Files (x86)\Microchip\xc8\v2.10\pic\sources\c90\common\doprn
      +                          t.c: 434: {;C:\Program Files (x86)\Microchip\xc8\v2.10\pic\sources\c90\common\doprnt.c: 
      +                          436:  if(scl < 0) {
  3094  006544  BE40               	btfsc	scale@scl^0,7,c
  3095  006546  EFA9  F032         	goto	u2760
  3096  00654A  EFA7  F032         	goto	u2761
  3097  00654E                     u2761:
  3098  00654E  EFA9  F033         	goto	l2921
  3099  006552                     u2760:
  3100  006552                     
  3101                           ;C:\Program Files (x86)\Microchip\xc8\v2.10\pic\sources\c90\common\doprnt.c: 437:   scl 
      +                          = -scl;
  3102  006552  6C40               	negf	scale@scl^0,c
  3103                           
  3104                           ;C:\Program Files (x86)\Microchip\xc8\v2.10\pic\sources\c90\common\doprnt.c: 438:   if(s
      +                          cl>=110)
  3105  006554  5040               	movf	scale@scl^0,w,c
  3106  006556  0A80               	xorlw	128
  3107  006558  0F12               	addlw	-238
  3108  00655A  A0D8               	btfss	status,0,c
  3109  00655C  EFB2  F032         	goto	u2771
  3110  006560  EFB4  F032         	goto	u2770
  3111  006564                     u2771:
  3112  006564  EF3D  F033         	goto	l2911
  3113  006568                     u2770:
  3114  006568                     
  3115                           ;C:\Program Files (x86)\Microchip\xc8\v2.10\pic\sources\c90\common\doprnt.c: 439:    ret
      +                          urn _npowers_[(unsigned char)(scl/100+18)] * _npowers_[(unsigned char)((scl%100)/10+9)] 
      +                          * _npowers_[(unsigned char)(scl%10)];
  3116  006568  0E00               	movlw	0
  3117  00656A  6E0A               	movwf	(___awdiv@divisor+1)^0,c
  3118  00656C  0E0A               	movlw	10
  3119  00656E  6E09               	movwf	___awdiv@divisor^0,c
  3120  006570  0E00               	movlw	0
  3121  006572  6E04               	movwf	(___awmod@divisor+1)^0,c
  3122  006574  0E64               	movlw	100
  3123  006576  6E03               	movwf	___awmod@divisor^0,c
  3124  006578  5040               	movf	scale@scl^0,w,c
  3125  00657A  6E01               	movwf	___awmod@dividend^0,c
  3126  00657C  6A02               	clrf	(___awmod@dividend+1)^0,c
  3127  00657E  BE01               	btfsc	___awmod@dividend^0,7,c
  3128  006580  0602               	decf	(___awmod@dividend+1)^0,f,c
  3129  006582  EC59  F02C         	call	___awmod	;wreg free
  3130  006586  C001  F007         	movff	?___awmod,___awdiv@dividend
  3131  00658A  C002  F008         	movff	?___awmod+1,___awdiv@dividend+1
  3132  00658E  EC12  F02D         	call	___awdiv	;wreg free
  3133  006592  0E09               	movlw	9
  3134  006594  2607               	addwf	?___awdiv^0,f,c
  3135  006596  5007               	movf	?___awdiv^0,w,c
  3136  006598  0D04               	mullw	4
  3137  00659A  0EA9               	movlw	low __npowers_
  3138  00659C  24F3               	addwf	243,w,c
  3139  00659E  6EF6               	movwf	tblptrl,c
  3140  0065A0  0E7D               	movlw	high __npowers_
  3141  0065A2  20F4               	addwfc	244,w,c
  3142  0065A4  6EF7               	movwf	tblptrh,c
  3143  0065A6                     	if	0	;There are less than 3 active tblptr bytes
  3144  0065A6                     	endif
  3145  0065A6  0009               	tblrd		*+
  3146  0065A8  CFF5 F023          	movff	tablat,___flmul@a
  3147  0065AC  0009               	tblrd		*+
  3148  0065AE  CFF5 F024          	movff	tablat,___flmul@a+1
  3149  0065B2  0009               	tblrd		*+
  3150  0065B4  CFF5 F025          	movff	tablat,___flmul@a+2
  3151  0065B8  000A               	tblrd		*-
  3152  0065BA  CFF5 F026          	movff	tablat,___flmul@a+3
  3153  0065BE  0E00               	movlw	0
  3154  0065C0  6E0A               	movwf	(___awdiv@divisor+1)^0,c
  3155  0065C2  0E64               	movlw	100
  3156  0065C4  6E09               	movwf	___awdiv@divisor^0,c
  3157  0065C6  5040               	movf	scale@scl^0,w,c
  3158  0065C8  6E07               	movwf	___awdiv@dividend^0,c
  3159  0065CA  6A08               	clrf	(___awdiv@dividend+1)^0,c
  3160  0065CC  BE07               	btfsc	___awdiv@dividend^0,7,c
  3161  0065CE  0608               	decf	(___awdiv@dividend+1)^0,f,c
  3162  0065D0  EC12  F02D         	call	___awdiv	;wreg free
  3163  0065D4  0E12               	movlw	18
  3164  0065D6  2607               	addwf	?___awdiv^0,f,c
  3165  0065D8  5007               	movf	?___awdiv^0,w,c
  3166  0065DA  0D04               	mullw	4
  3167  0065DC  0EA9               	movlw	low __npowers_
  3168  0065DE  24F3               	addwf	243,w,c
  3169  0065E0  6EF6               	movwf	tblptrl,c
  3170  0065E2  0E7D               	movlw	high __npowers_
  3171  0065E4  20F4               	addwfc	244,w,c
  3172  0065E6  6EF7               	movwf	tblptrh,c
  3173  0065E8                     	if	0	;There are less than 3 active tblptr bytes
  3174  0065E8                     	endif
  3175  0065E8  0009               	tblrd		*+
  3176  0065EA  CFF5 F01F          	movff	tablat,___flmul@b
  3177  0065EE  0009               	tblrd		*+
  3178  0065F0  CFF5 F020          	movff	tablat,___flmul@b+1
  3179  0065F4  0009               	tblrd		*+
  3180  0065F6  CFF5 F021          	movff	tablat,___flmul@b+2
  3181  0065FA  000A               	tblrd		*-
  3182  0065FC  CFF5 F022          	movff	tablat,___flmul@b+3
  3183  006600  ECA7  F034         	call	___flmul	;wreg free
  3184  006604  C01F  F03C         	movff	?___flmul,_scale$1358
  3185  006608  C020  F03D         	movff	?___flmul+1,_scale$1358+1
  3186  00660C  C021  F03E         	movff	?___flmul+2,_scale$1358+2
  3187  006610  C022  F03F         	movff	?___flmul+3,_scale$1358+3
  3188                           
  3189                           ;C:\Program Files (x86)\Microchip\xc8\v2.10\pic\sources\c90\common\doprnt.c: 439:    ret
      +                          urn _npowers_[(unsigned char)(scl/100+18)] * _npowers_[(unsigned char)((scl%100)/10+9)] 
      +                          * _npowers_[(unsigned char)(scl%10)];
  3190  006614  C03C  F01F         	movff	_scale$1358,___flmul@b
  3191  006618  C03D  F020         	movff	_scale$1358+1,___flmul@b+1
  3192  00661C  C03E  F021         	movff	_scale$1358+2,___flmul@b+2
  3193  006620  C03F  F022         	movff	_scale$1358+3,___flmul@b+3
  3194  006624  0E00               	movlw	0
  3195  006626  6E04               	movwf	(___awmod@divisor+1)^0,c
  3196  006628  0E0A               	movlw	10
  3197  00662A  6E03               	movwf	___awmod@divisor^0,c
  3198  00662C  5040               	movf	scale@scl^0,w,c
  3199  00662E  6E01               	movwf	___awmod@dividend^0,c
  3200  006630  6A02               	clrf	(___awmod@dividend+1)^0,c
  3201  006632  BE01               	btfsc	___awmod@dividend^0,7,c
  3202  006634  0602               	decf	(___awmod@dividend+1)^0,f,c
  3203  006636  EC59  F02C         	call	___awmod	;wreg free
  3204  00663A  5001               	movf	?___awmod^0,w,c
  3205  00663C  0D04               	mullw	4
  3206  00663E  0EA9               	movlw	low __npowers_
  3207  006640  24F3               	addwf	243,w,c
  3208  006642  6EF6               	movwf	tblptrl,c
  3209  006644  0E7D               	movlw	high __npowers_
  3210  006646  20F4               	addwfc	244,w,c
  3211  006648  6EF7               	movwf	tblptrh,c
  3212  00664A                     	if	0	;There are less than 3 active tblptr bytes
  3213  00664A                     	endif
  3214  00664A  0009               	tblrd		*+
  3215  00664C  CFF5 F023          	movff	tablat,___flmul@a
  3216  006650  0009               	tblrd		*+
  3217  006652  CFF5 F024          	movff	tablat,___flmul@a+1
  3218  006656  0009               	tblrd		*+
  3219  006658  CFF5 F025          	movff	tablat,___flmul@a+2
  3220  00665C  000A               	tblrd		*-
  3221  00665E  CFF5 F026          	movff	tablat,___flmul@a+3
  3222  006662  ECA7  F034         	call	___flmul	;wreg free
  3223  006666  C01F  F038         	movff	?___flmul,?_scale
  3224  00666A  C020  F039         	movff	?___flmul+1,?_scale+1
  3225  00666E  C021  F03A         	movff	?___flmul+2,?_scale+2
  3226  006672  C022  F03B         	movff	?___flmul+3,?_scale+3
  3227  006676  EFA6  F034         	goto	l191
  3228  00667A                     l2911:
  3229  00667A  5040               	movf	scale@scl^0,w,c
  3230  00667C  0A80               	xorlw	128
  3231  00667E  0F75               	addlw	-139
  3232  006680  A0D8               	btfss	status,0,c
  3233  006682  EF45  F033         	goto	u2781
  3234  006686  EF47  F033         	goto	u2780
  3235  00668A                     u2781:
  3236  00668A  EF93  F033         	goto	l2917
  3237  00668E                     u2780:
  3238  00668E                     
  3239                           ;C:\Program Files (x86)\Microchip\xc8\v2.10\pic\sources\c90\common\doprnt.c: 441:    ret
      +                          urn _npowers_[(unsigned char)(scl/10+9)] * _npowers_[(unsigned char)(scl%10)];
  3240  00668E  0E00               	movlw	0
  3241  006690  6E0A               	movwf	(___awdiv@divisor+1)^0,c
  3242  006692  0E0A               	movlw	10
  3243  006694  6E09               	movwf	___awdiv@divisor^0,c
  3244  006696  5040               	movf	scale@scl^0,w,c
  3245  006698  6E07               	movwf	___awdiv@dividend^0,c
  3246  00669A  6A08               	clrf	(___awdiv@dividend+1)^0,c
  3247  00669C  BE07               	btfsc	___awdiv@dividend^0,7,c
  3248  00669E  0608               	decf	(___awdiv@dividend+1)^0,f,c
  3249  0066A0  EC12  F02D         	call	___awdiv	;wreg free
  3250  0066A4  0E09               	movlw	9
  3251  0066A6  2607               	addwf	?___awdiv^0,f,c
  3252  0066A8  5007               	movf	?___awdiv^0,w,c
  3253  0066AA  0D04               	mullw	4
  3254  0066AC  0EA9               	movlw	low __npowers_
  3255  0066AE  24F3               	addwf	243,w,c
  3256  0066B0  6EF6               	movwf	tblptrl,c
  3257  0066B2  0E7D               	movlw	high __npowers_
  3258  0066B4  20F4               	addwfc	244,w,c
  3259  0066B6  6EF7               	movwf	tblptrh,c
  3260  0066B8                     	if	0	;There are less than 3 active tblptr bytes
  3261  0066B8                     	endif
  3262  0066B8  0009               	tblrd		*+
  3263  0066BA  CFF5 F01F          	movff	tablat,___flmul@b
  3264  0066BE  0009               	tblrd		*+
  3265  0066C0  CFF5 F020          	movff	tablat,___flmul@b+1
  3266  0066C4  0009               	tblrd		*+
  3267  0066C6  CFF5 F021          	movff	tablat,___flmul@b+2
  3268  0066CA  000A               	tblrd		*-
  3269  0066CC  CFF5 F022          	movff	tablat,___flmul@b+3
  3270  0066D0  0E00               	movlw	0
  3271  0066D2  6E04               	movwf	(___awmod@divisor+1)^0,c
  3272  0066D4  0E0A               	movlw	10
  3273  0066D6  6E03               	movwf	___awmod@divisor^0,c
  3274  0066D8  5040               	movf	scale@scl^0,w,c
  3275  0066DA  6E01               	movwf	___awmod@dividend^0,c
  3276  0066DC  6A02               	clrf	(___awmod@dividend+1)^0,c
  3277  0066DE  BE01               	btfsc	___awmod@dividend^0,7,c
  3278  0066E0  0602               	decf	(___awmod@dividend+1)^0,f,c
  3279  0066E2  EC59  F02C         	call	___awmod	;wreg free
  3280  0066E6  5001               	movf	?___awmod^0,w,c
  3281  0066E8  0D04               	mullw	4
  3282  0066EA  0EA9               	movlw	low __npowers_
  3283  0066EC  24F3               	addwf	243,w,c
  3284  0066EE  6EF6               	movwf	tblptrl,c
  3285  0066F0  0E7D               	movlw	high __npowers_
  3286  0066F2  20F4               	addwfc	244,w,c
  3287  0066F4  6EF7               	movwf	tblptrh,c
  3288  0066F6                     	if	0	;There are less than 3 active tblptr bytes
  3289  0066F6                     	endif
  3290  0066F6  0009               	tblrd		*+
  3291  0066F8  CFF5 F023          	movff	tablat,___flmul@a
  3292  0066FC  0009               	tblrd		*+
  3293  0066FE  CFF5 F024          	movff	tablat,___flmul@a+1
  3294  006702  0009               	tblrd		*+
  3295  006704  CFF5 F025          	movff	tablat,___flmul@a+2
  3296  006708  000A               	tblrd		*-
  3297  00670A  CFF5 F026          	movff	tablat,___flmul@a+3
  3298  00670E  ECA7  F034         	call	___flmul	;wreg free
  3299  006712  C01F  F038         	movff	?___flmul,?_scale
  3300  006716  C020  F039         	movff	?___flmul+1,?_scale+1
  3301  00671A  C021  F03A         	movff	?___flmul+2,?_scale+2
  3302  00671E  C022  F03B         	movff	?___flmul+3,?_scale+3
  3303  006722  EFA6  F034         	goto	l191
  3304  006726                     l2917:
  3305                           
  3306                           ;C:\Program Files (x86)\Microchip\xc8\v2.10\pic\sources\c90\common\doprnt.c: 442:   retu
      +                          rn _npowers_[(unsigned char)scl];
  3307  006726  5040               	movf	scale@scl^0,w,c
  3308  006728  0D04               	mullw	4
  3309  00672A  0EA9               	movlw	low __npowers_
  3310  00672C  24F3               	addwf	243,w,c
  3311  00672E  6EF6               	movwf	tblptrl,c
  3312  006730  0E7D               	movlw	high __npowers_
  3313  006732  20F4               	addwfc	244,w,c
  3314  006734  6EF7               	movwf	tblptrh,c
  3315  006736                     	if	0	;There are less than 3 active tblptr bytes
  3316  006736                     	endif
  3317  006736  0009               	tblrd		*+
  3318  006738  CFF5 F038          	movff	tablat,?_scale
  3319  00673C  0009               	tblrd		*+
  3320  00673E  CFF5 F039          	movff	tablat,?_scale+1
  3321  006742  0009               	tblrd		*+
  3322  006744  CFF5 F03A          	movff	tablat,?_scale+2
  3323  006748  000A               	tblrd		*-
  3324  00674A  CFF5 F03B          	movff	tablat,?_scale+3
  3325  00674E  EFA6  F034         	goto	l191
  3326  006752                     l2921:
  3327                           
  3328                           ;C:\Program Files (x86)\Microchip\xc8\v2.10\pic\sources\c90\common\doprnt.c: 444:  if(sc
      +                          l>=110)
  3329  006752  5040               	movf	scale@scl^0,w,c
  3330  006754  0A80               	xorlw	128
  3331  006756  0F12               	addlw	-238
  3332  006758  A0D8               	btfss	status,0,c
  3333  00675A  EFB1  F033         	goto	u2791
  3334  00675E  EFB3  F033         	goto	u2790
  3335  006762                     u2791:
  3336  006762  EF3C  F034         	goto	l2929
  3337  006766                     u2790:
  3338  006766                     
  3339                           ;C:\Program Files (x86)\Microchip\xc8\v2.10\pic\sources\c90\common\doprnt.c: 445:   retu
      +                          rn _powers_[(unsigned char)(scl/100+18)] * _powers_[(unsigned char)((scl%100)/10+9)] * _
      +                          powers_[(unsigned char)(scl%10)];
  3340  006766  0E00               	movlw	0
  3341  006768  6E0A               	movwf	(___awdiv@divisor+1)^0,c
  3342  00676A  0E0A               	movlw	10
  3343  00676C  6E09               	movwf	___awdiv@divisor^0,c
  3344  00676E  0E00               	movlw	0
  3345  006770  6E04               	movwf	(___awmod@divisor+1)^0,c
  3346  006772  0E64               	movlw	100
  3347  006774  6E03               	movwf	___awmod@divisor^0,c
  3348  006776  5040               	movf	scale@scl^0,w,c
  3349  006778  6E01               	movwf	___awmod@dividend^0,c
  3350  00677A  6A02               	clrf	(___awmod@dividend+1)^0,c
  3351  00677C  BE01               	btfsc	___awmod@dividend^0,7,c
  3352  00677E  0602               	decf	(___awmod@dividend+1)^0,f,c
  3353  006780  EC59  F02C         	call	___awmod	;wreg free
  3354  006784  C001  F007         	movff	?___awmod,___awdiv@dividend
  3355  006788  C002  F008         	movff	?___awmod+1,___awdiv@dividend+1
  3356  00678C  EC12  F02D         	call	___awdiv	;wreg free
  3357  006790  0E09               	movlw	9
  3358  006792  2607               	addwf	?___awdiv^0,f,c
  3359  006794  5007               	movf	?___awdiv^0,w,c
  3360  006796  0D04               	mullw	4
  3361  006798  0E75               	movlw	low __powers_
  3362  00679A  24F3               	addwf	243,w,c
  3363  00679C  6EF6               	movwf	tblptrl,c
  3364  00679E  0E7D               	movlw	high __powers_
  3365  0067A0  20F4               	addwfc	244,w,c
  3366  0067A2  6EF7               	movwf	tblptrh,c
  3367  0067A4                     	if	0	;There are less than 3 active tblptr bytes
  3368  0067A4                     	endif
  3369  0067A4  0009               	tblrd		*+
  3370  0067A6  CFF5 F023          	movff	tablat,___flmul@a
  3371  0067AA  0009               	tblrd		*+
  3372  0067AC  CFF5 F024          	movff	tablat,___flmul@a+1
  3373  0067B0  0009               	tblrd		*+
  3374  0067B2  CFF5 F025          	movff	tablat,___flmul@a+2
  3375  0067B6  000A               	tblrd		*-
  3376  0067B8  CFF5 F026          	movff	tablat,___flmul@a+3
  3377  0067BC  0E00               	movlw	0
  3378  0067BE  6E0A               	movwf	(___awdiv@divisor+1)^0,c
  3379  0067C0  0E64               	movlw	100
  3380  0067C2  6E09               	movwf	___awdiv@divisor^0,c
  3381  0067C4  5040               	movf	scale@scl^0,w,c
  3382  0067C6  6E07               	movwf	___awdiv@dividend^0,c
  3383  0067C8  6A08               	clrf	(___awdiv@dividend+1)^0,c
  3384  0067CA  BE07               	btfsc	___awdiv@dividend^0,7,c
  3385  0067CC  0608               	decf	(___awdiv@dividend+1)^0,f,c
  3386  0067CE  EC12  F02D         	call	___awdiv	;wreg free
  3387  0067D2  0E12               	movlw	18
  3388  0067D4  2607               	addwf	?___awdiv^0,f,c
  3389  0067D6  5007               	movf	?___awdiv^0,w,c
  3390  0067D8  0D04               	mullw	4
  3391  0067DA  0E75               	movlw	low __powers_
  3392  0067DC  24F3               	addwf	243,w,c
  3393  0067DE  6EF6               	movwf	tblptrl,c
  3394  0067E0  0E7D               	movlw	high __powers_
  3395  0067E2  20F4               	addwfc	244,w,c
  3396  0067E4  6EF7               	movwf	tblptrh,c
  3397  0067E6                     	if	0	;There are less than 3 active tblptr bytes
  3398  0067E6                     	endif
  3399  0067E6  0009               	tblrd		*+
  3400  0067E8  CFF5 F01F          	movff	tablat,___flmul@b
  3401  0067EC  0009               	tblrd		*+
  3402  0067EE  CFF5 F020          	movff	tablat,___flmul@b+1
  3403  0067F2  0009               	tblrd		*+
  3404  0067F4  CFF5 F021          	movff	tablat,___flmul@b+2
  3405  0067F8  000A               	tblrd		*-
  3406  0067FA  CFF5 F022          	movff	tablat,___flmul@b+3
  3407  0067FE  ECA7  F034         	call	___flmul	;wreg free
  3408  006802  C01F  F03C         	movff	?___flmul,_scale$1358
  3409  006806  C020  F03D         	movff	?___flmul+1,_scale$1358+1
  3410  00680A  C021  F03E         	movff	?___flmul+2,_scale$1358+2
  3411  00680E  C022  F03F         	movff	?___flmul+3,_scale$1358+3
  3412                           
  3413                           ;C:\Program Files (x86)\Microchip\xc8\v2.10\pic\sources\c90\common\doprnt.c: 445:   retu
      +                          rn _powers_[(unsigned char)(scl/100+18)] * _powers_[(unsigned char)((scl%100)/10+9)] * _
      +                          powers_[(unsigned char)(scl%10)];
  3414  006812  C03C  F01F         	movff	_scale$1358,___flmul@b
  3415  006816  C03D  F020         	movff	_scale$1358+1,___flmul@b+1
  3416  00681A  C03E  F021         	movff	_scale$1358+2,___flmul@b+2
  3417  00681E  C03F  F022         	movff	_scale$1358+3,___flmul@b+3
  3418  006822  0E00               	movlw	0
  3419  006824  6E04               	movwf	(___awmod@divisor+1)^0,c
  3420  006826  0E0A               	movlw	10
  3421  006828  6E03               	movwf	___awmod@divisor^0,c
  3422  00682A  5040               	movf	scale@scl^0,w,c
  3423  00682C  6E01               	movwf	___awmod@dividend^0,c
  3424  00682E  6A02               	clrf	(___awmod@dividend+1)^0,c
  3425  006830  BE01               	btfsc	___awmod@dividend^0,7,c
  3426  006832  0602               	decf	(___awmod@dividend+1)^0,f,c
  3427  006834  EC59  F02C         	call	___awmod	;wreg free
  3428  006838  5001               	movf	?___awmod^0,w,c
  3429  00683A  0D04               	mullw	4
  3430  00683C  0E75               	movlw	low __powers_
  3431  00683E  24F3               	addwf	243,w,c
  3432  006840  6EF6               	movwf	tblptrl,c
  3433  006842  0E7D               	movlw	high __powers_
  3434  006844  20F4               	addwfc	244,w,c
  3435  006846  6EF7               	movwf	tblptrh,c
  3436  006848                     	if	0	;There are less than 3 active tblptr bytes
  3437  006848                     	endif
  3438  006848  0009               	tblrd		*+
  3439  00684A  CFF5 F023          	movff	tablat,___flmul@a
  3440  00684E  0009               	tblrd		*+
  3441  006850  CFF5 F024          	movff	tablat,___flmul@a+1
  3442  006854  0009               	tblrd		*+
  3443  006856  CFF5 F025          	movff	tablat,___flmul@a+2
  3444  00685A  000A               	tblrd		*-
  3445  00685C  CFF5 F026          	movff	tablat,___flmul@a+3
  3446  006860  ECA7  F034         	call	___flmul	;wreg free
  3447  006864  C01F  F038         	movff	?___flmul,?_scale
  3448  006868  C020  F039         	movff	?___flmul+1,?_scale+1
  3449  00686C  C021  F03A         	movff	?___flmul+2,?_scale+2
  3450  006870  C022  F03B         	movff	?___flmul+3,?_scale+3
  3451  006874  EFA6  F034         	goto	l191
  3452  006878                     l2929:
  3453  006878  5040               	movf	scale@scl^0,w,c
  3454  00687A  0A80               	xorlw	128
  3455  00687C  0F75               	addlw	-139
  3456  00687E  A0D8               	btfss	status,0,c
  3457  006880  EF44  F034         	goto	u2801
  3458  006884  EF46  F034         	goto	u2800
  3459  006888                     u2801:
  3460  006888  EF92  F034         	goto	l2935
  3461  00688C                     u2800:
  3462  00688C                     
  3463                           ;C:\Program Files (x86)\Microchip\xc8\v2.10\pic\sources\c90\common\doprnt.c: 447:   retu
      +                          rn _powers_[(unsigned char)(scl/10+9)] * _powers_[(unsigned char)(scl%10)];
  3464  00688C  0E00               	movlw	0
  3465  00688E  6E0A               	movwf	(___awdiv@divisor+1)^0,c
  3466  006890  0E0A               	movlw	10
  3467  006892  6E09               	movwf	___awdiv@divisor^0,c
  3468  006894  5040               	movf	scale@scl^0,w,c
  3469  006896  6E07               	movwf	___awdiv@dividend^0,c
  3470  006898  6A08               	clrf	(___awdiv@dividend+1)^0,c
  3471  00689A  BE07               	btfsc	___awdiv@dividend^0,7,c
  3472  00689C  0608               	decf	(___awdiv@dividend+1)^0,f,c
  3473  00689E  EC12  F02D         	call	___awdiv	;wreg free
  3474  0068A2  0E09               	movlw	9
  3475  0068A4  2607               	addwf	?___awdiv^0,f,c
  3476  0068A6  5007               	movf	?___awdiv^0,w,c
  3477  0068A8  0D04               	mullw	4
  3478  0068AA  0E75               	movlw	low __powers_
  3479  0068AC  24F3               	addwf	243,w,c
  3480  0068AE  6EF6               	movwf	tblptrl,c
  3481  0068B0  0E7D               	movlw	high __powers_
  3482  0068B2  20F4               	addwfc	244,w,c
  3483  0068B4  6EF7               	movwf	tblptrh,c
  3484  0068B6                     	if	0	;There are less than 3 active tblptr bytes
  3485  0068B6                     	endif
  3486  0068B6  0009               	tblrd		*+
  3487  0068B8  CFF5 F01F          	movff	tablat,___flmul@b
  3488  0068BC  0009               	tblrd		*+
  3489  0068BE  CFF5 F020          	movff	tablat,___flmul@b+1
  3490  0068C2  0009               	tblrd		*+
  3491  0068C4  CFF5 F021          	movff	tablat,___flmul@b+2
  3492  0068C8  000A               	tblrd		*-
  3493  0068CA  CFF5 F022          	movff	tablat,___flmul@b+3
  3494  0068CE  0E00               	movlw	0
  3495  0068D0  6E04               	movwf	(___awmod@divisor+1)^0,c
  3496  0068D2  0E0A               	movlw	10
  3497  0068D4  6E03               	movwf	___awmod@divisor^0,c
  3498  0068D6  5040               	movf	scale@scl^0,w,c
  3499  0068D8  6E01               	movwf	___awmod@dividend^0,c
  3500  0068DA  6A02               	clrf	(___awmod@dividend+1)^0,c
  3501  0068DC  BE01               	btfsc	___awmod@dividend^0,7,c
  3502  0068DE  0602               	decf	(___awmod@dividend+1)^0,f,c
  3503  0068E0  EC59  F02C         	call	___awmod	;wreg free
  3504  0068E4  5001               	movf	?___awmod^0,w,c
  3505  0068E6  0D04               	mullw	4
  3506  0068E8  0E75               	movlw	low __powers_
  3507  0068EA  24F3               	addwf	243,w,c
  3508  0068EC  6EF6               	movwf	tblptrl,c
  3509  0068EE  0E7D               	movlw	high __powers_
  3510  0068F0  20F4               	addwfc	244,w,c
  3511  0068F2  6EF7               	movwf	tblptrh,c
  3512  0068F4                     	if	0	;There are less than 3 active tblptr bytes
  3513  0068F4                     	endif
  3514  0068F4  0009               	tblrd		*+
  3515  0068F6  CFF5 F023          	movff	tablat,___flmul@a
  3516  0068FA  0009               	tblrd		*+
  3517  0068FC  CFF5 F024          	movff	tablat,___flmul@a+1
  3518  006900  0009               	tblrd		*+
  3519  006902  CFF5 F025          	movff	tablat,___flmul@a+2
  3520  006906  000A               	tblrd		*-
  3521  006908  CFF5 F026          	movff	tablat,___flmul@a+3
  3522  00690C  ECA7  F034         	call	___flmul	;wreg free
  3523  006910  C01F  F038         	movff	?___flmul,?_scale
  3524  006914  C020  F039         	movff	?___flmul+1,?_scale+1
  3525  006918  C021  F03A         	movff	?___flmul+2,?_scale+2
  3526  00691C  C022  F03B         	movff	?___flmul+3,?_scale+3
